:020000040003F7
:10000000A0C80020DD030300E5030300E7030300AD
:10001000E9030300EB030300ED030300000000000D
:10002000000000000000000000000000EF030300DB
:10003000F103030000000000F3030300F5030300D5
:10004000494C0300F7030300BD550300414E030074
:10005000F7030300F7030300453E0300F94C0300D8
:10006000F7030300F7030300F7030300F70303009C
:10007000F7030300C14C0300F7030300F703030079
:100080008D560300E94C0300F7030300F703030058
:10009000F7030300F70303008D520300F703030087
:1000A000F7030300F7030300F7030300F70303005C
:1000B000A14C0300F7030300000000000000000053
:1000C000F7030300B14C0300F7030300F703030039
:1000D000F7030300F7030300F70303000000000029
:1000E0000000000000000000000000000000000010
:1000F0000000000000000000000000000000000000
:1001000000000000000000000000000000000000EF
:1001100000000000000000000000000000000000DF
:1001200000000000000000000000000000000000CF
:1001300000000000000000000000000000000000BF
:1001400000000000000000000000000000000000AF
:10015000000000000000000000000000000000009F
:10016000000000000000000000000000000000008F
:10017000000000000000000000000000000000007F
:10018000000000000000000000000000000000006F
:10019000000000000000000000000000000000005F
:1001A000000000000000000000000000000000004F
:1001B000000000000000000000000000000000003F
:1001C000000000000000000000000000000000002F
:1001D000000000000000000000000000000000001F
:1001E000000000000000000000000000000000000F
:1001F00000000000000000000000000000000000FF
:10020000DFF80CD001F058FE0048004751DC030035
:10021000A0C8002000B583B002900091019244F282
:10022000010071466A4606F0ABF803B000BD00005D
:1002300030B450E8012F93B2C48923448489A34287
:1002400028BF1B1B0489A34202BFBFF32F8F0020CE
:1002500007E0C3EA020340E80134002CE9D14FF083
:1002600001000A6030BC704750E8012FC2EA024228
:1002700040E801210029F7D1704730B450E8022F3F
:100280001FFAA2F3C488A34202BFBFF32F8F00203E
:100290000DE0C48923448489A34228BF1B1BC2EA02
:1002A000034340E80234002CE8D14FF001000A601B
:1002B00030BC704750E8022FC2EA224240E80221D7
:1002C0000029F7D17047034653E8022FD988B2EBD3
:1002D000324F4FF0000017BF92B241EA014142EAAB
:1002E000014104E05A68B2EB324F08BF012043E8F5
:1002F0000212002AE8D1704730B4044654E8000FD7
:100300000D4644E80053002BF8D1156030BC70470F
:1003100030B4044654E8000F40EA010544E80053B5
:10032000002BF7D1156030BC704730B4044654E858
:10033000000F00EA010544E80053002BF7D11560D7
:1003400030BC704730B4044654E8000F80EA010521
:1003500044E80053002BF7D1156030BC704730B42F
:10036000044654E8000F00EB010544E80053002B5D
:10037000F7D1156030BC704730B4044654E8000F24
:10038000A0EB010544E80053002BF7D1156030BC09
:10039000704770B404464FF0000054E8006F0D68D9
:1003A000AE4207BF44E80023012044E800630E602A
:1003B000002B1CBF0020F0E770BC704730B404462F
:1003C00054E8000F88422CBF451A054644E8005304
:1003D000002BF5D1156030BC7047000006488047FF
:1003E00006480047FEE7FEE7FEE7FEE7FEE7FEE71A
:1003F000FEE7FEE7FEE7FEE791520300010203007D
:1004000070B491E87800B2E802105B1854EB0C0469
:10041000B2E802104D4156EB0C0680E878008041AE
:10042000013070BC704770B491E87800B2E80210F7
:100430005B1A74EB0C04B2E802108D4176EB0C06EB
:1004400080E878008041404270BC70472DE9F00799
:1004500091E8F807B2E802105B1854EB0C04B2E81C
:1004600002104D4156EB0C06B2E802104F4158EB1A
:100470000C08B2E8021059EB01095AEB0C0A80E8AB
:10048000F80780410130BDE8F00770472DE9F0071B
:1004900091E8F807B2E802105B1A74EB0C04B2E8BA
:1004A00002108D4176EB0C06B2E802108F4178EB1A
:1004B0000C08B2E8021079EB01097AEB0C0A80E82B
:1004C000F80780414042BDE8F00770472DE9F0078A
:1004D000524290E87800B1E880071740DB1918EA2B
:1004E000020854EB080419EA020955EB09051AEA57
:1004F000020A56EB0A0678C090E87800B1E8800757
:1005000017407B4118EA020854EB080419EA020973
:1005100055EB09051AEA020A56EB0A0678C0804133
:100520000130BDE8F00770472DE9F007524290E82E
:100530007800B1E880071740DB1B18EA020874EB6B
:10054000080419EA020975EB09051AEA020A76EBB2
:100550000A0678C090E87800B1E880071740BB41F0
:1005600018EA020874EB080419EA020975EB090598
:100570001AEA020A76EB0A0678C080414042BDE8DA
:10058000F007704790E8300091E8C000A31B1340CB
:10059000E41AF618EB1B1340ED1AFF1830C0C0C167
:1005A0007047F0B55242FFF7EDFFFFF7EBFFFFF7A3
:1005B000E9FFFFF7E7FFF0BD2DE9F0073AC916683C
:1005C000A1FB069A4FF0000CE3FB06AC4FF00007CE
:1005D000E4FB06C74FF00008E5FB067840F8049BF3
:1005E00056684FF00009E1FB06A91CEB090C4FF01F
:1005F000000949EB0909E3FB06C917EB09074FF0AE
:10060000000949EB0909E4FB067918EB09084FF0EA
:10061000000949EB0909E5FB068940F804AB966837
:100620004FF0000AE1FB06CA17EB0A074FF0000A79
:100630004AEB0A0AE3FB067A18EB0A084FF0000AB5
:100640004AEB0A0AE4FB068A19EB0A094FF0000A92
:100650004AEB0A0AE5FB069A40F804CBD6684FF04D
:10066000000CE1FB067C18EB0C084FF0000C4CEB87
:100670000C0CE3FB068C19EB0C094FF0000C4CEB57
:100680000C0CE4FB069C1AEB0C0A4FF0000C4CEB34
:100690000C0CE5FB06AC80E88017BDE8F00770475E
:1006A0000A462DE9F04F41EC140A92EC080A1EC9E3
:1006B00010EE100AA1FB00784FF00009E2FB008960
:1006C0004FF0000AE3FB009A4FF0000BE4FB00AB95
:1006D00012EE100A4FF0000CE1FB00BC4FF0000ED0
:1006E000E2FB00CE4FF00005E3FB00E54FF0000613
:1006F000E4FB005605EE107A10EE900A4FF000076A
:10070000E1FB008719EB07094FF0000747EB0707EC
:10071000E2FB00971AEB070A4FF0000747EB0707C9
:10072000E3FB00A71BEB070B4FF0000747EB0707A6
:10073000E4FB00B712EE900A1CEB070C4FF0000729
:1007400047EB0707E1FB00C71EEB070E4FF0000762
:1007500047EB0707E2FB00E7ED194FF0000747EB17
:100760000707E3FB0057F6194FF0000747EB0707B1
:10077000E4FB006705EE908A11EE100A4FF00008C6
:10078000E1FB00981AEB080A4FF0000848EB080854
:10079000E2FB00A81BEB080B4FF0000848EB080831
:1007A000E3FB00B81CEB080C4FF0000848EB08080E
:1007B000E4FB00C813EE100A1EEB080E4FF0000811
:1007C00048EB0808E1FB00E815EB08054FF00008CE
:1007D00048EB0808E2FB005816EB08064FF000084B
:1007E00048EB0808E3FB006817EB08074FF0000828
:1007F00048EB0808E4FB007806EE109A11EE900A28
:100800004FF00009E1FB00A91BEB090B4FF00009B9
:1008100049EB0909E2FB00B91CEB090C4FF0000998
:1008200049EB0909E3FB00C91EEB090E4FF0000973
:1008300049EB0909E4FB00E913EE900A15EB090501
:100840004FF0000949EB0909E1FB005916EB0906D5
:100850004FF0000949EB0909E2FB006917EB0907B2
:100860004FF0000949EB0909E3FB007918EB09088F
:100870004FF0000949EB0909E4FB008906EE90AA54
:1008800014EE901A01F110011EC910EE100A4FF07B
:10089000000AE1FB00BA1CEB0A0C4FF0000A4AEB1D
:1008A0000A0AE2FB00CA1EEB0A0E4FF0000A4AEBEE
:1008B0000A0AE3FB00EA15EB0A054FF0000A4AEBCF
:1008C0000A0AE4FB005A12EE100A16EB0A064FF071
:1008D000000A4AEB0A0AE1FB006A17EB0A074FF02D
:1008E000000A4AEB0A0AE2FB007A18EB0A084FF00A
:1008F000000A4AEB0A0AE3FB008A19EB0A094FF0E7
:10090000000A4AEB0A0AE4FB009A07EE10BA10EE5E
:10091000900A4FF0000BE1FB00CB1EEB0B0E4FF0EB
:10092000000B4BEB0B0BE2FB00EB15EB0B054FF059
:10093000000B4BEB0B0BE3FB005B16EB0B064FF0D6
:10094000000B4BEB0B0BE4FB006B12EE900A17EB6A
:100950000B074FF0000B4BEB0B0BE1FB007B18EB95
:100960000B084FF0000B4BEB0B0BE2FB008B19EB72
:100970000B094FF0000B4BEB0B0BE3FB009B1AEB4F
:100980000B0A4FF0000B4BEB0B0BE4FB00AB07EE3D
:1009900090CA11EE100A4FF0000CE1FB00EC15EBD1
:1009A0000C054FF0000C4CEB0C0CE2FB005C16EB62
:1009B0000C064FF0000C4CEB0C0CE3FB006C17EB3F
:1009C0000C074FF0000C4CEB0C0CE4FB007C13EE1E
:1009D000100A18EB0C084FF0000C4CEB0C0CE1FB70
:1009E000008C19EB0C094FF0000C4CEB0C0CE2FBEB
:1009F000009C1AEB0C0A4FF0000C4CEB0C0CE3FBC8
:100A000000AC1BEB0C0B4FF0000C4CEB0C0CE4FBA4
:100A100000BC08EE10EA11EE900A4FF0000EE1FB68
:100A2000005E16EB0E064FF0000E4EEB0E0EE2FBD4
:100A3000006E17EB0E074FF0000E4EEB0E0EE3FBB1
:100A4000007E18EB0E084FF0000E4EEB0E0EE4FB8E
:100A5000008E13EE900A19EB0E094FF0000E4EEBCC
:100A60000E0EE1FB009E1AEB0E0A4FF0000E4EEB4D
:100A70000E0EE2FB00AE1BEB0E0B4FF0000E4EEB2A
:100A80000E0EE3FB00BE1CEB0E0C4FF0000E4EEB07
:100A90000E0EE4FB00CE14EE100AA0EC075A80E81C
:100AA000E05FBDE8F08F00BF30B44FF0000310F8F6
:100AB000014B11F8015B013A84EA050443EA04039F
:100AC000F5D1A3F101034FEAD37030BC70474FF06A
:100AD000000310F8012B013943EA0203F9D1A3F115
:100AE00001034FEAD370704711F8013B00F8013B56
:100AF000013AF9D17047002200F8012B0139FBD1EE
:100B0000704700BF2DE9F00791E8F807B2E802103E
:100B10005B1854EB0C04B2E802104D4156EB0C0686
:100B2000B2E802104F4158EB0C08B2E8021059EB42
:100B300001095AEB0C0A8941B3F1FF3374F1FF3418
:100B400075F1FF3576F1000677F1000778F10008BE
:100B500079F101097AF1FF3A51F100014A425B183B
:100B60004C414D4156F1000657F1000758F100087D
:100B700059EB02095AEB010A80E8F807BDE8F007D3
:100B800070472DE9F00791E8F807B2E802105B1A08
:100B900074EB0C04B2E802108D4176EB0C06B2E85F
:100BA00002108F4178EB0C08B2E8021079EB0109D2
:100BB0007AEB0C0A89414A425B184C414D4156F18F
:100BC000000657F1000758F1000859EB02095AEBEB
:100BD000010A80E8F807BDE8F00770470A462DE9EA
:100BE000F04F41EC140A92EC080A1EC910EE100AEC
:100BF000A1FB00784FF00009E2FB00894FF0000AEA
:100C0000E3FB009A4FF0000BE4FB00AB12EE100A7E
:100C10004FF0000CE1FB00BC4FF0000EE2FB00CEF9
:100C20004FF00005E3FB00E54FF00006E4FB005643
:100C300005EE107A10EE900A4FF00007E1FB0087F6
:100C400019EB07094FF0000747EB0707E2FB009796
:100C50001AEB070A4FF0000747EB0707E3FB00A773
:100C60001BEB070B4FF0000747EB0707E4FB00B750
:100C700012EE900A1CEB070C4FF0000747EB07073A
:100C8000E1FB00C71EEB070E4FF0000747EB07071D
:100C9000E2FB00E7ED194FF0000747EB0707E3FB26
:100CA0000057F6194FF0000747EB0707E4FB006712
:100CB00005EE908A11EE100A4FF00008E1FB009853
:100CC0001AEB080A4FF0000848EB0808E2FB00A8FE
:100CD0001BEB080B4FF0000848EB0808E3FB00B8DB
:100CE0001CEB080C4FF0000848EB0808E4FB00C8B8
:100CF00013EE100A1EEB080E4FF0000848EB080830
:100D0000E1FB00E815EB08054FF0000848EB080888
:100D1000E2FB005816EB08064FF0000848EB080805
:100D2000E3FB006817EB08074FF0000848EB0808E2
:100D3000E4FB007806EE109A11EE900A4FF00009DD
:100D4000E1FB00A91BEB090B4FF0000949EB090976
:100D5000E2FB00B91CEB090C4FF0000949EB090953
:100D6000E3FB00C91EEB090E4FF0000949EB09092E
:100D7000E4FB00E913EE900A15EB09054FF00009BA
:100D800049EB0909E1FB005916EB09064FF0000990
:100D900049EB0909E2FB006917EB09074FF000096D
:100DA00049EB0909E3FB007918EB09084FF000094A
:100DB00049EB0909E4FB008906EE90AA14EE901AAB
:100DC00001F110011EC910EE100A4FF0000AE1FBFC
:100DD00000BA1CEB0A0C4FF0000A4AEB0A0AE2FBCD
:100DE00000CA1EEB0A0E4FF0000A4AEB0A0AE3FBA8
:100DF00000EA15EB0A054FF0000A4AEB0A0AE4FB89
:100E0000005A12EE100A16EB0A064FF0000A4AEBDF
:100E10000A0AE1FB006A17EB0A074FF0000A4AEBE7
:100E20000A0AE2FB007A18EB0A084FF0000A4AEBC4
:100E30000A0AE3FB008A19EB0A094FF0000A4AEBA1
:100E40000A0AE4FB009A07EE10BA10EE900A4FF07F
:100E5000000BE1FB00CB1EEB0B0E4FF0000B4BEB3E
:100E60000B0BE2FB00EB15EB0B054FF0000B4BEB14
:100E70000B0BE3FB005B16EB0B064FF0000B4BEB91
:100E80000B0BE4FB006B12EE900A17EB0B074FF015
:100E9000000B4BEB0B0BE1FB007B18EB0B084FF04F
:100EA000000B4BEB0B0BE2FB008B19EB0B094FF02C
:100EB000000B4BEB0B0BE3FB009B1AEB0B0A4FF009
:100EC000000B4BEB0B0BE4FB00AB07EE90CA11EEF3
:100ED000100A4FF0000CE1FB00EC15EB0C054FF095
:100EE000000C4CEB0C0CE2FB005C16EB0C064FF01C
:100EF000000C4CEB0C0CE3FB006C17EB0C074FF0F9
:100F0000000C4CEB0C0CE4FB007C13EE100A18EB0D
:100F10000C084FF0000C4CEB0C0CE1FB008C19EBB7
:100F20000C094FF0000C4CEB0C0CE2FB009C1AEB94
:100F30000C0A4FF0000C4CEB0C0CE3FB00AC1BEB71
:100F40000C0B4FF0000C4CEB0C0CE4FB00BC08EE5F
:100F500010EA11EE900A4FF0000EE1FB005E16EB76
:100F60000E064FF0000E4EEB0E0EE2FB006E17EB7E
:100F70000E074FF0000E4EEB0E0EE3FB007E18EB5B
:100F80000E084FF0000E4EEB0E0EE4FB008E13EE3B
:100F9000900A19EB0E094FF0000E4EEB0E0EE1FB1E
:100FA000009E1AEB0E0A4FF0000E4EEB0E0EE2FB07
:100FB00000AE1BEB0E0B4FF0000E4EEB0E0EE3FBE4
:100FC00000BE1CEB0E0C4FF0000E4EEB0E0EE4FBC1
:100FD00000CE53EC172A18EE104A12EB0A0253EB1C
:100FE0000B0354EB0C0455EB0E05002040F1000000
:100FF00012EB0B0253EB0C0354EB0E0455EB0E05F6
:1010000046410020474158EB000859EB0A0940F1DE
:101010000000B2EB0E0273F1000374F1000475EBF3
:101020000A0576EB0B0677EB0C0778EB0A0879EBF1
:101030000C0960F10000B5EB0B0576EB0C0677EBC5
:101040000E0778EB0B0879EB0E0960F100005FEA00
:10105000E07C7FEA0C0CDCF1000EB2EB0C0273EBCF
:101060000C0374EB0C0475F1000576F1000677F1C2
:10107000000778EB0E0879EB0C0960F100005FEADD
:10108000E07CDCF1000E12EB0C0253EB0C0354EB92
:101090000C0455F1000556F1000657F1000758EB16
:1010A0000E0859EB0C0940F100005FEAE07CDCF12E
:1010B000000E12EB0C0253EB0C0354EB0C0455F135
:1010C000000556F1000657F1000758EB0E0859EBE2
:1010D0000C095BEC15AA51EC160A1AEB060A5BEB3D
:1010E000070B50EB080051EB09015FF0000C4CF1CD
:1010F000000C1AEB070A5BEB080B50EB090051EBF5
:10110000090152EB0C025FF0000C53EB0C0354EBA3
:101110000C0475414CF1000CBAEB090A7BF1000B91
:1011200070F10000B141BA4173EB0803B44175EBB3
:1011300008056CF1000CC91B72EB080273EB090384
:10114000BC4175EB09056CF1000C5FEAEC787FEAB5
:101150000808D8F10009BAEB080A7BEB080B70EB22
:10116000080071F1000172F1000273F1000374EBE9
:10117000090475EB08056CF1000C5FEAEC78D8F116
:1011800000091AEB080A5BEB080B50EB080051F161
:10119000000152F1000253F1000354EB090455EB36
:1011A00008054CF1000C5FEAEC78D8F100091AEB65
:1011B000080A5BEB080B50EB080051F1000152F1FB
:1011C000000253F1000354EB090455EB080514EE3B
:1011D000107AA7E8000C87E83F00BDE8F08F00BF59
:1011E0002DE9F00791E8F807B2E802105B1854EB1C
:1011F0000C04B2E802104D4156EB0C06B2E80210A6
:101200004F4158EB0C08B2E8021059EB01095AEBB8
:101210000C0A4FF0260261EB010122EA01015B1882
:1012200054F1000455F1000556F1000657F100078E
:1012300058F1000859F100095AF1000A61EB010167
:1012400022EA01010B4480E8F807BDE8F007704787
:101250002DE9F00791E8F807B2E802105B1A74EB89
:101260000C04B2E802108D4176EB0C06B2E80210D5
:101270008F4178EB0C08B2E8021079EB01097AEBA8
:101280000C0A4FF0260261EB010102EA01015B1A30
:1012900074F1000475F1000576F1000677F100079E
:1012A00078F1000879F100097AF1000A61EB010197
:1012B00002EA0101A3EB010380E8F807BDE8F007AB
:1012C00070470A462DE9F04F41EC140A92EC080AE7
:1012D0001EC910EE100AA1FB00784FF00009E2FBD6
:1012E00000894FF0000AE3FB009A4FF0000BE4FB8B
:1012F00000AB12EE100A4FF0000CE1FB00BC4FF007
:10130000000EE2FB00CE4FF00005E3FB00E54FF0DE
:101310000006E4FB005605EE107A10EE900A4FF03E
:101320000007E1FB008719EB07094FF0000747EBC7
:101330000707E2FB00971AEB070A4FF0000747EB9D
:101340000707E3FB00A71BEB070B4FF0000747EB7A
:101350000707E4FB00B712EE900A1CEB070C4FF0F6
:10136000000747EB0707E1FB00C71EEB070E4FF036
:10137000000747EB0707E2FB00E7ED194FF0000716
:1013800047EB0707E3FB0057F6194FF0000747EB61
:101390000707E4FB006705EE908A11EE100A4FF094
:1013A0000008E1FB00981AEB080A4FF0000848EB30
:1013B0000808E2FB00A81BEB080B4FF0000848EB05
:1013C0000808E3FB00B81CEB080C4FF0000848EBE2
:1013D0000808E4FB00C813EE100A1EEB080E4FF0DD
:1013E000000848EB0808E1FB00E815EB08054FF0A2
:1013F000000848EB0808E2FB005816EB08064FF01F
:10140000000848EB0808E3FB006817EB08074FF0FB
:10141000000848EB0808E4FB007806EE109A11EE8D
:10142000900A4FF00009E1FB00A91BEB090B4FF0FC
:10143000000949EB0909E2FB00B91CEB090C4FF06C
:10144000000949EB0909E3FB00C91EEB090E4FF047
:10145000000949EB0909E4FB00E913EE900A15EBDA
:1014600009054FF0000949EB0909E1FB005916EBAA
:1014700009064FF0000949EB0909E2FB006917EB87
:1014800009074FF0000949EB0909E3FB007918EB64
:1014900009084FF0000949EB0909E4FB008906EE51
:1014A00090AA14EE901A01F110011EC910EE100A54
:1014B0004FF0000AE1FB00BA1CEB0A0C4FF0000AE7
:1014C0004AEB0A0AE2FB00CA1EEB0A0E4FF0000AC2
:1014D0004AEB0A0AE3FB00EA15EB0A054FF0000AA3
:1014E0004AEB0A0AE4FB005A12EE100A16EB0A064F
:1014F0004FF0000A4AEB0A0AE1FB006A17EB0A0701
:101500004FF0000A4AEB0A0AE2FB007A18EB0A08DD
:101510004FF0000A4AEB0A0AE3FB008A19EB0A09BA
:101520004FF0000A4AEB0A0AE4FB009A07EE10BAF1
:1015300010EE900A4FF0000BE1FB00CB1EEB0B0E00
:101540004FF0000B4BEB0B0BE2FB00EB15EB0B052D
:101550004FF0000B4BEB0B0BE3FB005B16EB0B06AA
:101560004FF0000B4BEB0B0BE4FB006B12EE900A01
:1015700017EB0B074FF0000B4BEB0B0BE1FB007B6A
:1015800018EB0B084FF0000B4BEB0B0BE2FB008B47
:1015900019EB0B094FF0000B4BEB0B0BE3FB009B24
:1015A0001AEB0B0A4FF0000B4BEB0B0BE4FB00AB01
:1015B00007EE90CA11EE100A4FF0000CE1FB00ECB0
:1015C00015EB0C054FF0000C4CEB0C0CE2FB005C37
:1015D00016EB0C064FF0000C4CEB0C0CE3FB006C14
:1015E00017EB0C074FF0000C4CEB0C0CE4FB007CF1
:1015F00013EE100A18EB0C084FF0000C4CEB0C0C1F
:10160000E1FB008C19EB0C094FF0000C4CEB0C0CBF
:10161000E2FB009C1AEB0C0A4FF0000C4CEB0C0C9C
:10162000E3FB00AC1BEB0C0B4FF0000C4CEB0C0C79
:10163000E4FB00BC08EE10EA11EE900A4FF0000E39
:10164000E1FB005E16EB0E064FF0000E4EEB0E0EA9
:10165000E2FB006E17EB0E074FF0000E4EEB0E0E86
:10166000E3FB007E18EB0E084FF0000E4EEB0E0E63
:10167000E4FB008E13EE900A19EB0E094FF0000EFA
:101680004EEB0E0EE1FB009E1AEB0E0A4FF0000E21
:101690004EEB0E0EE2FB00AE1BEB0E0B4FF0000EFE
:1016A0004EEB0E0EE3FB00BE1CEB0E0C4FF0000EDB
:1016B0004EEB0E0EE4FB00CE4FF0260153EC152A44
:1016C0004FF00000E6FB01201B184FF0000040EB3C
:1016D0000000E7FB013057EC166A36184FF00000A7
:1016E00040EB0000E8FB01603F184FF0000040EBCA
:1016F0000000E9FB017059EC178A18EB00084FF065
:10170000000040EB0000EAFB018019EB00094FF0FC
:10171000000040EB0000EBFB019018EE10AA1AEB62
:10172000000A4FF0000040EB0000ECFB01A02D1878
:101730004FF0000040EB0000EEFB015000FB01F019
:10174000121853F1000356F1000657F1000758F143
:10175000000859F100095AF1000A55F1000B60EB3D
:10176000000021EA0000024414EE100A80E8CC0FC9
:10177000BDE8F08F2DE9F00791E8F0174EF6A15182
:101780004FEA4101A4FB01234FF00004E5FB0134C3
:101790004FF00005E6FB01454FF00006E7FB015660
:1017A0004FF00007E8FB01674FF00008E9FB017804
:1017B0004FF00009EAFB01894FF0000AECFB019AA7
:1017C0004FF026010AFB01FA12EB0A0253F1000363
:1017D00054F1000455F1000556F1000657F10007D9
:1017E00058F1000859F100096AEB0A0A21EA0A01D6
:1017F0000A4480E8FC03BDE8F00770472DE9F003D8
:1018000090E8F8134FEAEC7202F013022CF0004C4F
:1018100002F11301591854F1000155F1000156F17C
:10182000000157F1000158F1000159F100015CF18C
:1018300000014FEAE17101F0130111445B1854F10A
:10184000000455F1000556F1000657F1000758F164
:10185000000859F100094CF1000C2CF0004C80E814
:10186000F813BDE8F00370472DE9F05F054600204E
:1018700092469B4688460646814640241BE0284601
:1018800041464746224600F060FA53465A46C01A7F
:10189000914110D311461846224600F016F82D1A31
:1018A00067EB01084F4622460120002100F00DF8A9
:1018B00017EB00094E41201EA4F10104DFDC48466D
:1018C00031462A464346BDE8F09F202A04DB203AF1
:1018D00000FA02F1002070479140C2F1200320FA83
:1018E00003F319439040704700487047382F0500B4
:1018F00010B5441A0346944209D28418114403E0F7
:1019000011F8013D04F8013D521EF9D210BD40EA24
:101910000104A40703D009E010C9121F10C3042A50
:10192000FAD203E011F8014B03F8014B521EF9D231
:1019300010BDD2B201E000F8012B491EFBD2704766
:101940000022F6E710B513460A4604461946FFF78B
:10195000F0FF204610BD421C10F8011B0029FBD1EE
:10196000801A704730B504460020034600E05B1C37
:10197000934203D2E05CCD5C401BF8D030BD0346FF
:1019800011F8012B00F8012B002AF9D118467047F5
:101990002DE9FE4F804681EA0300C00F0C460090FF
:1019A00021F0004123F00045B8EB0200A94105D227
:1019B0004046214690461C460B46024623F0004016
:1019C000104347D0270DC7F30A00C3F30A51029012
:1019D000401A019040286BDAC3F3130040F4801BD7
:1019E0000098924620B10023D2EB030A63EB0B0B65
:1019F00001985946C0F140025046FFF766FF06467F
:101A00000D4650465946019A00F0AFF910EB080018
:101A10006141002487EA115284EAE7731A4340D0F7
:101A2000009A62B3019A012A4FEA075215DC001BA3
:101A300061EB02014FF0004202EA0752CDE9004299
:101A4000001C41F5801132462B4600F0E6F903B048
:101A5000BDE8F08F40462146F9E7001B61EB02012B
:101A6000001C41F5801300185B412018A2F50017F7
:101A700047EB030140EAD570B6196D4111E06D08DE
:101A80004FEA360645EAC0754FEA0752001B61EB84
:101A90000201001C41F5801149084FEA300000198D
:101AA000514132462B4603B0BDE8F04F00F0A6B9D5
:101AB0000098012240000023D0EB020263EBE073A8
:101AC000009821464FEAE074B8EB000061EB040196
:101AD000E9E783F000435BE781F0004158E72DE937
:101AE000FE4F81EA030404F0004421F00041009419
:101AF0004FF0000B23F0004350EA01045ED052EA9D
:101B000003045BD0C3F30A54C1F30A552C44A4F276
:101B1000F3340194A0FB0254C1F3130141F480118A
:101B2000C3F3130343F4801301FB024400FB034E91
:101B3000840A970A44EA815447EA8357A4FB07685A
:101B400002958D0A05FB07854FEA932C04FB0C5484
:101B50002705029D4FEA065847EA1637B5EB0805F8
:101B60006EEB070C870E920E47EA811742EA83124A
:101B7000A7FB0201B6EB0B0164EB00042B0D43EA5B
:101B80000C335E1844EB1C50DA465146E7FB020169
:101B9000C5F313044FEA0B3343EA14534FEA0432FC
:101BA000019C43EA0603A4F10C040294009CCDE9D5
:101BB00000B400F032F903B0BDE8F08F0020014618
:101BC000F9E72DE9F04D81EA030404F0004B21F020
:101BD000004514464FF0000A23F0004150EA050288
:101BE00020D054EA01021DD0C5F30A570246C5F3BE
:101BF0001303C1F31300C1F30A5640F4801543F4F4
:101C00008013A7EB0608101BD64608F2FD3873EBCD
:101C1000050002D308F1010801E092185B41B8F118
:101C2000000F03DA00200146BDE8F08D00204FF4DC
:101C30008011064684460EE0171B73EB050705D39B
:101C4000121B63EB050306434CEA010C49084FEAFB
:101C5000300092185B4150EA0107EDD152EA0300CF
:101C600012D082EA040083EA0501084305D0101B64
:101C7000AB4106D20122002306E000224FF00043D0
:101C800002E06FF0010253101AEB06004CEB085112
:101C900010EB0A0041EB0B01BDE8F04D00F0AEB8CF
:101CA0000EB540F2334102910021CDE900110A4600
:101CB0000B4600F0B2F803B000BDC1F30A5210B5F4
:101CC000C1F3130140F2FF3341F480119A4201DA6B
:101CD000002010BD40F233439A42A2F2334203DCAB
:101CE000524200F032F810BD904010BD00F00042AA
:101CF00030F000400AD0C10D01F56071C0F316004C
:101D000042EA0151C20840071143704700200146D2
:101D1000704701F0004330B421F0004150EA010265
:101D200006D00A0DA2F56072C1F31301002A02DC8D
:101D300030BC00207047440F44EAC104C100E018E1
:101D400030BC00EBC25000F022B8202A04DB203A5D
:101D500021FA02F00021704721FA02F3D040C2F1CB
:101D600020029140084319467047202A06DBCB1712
:101D7000203A41FA02F043EAE07306E041FA02F346
:101D8000D040C2F120029140084319467047002913
:101D9000A8BF7047401C490008BF20F001007047F1
:101DA00010B4B0FA80FC00FA0CF050EA010404BF51
:101DB00010BC704749B1CCF1200421FA04F411FAA7
:101DC0000CF118BF012121430843A3EB0C01CB1DEB
:101DD0004FEA00614FEA102042BF002010BC70475C
:101DE00000EBC35010440029A4BF10BC7047401C36
:101DF000490008BF20F0010010BC704710B5141E48
:101E000073F1000408DA401C41F1000192185B41B3
:101E10001A4301D120F0010010BD2DE9F04D92468A
:101E20009B4611B1B1FA81F202E0B0FA80F22032A1
:101E30009046FFF74AFD04460F4640EA0A0041EA91
:101E40000B0153465A46084313D0114653EA01008A
:101E500019D0C8F140025046FFF777FF05460E46FD
:101E6000504659464246FFF730FD084305D0012051
:101E700004E020463946BDE8F08D0020054346EADF
:101E8000E0762C4337430A986305E40AA0EB080088
:101E90000022FD0A44EA47540A3002D500200146D8
:101EA000E9E7010510196941DDE9084500196941B3
:101EB000BDE8F04DA2E70000064C074D06E0E068E3
:101EC00040F0010394E8070098471034AC42F6D381
:101ED000FEF79AF9785205009852050070B58C18F3
:101EE00010F8015B15F0070301D110F8013B2A112E
:101EF00006D110F8012B03E010F8016B01F8016B1B
:101F00005B1EF9D12B0705D40023521E0DD401F816
:101F1000013BFAE710F8013BCB1A921C03E013F8DF
:101F2000015B01F8015B521EF9D5A142D8D3002014
:101F300070BD00002DE9F0410446B0B00D460A46E0
:101F4000684604F12007002100F0C0F804F14008C1
:101F50003A46214610A804F16006FFF7B3F941465E
:101F6000324618A8FFF7AEF94246394620A8FFF7D7
:101F7000A9F93246214628A8FFF7A4F9EB0F6A46D3
:101F800010A9204600F000F930B0BDE8F08100BF94
:101F90002DE9F0410446B0B00D460A46684604F10A
:101FA0002007012100F092F804F140083A4621464A
:101FB00010A804F16006FFF785F94146324618A8DB
:101FC000FFF780F94246394620A8FFF77BF93246F1
:101FD000214628A8FFF776F9EB0F6A4610A920469C
:101FE00000F0D2F830B0BDE8F08100BF2DE9F0413B
:101FF0000446B0B0684604F12006884604F1400764
:1020000000F096F804F160053246214610A8FFF76B
:1020100059F939462A4618A8FFF754F93A46314685
:1020200020A8FFF74FF92A46214628A8FFF74AF9CA
:102030004FEAD8736A4610A9204600F0A5F830B0E0
:10204000BDE8F08170B5A0B0044601F120066846F5
:102050000D46FFF736F9314608A8FFF732F905F1CA
:10206000400110A8FFF72DF910AA11461046FFF7FE
:10207000B7F8694618A800F0D1FB32462946204639
:10208000FFF7AEF821462046FFF71BF96A462146C6
:102090002046FFF7DDF804F1400508AA2146204656
:1020A000FFF7D6F8284608AA18A9FFF799F810AA4A
:1020B000294604F12000FFF7CBF808AA18A904F17B
:1020C0006000FFF7C5F820B070BD00BF2DE9F843F0
:1020D00002EBE27686EAE27680460C46002100F0CA
:1020E00093FB08F12007711EC90F38460F4D00F011
:1020F0008BFB05EB442540354FF0010986EA0904C6
:10210000013CE40F294622464046FEF7DFF909F17B
:10211000010905F1200122463846FEF7D7F9B9F149
:10212000090F05F14005E9D1BDE8F883984B05009A
:102130002DE9F84301EBE177814687EAE177002159
:1021400000F062FB09F12008791EC90F404600F03B
:102150005BFB0C4E012587EA0504013CE40F314688
:1021600022464846FEF7B2F9013506F12001224623
:102170004046FEF7ABF9092D06F14006EBD1BDE86C
:10218000F88300BFD84F05002DE9F0430D46A1B0FC
:1021900001F120091646044649462A4668469846F3
:1021A00006F12007FFF754F849462A4608A8FFF72A
:1021B00017F83946324610A8FFF74AF83946324632
:1021C00018A8FFF70DF8424618A910A8FEF7E9F97C
:1021D00010AA69466846FFF775F808A918AA0846C4
:1021E000FFF770F83A46314610A8FFF76BF810A9D0
:1021F00005F160020846FFF765F810A90846144A81
:10220000FFF760F805F14002114618A8FEF7E8FF55
:102210006A4608A92046FFF71BF804F120056A4624
:1022200008A904F16000FEF7DBFF4034284610AA3D
:1022300018A9FFF70DF810AA18A92046FEF7D0FF3D
:10224000424629462046FEF7ACF921B0BDE8F083AE
:10225000D85105002DE9F047CC7F0D78C0B00B4672
:1022600004F03F044978D3F804C093F802809F68D3
:10227000D3F810A0DE688DF8411044F040041146F8
:1022800025F007055A698DF85F409C6993F803E0D3
:102290008DF840508DF842801D7F93F81D809B7F04
:1022A0008DF843E081466846CDE911C78DF85E3070
:1022B000CDE91524CDE9136A8DF85D808DF85C5069
:1022C00000F086FA2022694618A8FEF70DFC684641
:1022D000012100F099FA08A8002100F095FA18A948
:1022E00020A82022FEF700FC28A8012100F08CFA8B
:1022F00018AF0DF140084FF0060A002417F8016DE1
:1023000046FA0AF505F001056C40224620A9684608
:10231000FEF747F9224628A908A8FEF742F908AABD
:10232000694630A8FEF75CFF08AA10466946FEF72A
:102330008FFF28AA20A938A8FEF752FF28AA104626
:1023400020A9FEF785FF38A9084608AAFEF7BAFFBC
:1023500028A9084630AAFEF7B5FF38AA28A920A860
:10236000FEF73EFF28A938AA0846FEF771FF20A90C
:102370000846FEF7A6FF28A90846FEF7A2FF28A9EF
:1023800018AA0846FEF79EFF30A90846FEF799FFF7
:1023900008A938A8FEF795FF38AA30A96846FEF7C5
:1023A00091FF30A938AA0846FEF752FF30A908A8C5
:1023B000FFF7E0F908A9084638AAFEF711FF08A9B7
:1023C0000AF1FF3A30AA0846FEF77CFFBAF1FF3F58
:1023D0002C4695D147454FF0070A8FD108A90846EA
:1023E000012200F02DFA08AA69466846FEF76AFF46
:1023F0006946484600F036FB40B0BDE8F08700BFB4
:10240000014AFFF727BF00BF5848050070B500F12B
:10241000200590B00E46044600F058FB06F120015E
:10242000284600F053FB214608A8FEF7D7FB08A971
:1024300008460C4AFEF766FB08A922460846FEF746
:10244000CEFB08A90846084AFEF75CFB2946684609
:10245000FEF7C4FB694608A82022FEF725FB0138D9
:1024600010B070BDF8510500185205002DE9F04775
:10247000B8B08A468146114610A8514AFEF706F8C0
:102480005049024610A8FEF721F8179F4C4900EA70
:10249000D7778046C7F1010210A8FEF717F8179DFD
:1024A000524628A918A8ED4301F08AF8ED0F20A99B
:1024B000C5F10102084600F0EDFAC8F10108FE2658
:1024C0006A4618A928A801F02FF8731138AA02EB60
:1024D000830306F01F0253F8A04CD44004F001041B
:1024E00065402A4628A918A8FEF75BF82A4630A9B5
:1024F00020A8FEF756F8013E28A918A800F0AEFF64
:10250000731C2546DCD1C4F1010208A820A900F003
:10251000C1FA7D406A4618A928A801F005F828A943
:102520002A4618A8FEF73DF82A4630A920A8FEF74B
:1025300038F808A96A460846FEF751FB08A908467C
:1025400000F0DEFA08A909F120040AF12002084689
:10255000FEF745FB20A908AA2046FEF740FB08AA83
:1025600018A96846FEF73BFB69466846FEF736FB4E
:1025700018AA694608A8FEF732FB21466846FEF70E
:102580002DFB08AA69461046FEF7FBFA08A90E4A79
:102590006846FEF7F6FA20462021FEF798FA08A9C9
:1025A00043420246684643EA0808FDF7FAFF4846F8
:1025B0006946064AFEF713FB404638B0BDE8F0878F
:1025C00058520500384B050018520500584B0500BD
:1025D0000A460149FFF74ABF7848050000F040BBB2
:1025E00038B504460D4600F03BFB05F1200104F12F
:1025F0002000BDE8384000F033BB00BF30B5A9B0C3
:1026000014460546684600F09DFB214618A8FFF7D2
:10261000FDFE6A4618A9044608A8FFF727FF08A987
:1026200004432846FFF7DAFF204629B030BD00BF3B
:1026300030B599B00546684600F084FB694608A8A5
:10264000FFF7C6FF08A904462846FFF7C9FF204642
:1026500019B030BD10B52022B0B004460DEB020019
:1026600000F09AFB9DF83F309DF8202003F07F0397
:1026700043F0400322F0070208A968468DF83F3076
:102680008DF8202000F006FB694618A800F028F815
:1026900018A9204600F002F830B010BD30B599B04E
:1026A00004460D4610A84031012200F0C9F810AAD6
:1026B00029466846FEF706FE10AA05F1200108A883
:1026C000FEF700FE08A9204600F0CCF9684600F0AD
:1026D00093F8E37F83EAC010E07719B030BD00BF04
:1026E0002DE9F041B0B0E8460446404600F00AFB50
:1026F00004F1400620469DF93F10FFF719FD3046D2
:10270000012100F081F804F120070DF115052146A3
:1027100010A8FFF797FC18AA10A92046FEF7D2FDD3
:1027200028AA20A93846FEF7CDFD20AA18A93046D0
:10273000FEF7C8FD214610A8FFF784FC18AA10A9CF
:102740002046FEF7BFFD28AA20A93846FEF7BAFDAD
:1027500020AA18A93046FEF7B5FD214610A8FFF7BC
:1027600071FC18AA10A92046FEF7ACFD28AA20A9E2
:102770003846FEF7A7FD20AA18A93046FEF7A2FDAD
:10278000214610A8FFF75EFC15F9011D10A8FFF700
:10279000D1FB95F9151010A8FFF7FAFB95F92A104F
:1027A00010A8FFF723FC18AA10A92046FEF78AFDFF
:1027B00028AA20A93846FEF785FD20AA18A9304688
:1027C000FEF780FDA845A2D130B0BDE8F08100BF82
:1027D0000B6803604B6843608B688360CB68C360A1
:1027E0000B6903614B6943618B698361CB6923F09A
:1027F0000043C361704700BF10B50446FEF7FEFFFB
:10280000206800F0010010BD0023C0E90013C0E9FA
:102810000233C0E90433C0E90633704700B589B01C
:1028200000230A466946CDE90033CDE90233CDE9FC
:102830000433CDE90633FEF70BFD09B05DF804FB68
:10284000F0B5A1B00546684617460E46FEF739FDBD
:10285000694618A8FEF735FD18A90846FEF731FDB0
:10286000324618A908A8FEF72DFD6A4608A9684651
:10287000FEF728FD694618A8FEF723FD08AA1046B2
:1028800018A9FEF71FFD08A918A8FEF71AFD18A938
:102890000846FEF716FD18A90846FEF712FD18A90E
:1028A0000846FEF70EFD18A90846FEF70AFD08AA1D
:1028B00018A91046FEF706FD022408A900E001242D
:1028C00018A8FEF7FEFC18A90846FEF7FAFC18A99E
:1028D0000846FEF7F6FC18A90846FEF7F2FC18A910
:1028E0000846FEF7EEFC012C18A9E8D110A808AAAA
:1028F000FEF7E8FC042410A918A8FEF7E2FC18A9CA
:102900000846FEF7DEFC18A90846FEF7DAFC18A90F
:102910000846FEF7D6FC18A90846FEF7D2FC013C93
:1029200018A9E9D110AA0846FEF7CCFC022400E061
:10293000012418A90846FEF7C4FC18A90846FEF7AA
:10294000C0FC18A90846FEF7BCFC18A90846FEF70B
:10295000B8FC18A90846FEF7B4FC012CE8D118A968
:1029600008AA10A8FEF7AEFC0A2410A918A8FEF7C2
:10297000A8FC18A90846FEF7A4FC18A90846FEF70B
:10298000A0FC18A90846FEF79CFC18A90846FEF70B
:1029900098FC013C18A9E9D110AA08A8FEF792FCFE
:1029A000142408A918A8FEF78CFC18A90846FEF7FD
:1029B00088FC18A90846FEF784FC18A90846FEF70B
:1029C00080FC18A90846FEF77CFC013C18A9E9D157
:1029D00008AA0846FEF776FC0A2418A90846FEF75E
:1029E00070FC18A90846FEF76CFC18A90846FEF70B
:1029F00068FC18A90846FEF764FC18A90846FEF70B
:102A000060FC013CE9D118A9084610AAFEF75AFC5F
:102A100018A9084667B9FEF754FC18A90846FEF73E
:102A200050FC324618A92846FEF74CFC21B0F0BDF8
:102A3000FEF747FC18A90846FEF743FC18A908460C
:102A4000FEF73FFC18A90846FEF73BFC18A908460C
:102A5000FEF737FC6A4618A92846FEF733FC21B07A
:102A6000F0BD00BF38B50C4605460846FEF7C6FE69
:102A700023682B6063686B60A368AB60E368EB60FE
:102A800023692B6163696B61A369AB61E369EB61E6
:102A900038BD00BF70B588B004460D466846202199
:102AA0001646FEF728F800232946204620220093E8
:102AB000FEF71AF82A4669466846FEF762F832467B
:102AC00069462046FDF76DFD08B070BD0B681BBA66
:102AD000C3614B681BBA83618B681BBA4361CB68C7
:102AE0001BBA03610B691BBAC3604B691BBA8360D5
:102AF0008B691BBA4360CB691BBA0360704700BF88
:102B000070B598B00D46064610A8FEF767F82A463D
:102B100010A96846FEF763F8694610A8FEF75EF84C
:102B200010A90846FEF75AF86A4610A908A8FEF749
:102B300056F808A910A8FEF751F810A90846FEF7A4
:102B40004DF810A90846FEF749F810A90846FEF707
:102B500045F810A908AA0846FEF741F810A908464A
:102B6000FEF73CF810A90846FEF738F810A96A46A7
:102B700008A8FEF734F8052408A910A8FEF72EF8D7
:102B800010A90846FEF72AF8013C10A9F5D108AAB9
:102B90000846FEF724F8052410A90846FEF71EF89B
:102BA00010A90846FEF71AF8013CF5D110A908AAA9
:102BB0000846FEF714F810A908A8FEF70FF808A9B0
:102BC0000846FEF70BF808A96A466846FEF707F8BC
:102BD0001024694610A8FEF701F810A90846FDF771
:102BE000FDFF013C10A9F5D12A460846FDF7F7FF85
:102BF000402410A90846FDF7F1FF10A90846FDF78B
:102C0000EDFF013CF5D110A96A460846FDF7E7FF44
:102C1000102410A90846FDF7E1FF10A90846FDF7AA
:102C2000DDFF013CF5D110A96A460846FDF7D7FF44
:102C3000102410A90846FDF7D1FF10A90846FDF79A
:102C4000CDFF013CF5D110A908AA0846FDF7C7FF42
:102C50002A4610A93046FDF7C2FF18B070BD00BF6C
:102C6000CB691BBA03608B691BBA43604B691BBA03
:102C700083600B691BBAC360CB681BBA03618B68A6
:102C80001BBA43614B681BBA83610B681BBAC361F3
:102C9000704700BFF0B50B4699B0DA69184D149231
:102CA00018A9120F04465F689E68186941F85C2DE8
:102CB000DA68D3F800C00E970F965F699E6910928C
:102CC00000232A46119005A8CDF834C0CDE916336B
:102CD0001593CDE90333029312971396FDF76CFC1D
:102CE000019B05AA1B070DA920460C93FDF7CEFBFF
:102CF000E2692946D20F2046FDF7E8FB19B0F0BD86
:102D0000784B0500F0B40025471E2C462A46E30800
:102D100014F0070F08BF51F8235005F00F031344B8
:102D200003F1080212090134D6B2A3EB06133F2CBB
:102D30004FEA151507F8013FE9D1354480F83F50B7
:102D4000F0BC704738B50B68114D1BBAC3614B68B6
:102D50001BBA83618B681BBA4361CB681BBA0361E2
:102D60000B691BBAC3604B691BBA83608B691BBAC2
:102D70004360CB691BBA2A46036001460446FDF74F
:102D800085FB294602462046BDE83840FDF79EBB3C
:102D900038520500000000002DE9F04DE2A5D5E90C
:102DA0000045B2B0E2A7D7E90067CDE90045E2A54A
:102DB000D5E90045CDE90267E1A7D7E90067CDE98C
:102DC0000445E1A5D5E90045CDE90667E0A7D7E9C7
:102DD0000067CDE908450FF2803BDBE900ABE0A5D9
:102DE000D5E90045CDE90A670027CDE90C458046C5
:102DF0001446CDE90EABCDE93072002A40F0CD800B
:102E000080238DF8403001206D4610AE00F1400E59
:102E100005EB0E035B42471C03F00303D91C7B2F19
:102E2000C0F17B0C88BF4FF0010C052938BF05218C
:102E30007B2FC0F17A0288BF0022914229D8ABB122
:102E400032AA02440021012B02F8881C00F0A38062
:102E500032AA1744032B00F1020207F8881C40F045
:102E6000538132AF3A44033002F8881CACEB030CB8
:102E7000002273442B444FEA9C07114601329742CB
:102E800043F8041BFAD82CF003036345184427D0F9
:102E9000471C32AB034400227B2F03F8882C1FD041
:102EA00032AB3B44811C7B2903F8882C18D032AB11
:102EB0001944C31C7B2B01F8882C11D032A90B4478
:102EC000011D7B2903F8882C0AD0053032AB7B2802
:102ED000194418BFC01801F8882C18BF00F8882CB6
:102EE000620F002362F30703620D62F30F23620B8C
:102EF00062F317436209314662F31F632846E40018
:102F0000CDF8BB308DF8BF4000F076FDDDE906233B
:102F1000DDE90076DDE90254DDE9040193FA83FE80
:102F2000089BC8F818E036BA2DBA24BA00BA09BA14
:102F300012BA93FA83FCC8F80060C8F80C50C8F8BD
:102F40000840099D0A9CC8F81400C8F810100B9896
:102F50000C99C8F81C200E9B0D9A0F9EC8F824C02F
:102F60003FBA2DBA24BA00BA09BA12BA1BBA36BA95
:102F7000C8F80470C8F82050C8F82C40C8F82800D9
:102F8000C8F83410C8F83020C8F83C30C8F83860A9
:102F900032B0BDE8F08D384668E76D4628460E46EB
:102FA00000F06AFB241A02463119002800F0AE80B6
:102FB000431E022B40F2B28010AE4FEA900C3B460B
:102FC00034460846013350F8047B44F8047B6345DB
:102FD000F8D322F003039A42194414D032A81844BB
:102FE0000C7800F8884C581C82420CD932AC204432
:102FF00002334C7800F8884C9A4204D932A8034432
:10300000897803F8881C32AB501C13448021702847
:10301000309203F8881C40F284807F286BD832AB52
:103020001844911C0023802900F8883C63D032A802
:103030000144D01C802801F8883C5CD032A90844A7
:10304000111D802900F8883C55D032A80144501D3C
:10305000802801F8883C4ED032A90844911D80296F
:1030600000F8883C47D032A80144D01D802801F8E0
:10307000883C40D032A9084402F10801802900F8B8
:10308000883C38D032A8014402F10900802801F8B8
:10309000883C30D032AB184402F10A010023802969
:1030A00000F8883C27D032A8014402F10B008028A8
:1030B00001F8883C1FD032A9084402F10C01802994
:1030C00000F8883C17D032A8014402F10D00802896
:1030D00001F8883C0FD032A9084402F10E01802982
:1030E00000F8883C07D032A80144702A01F8883CD7
:1030F00008BF8DF8BF303146284600F07DFC7A28A5
:10310000319C7FF683AEEBE61046AFE6802330902D
:103110008DF84030319C012010AE77E63B4610AE72
:103120005CE7319C72E600BF08C9BCF367E6096A38
:103130003BA7CA8485AE67BB2BF894FE72F36E3C46
:10314000F1361D5F3AF54FA5D182E6AD7F520E51A3
:103150001F6C3E2B8C68059B79217E1319CDE05B9B
:103160006BBD41FBABD9831F2DE9F04F9FB0A1F19F
:1031700008031C93D2E90E34CDE91834D2E90C349B
:10318000CDE90034D2E90A34CDE90234D2E906347B
:10319000CDE91A34D2E90234CDE90634D2E9043457
:1031A000CDE9043400F18003D2E908ABD2E900890B
:1031B0001D9309909446014605E0CDE90689DDE9B5
:1031C0001689B246BB46F1E802451C9F09914FEAB9
:1031D0009A3242EA8B424FEA9A43F7E902010A9295
:1031E00043EA8B334FEA9B364FEA9B420C9346EA05
:1031F0008A4642EA8A324FEACB530D920B9643EA53
:103200005A23CDE916010F93DDE90C011C974FEA13
:10321000CA53DDE90A6743EA5B230E9346404F40F9
:10322000DDE90E014FEA187343EA09137040794053
:10323000109306460F464FEA8973DDE9160143EA0B
:10324000980313934FEA197300194FEA887243EAFF
:1032500008136941119342EA9903CDE916011293CB
:10326000DDE90201DDE900234FEA496442404B40B9
:1032700044EAD814DDE916011594DDE9004580190A
:1032800002EA0A024FEA486E79415440DDE90667D6
:1032900003EA0B034EEAD9125D401492DDE90423E0
:1032A00046EA080647EA0907324016463B4022181C
:1032B0001F4645EB0103DDE91045DDE91201CDE9CB
:1032C000162344404D40DDE9140160406940044646
:1032D0000D46DDE9060100EA080001EA090140EABD
:1032E000060241EA07031046DDE918671946DDE9E1
:1032F000162392197B41DDE91A6700196941B61856
:103300005F41841841EB0305DDE90201CDE9164573
:10331000CCE90C01DDE90034DDE90412CCE90E341E
:10332000CCE90612CDE91834DDE90423CDE91A23EE
:10333000DDE90234DDE90601CDE90034DDE91634CA
:10334000CCE90401CCE90034CDE904011D9B0999C5
:103350009942CCE90AABCCE90289CCE90867CDE90E
:1033600002AB7FF42AAF1FB0BDE8F08F2DE9F04F1C
:103370004FF0000C8BB08646A0F1080A6346ACF112
:1033800002040CF1010C0CF00F000EEBC00204F073
:103390000F045EF8300052680EEBC401073B5EF884
:1033A000344049684FEA500803F00F03070A0EEB58
:1033B000C30B48EAC273E60C009347EA0263CD00F0
:1033C000029346EA41330493CE0C45EA54730793C3
:1033D000E50046EA44330593A60945EA51735408CB
:1033E000069344EAC073140A4FEAD018019344EAE2
:1033F000006348EA426803934FEAD219FAE90223CC
:1034000046EA8166CDE908238F09DDE90623DDE977
:103410000401DBE9004550405940DDE90823121959
:103420006B41CDE90823DDE90045DDE90223704069
:103430007940DDE9086754405D4084EA08043619A4
:1034400085EA09056F41321847EB0103BCF1100F03
:10345000CAE9002392D10BB0BDE8F08FF0B599B066
:1034600004460E460A4601466846FDF78AFB694651
:103470006846FDF7B3FB6A46214608A806F1200519
:1034800004F12007FDF7ABFB6A4631466846FDF7BD
:10349000A6FB39462A4610A8FDF734FB2A463946D2
:1034A0002846FDF76EFB29463046FDF797FB6A4636
:1034B00008A92046FDF726FB224631463046FDF797
:1034C00060FB6A4608A96846FDF75BFB6A46394619
:1034D0003846FDF784FB324608A96846FDF751FBE4
:1034E0006A4629462846FDF77AFB3A462946284689
:1034F000FDF747FB10A96846FDF770FB22466946B9
:103500002046FDF73EFB08A922460846FDF739FB99
:1035100010A908AA0846FDF762FB3A4610A93846EA
:10352000FDF72FFB19B0F0BD2DE9F0410C4688B036
:1035300005469046014622466846FDF722FB69464D
:103540006846FDF74BFB6A462946284604F12006EB
:10355000FDF745FB05F120076A4621466846FDF761
:103560003EFB324630463946FDF70BFB31462046DE
:10357000FDF734FB2A4621462046FDF702FB6A464A
:1035800021462046FDF7FDFA6A4629464046FDF7EA
:10359000F8FA424639463846FDF721FB22462946CD
:1035A0006846FDF7EEFA6A4631463046FDF717FBEE
:1035B0003A4631463046FDF7E4FA08B0BDE8F081FE
:1035C0002DE9F04188B00D46074602F1200168461A
:1035D00007F120069046FDF701FB6A4669466846FA
:1035E000FDF790FA30466946FDF7F8FA3246314663
:1035F000304605F12004FDF785FA6A4669466846BB
:10360000FDF780FA20464146FDF7E8FA6A46414652
:103610003846FDF7E4FA224621466846FDF772FA7D
:10362000224669466846FDF76DFA69466846114AC2
:10363000FDF768FA69462846FDF7D0FA3A4629466A
:103640002846FDF79EFA3A4629462846FDF799FA9C
:103650002A4639462046FDF794FA6A462146204616
:10366000FDF7BDFA324621462046FDF78AFA08B03A
:10367000BDE8F081F85105002DE9F04FC7B07F2A71
:10368000159240F2AB810D46A2F18001D0E90023F2
:103690000646CDE90023D6E90823CDE90A23D6E979
:1036A0000A23CDE90223D6E90C2321F07F04D0E9D7
:1036B00002ABD6E90689D0E90401CDE90C23D6E9AD
:1036C0000E238034CDE90E23CDE904ABCDE9100102
:1036D000CDE906892C19149409962C68AF68D5F8A1
:1036E0000CA0D5F810E02E6BE86913962346DDE9AF
:1036F00000891BBA019300230093AB6BAC69129451
:10370000CDE91689DDE904890493DDE91023DDE9BB
:1037100000BCCDE91A23DDE906233946CDE91C2397
:103720009AFA8AFA0BBA5A4642EA0A02CDE92823E3
:10373000DDE90A23CDE91889D5F81480129E2F6A95
:10374000696AAC6ACDE91E2398FA88F89EFA8EF36E
:103750005A4642EA0802CDE92A2300BA33BA5A4649
:1037600042EA0002CDE92C2309BA3BBA5A4642EAA2
:103770000102CDE92E23EF6A139ED5F858E023BA53
:103780005A463FBA42EA0702CDE93023DDE90C236D
:103790006C6BCDE9222324BA33BA5A4642EA0402BA
:1037A000DDE90201CDE93223049B1FBACDE92001F6
:1037B0003B46E86B6968DDE90E6700BA4BEA000238
:1037C000CDE9246709BA5E46674646EA0106CDE9B7
:1037D00034232B6EAA6E286F0493B046EB6C2E6CCC
:1037E000696C0692B946AF6F1290CDE926890A97A7
:1037F000D5F84890D5F850806F6D0293EC6DE86F66
:103800006A6EEB6ED5F874A036BAB44609BA029E59
:1038100000BA4FF0000B4BEA010B029099FA89F1C4
:103820000020CDE936BC36BA83468C464BEA060BFF
:10383000CDE938BCDDE900BC98FA88F13FBAD8463A
:1038400089469EFA8EF148EA070824BA5E460F467A
:1038500046EA0406049C129821BACDE93C6712BAE4
:103860005E460F4646EA0206069A11BA1BBA0A4697
:10387000594641EA030140ABC3E900129AFA8AFAB9
:1038800003BA5A4642EA0A02CDE93E6742A90A9FB4
:103890005448C1E90023029A3CBA5B4643EA02035A
:1038A000CDE93A8916AA9846A14644AB26A9C3E9B0
:1038B0000089FFF759FC26A8FFF758FD16AA26A98C
:1038C0004948FFF751FC26A8FFF750FD16AA26A984
:1038D0004648FFF749FC26A8FFF748FD16AA26A987
:1038E0004348FFF741FC26A8FFF740FD16AA26A98A
:1038F0004048FFF739FC099CDDE91623D4E900674D
:10390000B618D4E902AB5F41DDE91834099A13EB2C
:103910000A0344EB0B04DDE91A01CDE90434D2E9D2
:1039200004341B184C41DDE91C899B46A446D2E9AE
:10393000063413EB080344EB0904CDE90067CDE935
:103940000634D2E90867DDE91E34F61810466741EF
:10395000D2E90A34DDE920125B185441CDE9023482
:10396000D0E90C12DDE92234C918DDE9248962416D
:10397000D0E90E3413EB080344EB09049846A14642
:10398000DDE90034C0E90034DDE90434CDE910BCE0
:10399000C0E90234CDE90A67CDE90C12CDE90E8900
:1039A0001290C0E904BCDDE906ABDDE90234C0E9F0
:1039B0000A344C464346C0E90E34149C8035A54277
:1039C000C0E906ABC0E90867C0E90C127FF485AE18
:1039D000159B03F07F0047B0BDE8F08F104647B05D
:1039E000BDE8F08FB848050038490500B849050022
:1039F000384A0500B84A05002DE9F04F0B68D1F8A8
:103A000008E0D1F80C90D1F810C08F69D1F820806F
:103A1000D1F824A0B7B01BBA0193002300939EFAFB
:103A20008EF599FA89F943EA09022B46DDE900454A
:103A30000646D1F814E0C869CDE918239CFA8CF346
:103A40009C469EFA8EFE00BA22463BBA44EA0E0B12
:103A500042EA000298FA88F59AFA8AFA0024CDE937
:103A60001C2344EA0A022B464868CDE91E23DDE9FF
:103A70000023CDE91ABCD6E90089D6E902AB00BA29
:103A800042EA0002CDE91623D6E90423CDE90689EE
:103A9000CDE908ABD6E90689D6E908ABCDE90A231A
:103AA000D6E90A23CDE90C89CDE90EABD6E90C891C
:103AB000D6E90EABD1F828C0D1F830E08D6B086C98
:103AC0008F6CCDE910239CFA8CF3039300230293AF
:103AD000DDE90223CDE91289D1F82C90D1F850C04C
:103AE000D1F8588099FA89F942EA0902CDE92023F0
:103AF0009EFA8EF3039300230293DDE90223D1F8AB
:103B000034E09EFA8EFE42EA0E02CDE922232BBA61
:103B1000039300230293DDE90223CD6BD1F870E01B
:103B20002DBA42EA0502CDE9242303BA0393002308
:103B3000CDE914AB8D6FD1F860A0D1F868B0486CB6
:103B40000293DDE9022300BA42EA0002CDE926230E
:103B50003BBA039300230293DDE90223C86C4F6D47
:103B600000BA42EA0002CDE928239CFA8CF30393C1
:103B700000230293DDE902233FBA42EA0702CDE9BE
:103B80002A23C86DD1F864C0CF6E98FA88F300225A
:103B900099469AFA8AF30393029200BA42EA00081D
:103BA000DDE902239CFA8CFCC86F42EA0C02CDE9E5
:103BB0002C899BFA8BF4D1F87480DDE900ABCDE958
:103BC0002E2300BA2BBA00224E4D42EA000298FA88
:103BD00088F1A1463FBA9EFA8EF4CDE934234AEA31
:103BE000070806AA4AEA010AA34616A92846CDE90B
:103BF0003089CDE932ABFFF7B7FA16A8FFF7B6FB6D
:103C000006AA16A905F18000FFF7AEFA16A8FFF77D
:103C1000ADFB06AA16A905F58070FFF7A5FA16A850
:103C2000FFF7A4FB06AA16A905F5C070FFF79CFADA
:103C300016A8FFF79BFB06AA16A905F50070FFF76B
:103C400093FAD6E90023DDE90601D6E90289DDE928
:103C500008AB141843EB010518EB0A0249EB0B0300
:103C6000CDE90245DDE90AABCDE90423D6E9043408
:103C700013EB0A0344EB0B049A46A346D6E906234A
:103C8000DDE90C4512191446DDE902126B41D6E953
:103C900008781D46C6E90012DDE90E23BF1848EB7F
:103CA0000308DDE90423C6E90878C6E90223DDE953
:103CB0001089D6E90A2312EB080243EB0903904668
:103CC0009946C6E904ABD6E90C23DDE912AB12EB49
:103CD0000A0243EB0B0392469B46C6E90645DDE923
:103CE0001423D6E90E45A41800985D4122462B46C0
:103CF000C6E90A89C6E90CABC6E90E2337B0BDE8B0
:103D0000F08F00BFB84805007CB50C88009414788B
:103D10008DF80440C3F30744C4EBC4356424C3F3F3
:103D20000723C3EBC333B5FBF4F5B3FBF4F3244E25
:103D30003678002E42D0A84202D90098400803E00D
:103D40009842009801D240000090462801D94620B0
:103D500002E00A2801D20A2000909DF804001070A9
:103D600000980880009880B200EBC00101EB0010C1
:103D7000B0FBF4F0FDF794FF9FED121B53EC112BF9
:103D8000FDF71FFFFDF799FF8DF80400012201A93F
:103D9000112000F0E6FD012201A9122000F0E1FD52
:103DA0000A480B49009A02B0401AC008BDE87040AA
:103DB000032101EB004007A10DF05EB87CBD0000BF
:103DC0000D3300204A0C022B8716C93FA85305006B
:103DD000B0520500506F776572204C45443A20255B
:103DE00064000000004B18476703070000490847BC
:103DF0009300070030B4024CA44630BC604700007A
:103E0000AF060700004A104709000700004A1047A4
:103E1000CD000700004B184751040700004B18471E
:103E200017040700004908477302070030B4024C2A
:103E3000A44630BC60470000D10407000049084791
:103E4000550207002DE9F04700268AB0DFF85091AF
:103E5000B0464FF4807501243746069628460CF08C
:103E600003FE38B1D9F80403204203D028460CF0F1
:103E7000F1FD26432D1D64007F1CADB2082FEDD34C
:103E80004FF4BE7420460CF0EFFD48B120460CF014
:103E9000E1FD46F0004606AA012100200CF0C6FD17
:103EA000404D16F0FF0F15D00127002437420DD0EA
:103EB00009EB8401D1F81005D1F81015C0F30420E6
:103EC00055F82420C1F3014102B190477F00641CE2
:103ED000082CEBD3002E5FDA4FF0FF30CDF81080C6
:103EE00054E0281910F8507F90F9000027F0C0081E
:103EF000401C3BD007A940460BF04EF810B34FEAE8
:103F00009719404605F026FE55F820701FB1B9F10B
:103F1000030F03D006E0B9F1030F27D104A94046EF
:103F20000BF042F84FF0A04101EB8800D0F80007F9
:103F300006A9C0F3014A40460BF02EF818B1BAF1B9
:103F4000020F03D012E0BAF1030F0FD1B9F1030F42
:103F500008D1BAF1020F1DD0022140460CF017FD26
:103F6000761CF6B217B149464046B847641C042C8B
:103F7000B7D3002E10D06A46012100200CF056FD68
:103F800006990098884207D0069004980026344687
:103F90000790A6E70321E0E70AB0BDE8F08700003C
:103FA00000600040847E002030B593B008F070FBC4
:103FB000374C6169087008F01FF96169487008F0B2
:103FC0000BF861698870A07AC87008F087F9616998
:103FD000087108F0DDF8080E6169487108F0D8F83A
:103FE000080C6169887108F0D3F8080A6169C87122
:103FF00008F0CEF86069017208F0CAF8000E40EAD5
:1040000001206169487208F0C3F8000C40EA0140E1
:104010006169887207F0B6FF6169C87208F054FBE5
:10402000C821B0FBF1F065693C2128736846FDF7B3
:1040300087FC02208DF8000000208DF80200062089
:104040008DF803000120ADF8100004F11000059078
:104050000D20ADF840004FF4FA60ADF83C000FA819
:1040600009901195002269460A4803F000F820B132
:1040700009A240F6F831FCF7CDF8207B0EF054FD94
:104080000448A17AD83802F05FF813B030BD0000C0
:10409000D0320020B83700202E2E5C5372635C6D46
:1040A00061696E2E6300000042F2107190FBF1F323
:1040B00090FBF1F201FB13034FF47A7193FBF1F3E0
:1040C000120442EA033290FBF1F301FB1303642173
:1040D00093FBF1F342EA032290FBF1F301FB13039C
:1040E0000A2193FBF1F342EA031290FBF1F301FB87
:1040F000130010437047000010B588B01C221A4905
:104100006846FDF7F5FB1948012101709DF8001084
:10411000491E0172282141812D2141705A2181704F
:104120000A2181803C21C180684600F049F810498D
:10413000104A891AC9080322002802EB01444FF0F3
:104140000A0008D00BF032FD20460BA10CF090FEC7
:10415000002008B010BD0BF029FD20460FA10CF087
:1041600087FE0120F5E7000080050500B03E002035
:10417000A8530500B052050046616C6861206E616D
:1041800020636F6E666967757261E7E36F20646F25
:10419000204D415833303131300000005375636594
:1041A00073736F206E6120636F6E666967757261ED
:1041B000E7E36F20646F204D4158333031313000D8
:1041C0002DE9F04304462DED088B85B04FF0010931
:1041D0000025FB4880F80190057094ED020AB5EEC9
:1041E000C00AF1EE10FA7CD310EE101AF5488142A5
:1041F00077DC94ED030AB5EEC00AF1EE10FAF2D3C3
:1042000010EE101A8142F3DC2078002869D00428CF
:1042100067D860780028F9D00428F9D8E078002819
:10422000F4D00428F4D8A0780028EFD01028EFD8D4
:1042300020790028EAD00628EAD800F0D5FC98B901
:1042400045F001008DF805006E4601220D20711D1C
:1042500000F087FB00287DD10A200BF0B7FC0A276D
:1042600003A800F087FC28B1062005B0BDEC088B40
:10427000BDE8F0839DF80C00C00705D07F1E17F045
:10428000FF07EDD10220F0E7ADF8065020780128B5
:1042900006D0022809D003280DD0042811D016E03A
:1042A0009DF8060020F0C0000FE09DF8060020F009
:1042B000C000403009E09DF8060020F0C0008030CA
:1042C00003E09DF8060040F0C0008DF8060060781D
:1042D000012807D002280AD003280ED0042812D0C3
:1042E00017E0ABE29DF8060020F003000FE09DF818
:1042F000060020F00300401C09E09DF8060020F0B5
:104300000300801C03E09DF8060040F003008DF8D8
:104310000600A078012820D0022823D0032827D027
:1043200004282BD005282FD0062833D0072837D0D3
:1043300008283BD009283FD00A2843D00B280CD0AE
:104340000C2845D00D2849D00E284DD00F2851D02B
:10435000102800E032E153D058E09DF8060020F02C
:104360003C0051E09DF8060020F03C00001D4BE0B1
:104370009DF8060020F03C00083045E09DF806005E
:1043800020F03C000C303FE09DF8060020F03C009F
:10439000103039E09DF8060020F03C00143033E086
:1043A0009DF8060020F03C0018302DE09DF8060036
:1043B00020F03C001C3027E09DF8060020F03C0077
:1043C000243021E09DF8060020F03C0028301BE05E
:1043D0009DF8060020F03C002C3015E09DF806000A
:1043E00020F03C0030300FE09DF8060020F03C004B
:1043F000343009E09DF8060020F03C00383003E03E
:104400009DF8060040F03C008DF80600E078012899
:1044100006D0022809D003280DD0042811D016E0B8
:104420009DF8070020F018000FE09DF8070020F02D
:104430001800083009E09DF8070020F0180010303F
:1044400003E09DF8070040F018008DF80700207980
:1044500001280AD002280DD0032811D0042815D035
:10446000052819D006281DD023E09DF8070020F06C
:1044700007001CE09DF8070020F00700401C16E034
:104480009DF8070020F00700801C10E09DF8070051
:1044900020F00700C01C0AE09DF8070020F007008C
:1044A000001D04E09DF8070020F00700401D8DF876
:1044B00007009DF80700022220F007008DF8070092
:1044C000B046B11D0E2000F04CFA002876D18DF8D0
:1044D0000A503D49A0683D4E3D4F884201DD032012
:1044E00002E0B04203DD02208DF80A0006E0B84287
:1044F00002DD8DF80A9001E08DF80A50E0688946E7
:10450000484504DD9DF80A0040F00C000EE0B04282
:1045100005DD9DF80A0020F00C00083006E0B842E6
:104520009DF80A0020F00C0000DD001D8DF80A0047
:10453000012214200DF10A0100F013FA0028C5D160
:10454000ADF80850A0689FED238B9FED249B9FED55
:1045500025AB9FED26BB484506DDFDF7C7FB41ECCB
:10456000100B53EC182B17E0B04206DDFDF7BEFB35
:1045700041EC100B53EC192B0EE0B84206DDFDF7B1
:10458000B5FB41EC100B53EC1A2B05E0FDF7AEFB2D
:1045900053EC1B2B41EC100B51EC100BFDF711FBF6
:1045A000FDF78BFB8DF80800E068484522DDFDF73C
:1045B0009DFB41EC100B53EC182B33E0B4E00000F2
:1045C0000E33002000004843000016430000C8429C
:1045D000000048424A0C022B8716E93F37894160A8
:1045E000E5D0E23F4A0C022B8716D93F4A0C022B3A
:1045F0008716C93FB04206DDFDF778FB41EC100B92
:1046000053EC192B0EE0B84206DDFDF76FFB41ECD1
:10461000100B53EC1A2B05E0FDF768FB53EC1B2B3A
:1046200041EC100B51EC100BFDF7CBFAFDF745FBFD
:104630008DF809000222112002A900F092F9002849
:1046400072D1ADF80350A07D48B101280CD00228EA
:1046500010D0052814D00C2818D00D281CD09DF897
:10466000030020F00F001CE09DF8030020F00F0075
:10467000401C16E09DF8030020F00F00801C10E0A5
:104680009DF8030020F00F00401D0AE09DF8030094
:1046900020F00F000C3004E09DF8030020F00F0024
:1046A0000D308DF80300E07D48B101280CD00228C0
:1046B00010D0052814D00C2818D00D281CD09DF837
:1046C000030020F0F0001CE09DF8030020F0F00053
:1046D000103016E09DF8030020F0F000203010E0CC
:1046E0009DF8030020F0F00050300AE09DF8030030
:1046F00020F0F000C03004E09DF8030020F0F0004E
:10470000D0308DF80300207E48B101280DD002285A
:1047100011D0052815D00C2819D00D281DD09DF8D2
:10472000040020F00F001DE08AE09DF8040020F056
:104730000F00401C16E09DF8040020F00F00801CC4
:1047400010E09DF8040020F00F00401D0AE09DF8E5
:10475000040020F00F000C3004E09DF8040020F06D
:104760000F000D308DF80400607E48B101280CD098
:10477000022810D0052814D00C2818D00D281CD0E1
:104780009DF8040020F0F0001CE09DF8040020F0EB
:10479000F000103016E09DF8040020F0F00020300A
:1047A00010E09DF8040020F0F00050300AE09DF881
:1047B000040020F0F000C03004E09DF8040020F078
:1047C000F000D0308DF8040047460222F91C092081
:1047D00000F0C7F8A0BB8DF80550607D2E4660F351
:1047E00004168DF80560607D0122400860F3C30661
:1047F0008DF80560607D791D800860F341068DF8B5
:104800000560607DC00860F382068DF805600D20AC
:1048100000F0A7F8A0B9607D000752D5607C68B1B0
:1048200002280BD8A07C48B1022807D8E07C28B128
:10483000022803D8217D1139102902D3032014E561
:1048400075E0012802D0022805D00AE09DF8020098
:1048500020F0400003E09DF8020040F040008DF899
:104860000200607C012802D0022805D00AE09DF8F1
:10487000020020F0100003E09DF8020040F010005C
:104880008DF80200A07C012802D0022805D00AE0A1
:104890009DF8020020F0200003E09DF8020040F0A7
:1048A00020008DF80200207D9DF80210404260F348
:1048B00003018DF802100122B91C082000F051F804
:1048C000A8BBADF80050207CC1079DF8001002D0B5
:1048D00041F0080101E021F008018DF80010810786
:1048E0009DF8001002D541F0100101E021F0100107
:1048F0008DF8001041079DF8001002D541F020010D
:1049000001E021F020018DF8001001079DF8001052
:1049100002D541F0400101E021F040018DF8001086
:10492000C1069DF8001003D541F0800102E016E0B9
:1049300021F080018DF8001080069DF8010002D55D
:1049400040F0800001E020F080008DF8010002229C
:104950006946104600F005F800283FF494AC0720A3
:1049600083E42DE9F04114460E4605464FF0A0477A
:104970004FF4807810E0C7F80C8507200CF035F86C
:1049800022463146284600F013F86D1CEDB208208F
:10499000761C0CF02AF844B1641EE4B2EBD2082075
:1049A0000CF023F80720BDE8F0810020FBE70000B1
:1049B0001CB5002201928DF804000B4C08788DF88C
:1049C0000600227013460092032201A907480BF04B
:1049D000C3FA20B106A240F64C61FBF71BFC20781D
:1049E0000028FCD000201CBDD032002004050500AA
:1049F0002E2E5C5372635C6D61696E2E6300000045
:104A000070B50D4604464FF0A0414FF48070C1F8D8
:104A10000C0507200BF0E9FF05EB450082B22146AB
:104A2000072000F037F82078A1782170A070607915
:104A300021796171E178A17120710020E070082076
:104A40000BF0D3FF002070BD2DE9F04114460E4657
:104A500005464FF0A0474FF4807810E0C7F80C856A
:104A600007200BF0C2FF01223146284600F052F821
:104A70006D1CEDB20820761C0BF0B7FF44B1641E2C
:104A8000A4B2EBD208200BF0B0FF0620BDE8F08105
:104A90000020FBE72DE9FC410E4617A114460968EA
:104AA00001918DF80400901C09F04AFAA41C134FE0
:104AB00005460020A4B23870E0B200902B460222D6
:104AC00001A90F480BF048FA20B10EA240F6686128
:104AD000FBF7A0FB38780028FCD0002004E0291860
:104AE00089783154401CC0B2A042F8D3284606F061
:104AF000E1FC0020BDE8FC8100800000D0320020F5
:104B0000040505002E2E5C5372635C6D61696E2E88
:104B1000630000003EB50D460FA1104C09680191DD
:104B20008DF8040000202070921CD0B2009002ABDF
:104B3000022201A90A480BF00FFA20B109A240F69F
:104B40005961FBF767FB20780028FCD09DF80A002C
:104B5000287000203EBD000000800000D032002000
:104B6000040505002E2E5C5372635C6D61696E2E28
:104B70006300000010B5014602220020FFF764FF29
:104B8000002800D0062010BDFEB5064601208DF895
:104B9000050002466D4600240D20691DFFF7E1FE69
:104BA00088B90A200BF012F88DF80540707D0122BB
:104BB000800860F341048DF80540691D0D20FFF762
:104BC000D0FE002800D00720FEBD000000B587B051
:104BD0001C2204496846FCF78BFE6846FFF7D4FFA9
:104BE00007B000BD3C05050008B500208DF80000A9
:104BF00001226946FF20FFF727FF08B1062008BD04
:104C000009480A499DF80020401AC008032101EB19
:104C10000040202A06A102D00CF02EF9EEE70CF09D
:104C20002BF9002008BD0000A8530500B052050074
:104C30004964656E746964616465204D4158333020
:104C40003131303A2025580070B54FF48076304627
:104C50000AF08AFC114CB50560B130460AF08BFCB5
:104C60000120C5F80803607920B90120607121682E
:104C7000002088474FF4827630460AF075FC002801
:104C80000AD030460AF077FC0220C5F808032168F4
:104C9000BDE870400120084770BD0000A834002026
:104CA0000149024808F0B0BA6C7F002000C0014002
:104CB0000149024808F0A8BA747F002000100240A1
:104CC000064882B000210160006800900448006836
:104CD0000449C0B2496802B00847000000D1004052
:104CE00008D50040B834002002490248091F09686D
:104CF00000680847083500202DE9FE434FF482780C
:104D000040460CF09BFB4C4F00254C4C012600B359
:104D100040460CF09BFB94F82E0010B194F82F1035
:104D2000D1B18DF80050616801912189ADF808106A
:104D3000E26832B1218B618362602181E56010B14C
:104D400002E0257400E03E6021686846884784F8E8
:104D50002F5094F82E0060B34FF4807738460CF053
:104D60006DFB30B338460CF071FB628B94F82D105C
:104D70008A420AD9A2EB010080B260832289A2EBA9
:104D80000000626802EB400005E007D1E06828B14E
:104D900084F82F6065830CF03FFB04E08A4202D167
:104DA00084F82F60658340460CF050FB2248001DBC
:104DB00006604FF4887738460CF040FB48B138461F
:104DC0000CF044FB257402208DF800002168684631
:104DD00088474FF48A7738460CF030FB28B13846C4
:104DE0000CF034FB2574BDE8FE834FF000484FF40F
:104DF0008C7967691DE000BFB7FA87F028FA00F1E7
:104E000009EB80058F4328460CF018FB88B1284633
:104E10000CF01CFBA5F58C75E8088DF8040045F333
:104E20008000401C8DF800608DF805002168684600
:104E30008847002FE0D1D6E7007000407C7F00203B
:104E4000F8B51248124E04464FF48C710CF041FE36
:104E500000281AD00025C4F81851D4F81801009081
:104E6000F07F3446FF2806D0A17F11B10BF0A7FDDB
:104E700001E00BF0C8FD65772572D4E9002101B08F
:104E800004F10800BDE8F0401047F8BD00300040D4
:104E9000307F002030B58FB005461C216846FCF7F6
:104EA0004FFD00249DF80000019440F00A008DF8A9
:104EB0000000039404940594069495F87C008DF802
:104EC00036004AF63D00ADF834000C949DF83000F1
:104ED000142120F00F00401C20F0F00010308DF85D
:104EE00030009DF8310020F00F00401C20F0F00051
:104EF00010308DF831009DF8320020F00600801C43
:104F000020F0100040F009008DF8320007A8FCF7EF
:104F100017FD0DA807900CA808900120ADF82400FB
:104F20000420ADF82640ADF828000B94B5F87A00BF
:104F30002B4607AA6946AADF0FB030BD044880F8A7
:104F400036100449012088710349C8727047000077
:104F5000F83D0020A0360020D032002030B58FB0C0
:104F600005461C216846FCF7EBFC00249DF8000078
:104F7000019440F00A008DF8000003940494059415
:104F8000069495F87C008DF836004EF2E820ADF8D6
:104F900034000C949DF83000142120F00F00401CC8
:104FA00020F0F00010308DF830009DF8310020F036
:104FB0000F00401C20F0F00010308DF831009DF8FB
:104FC000320020F00600801C20F0100040F00900A4
:104FD0008DF8320007A8FCF7B3FC0DA807900CA8C9
:104FE00008900120ADF824000420ADF82640ADF86B
:104FF00028000B94B5F87A0005F1080307AA694662
:10500000AADF0FB030BD0000044880F83710044913
:10501000012088710349C87270470000F83D0020E4
:10502000A0360020D032002030B58FB005461C21BC
:105030006846FCF785FC00249DF80000019440F0D0
:105040000A008DF80000039404940594069495F8E2
:105050007C008DF8360049F28A10ADF834000C94CB
:105060009DF83000142120F00F00401C20F0F000CB
:1050700010308DF830009DF8310020F00F00401CFA
:1050800020F0F00010308DF831009DF8320020F053
:105090000600801C20F0100040F009008DF832005E
:1050A00007A8FCF74DFC0DA807900CA8089001205C
:1050B000ADF824000420ADF82640ADF828000B948C
:1050C000B5F87A0005F1100307AA6946AADF0FB008
:1050D00030BD0000044880F8381004490120887170
:1050E0000349C87270470000F83D0020A036002038
:1050F000D032002030B58FB005461C216846FCF741
:105100001FFC00249DF80000019440F00A008DF877
:105110000000039404940594069495F87C008DF89F
:1051200036004CF22210ADF834000C949DF830009B
:10513000142120F00F00401C20F0F00010308DF8FA
:1051400030009DF8310020F00F00401C20F0F000EE
:1051500010308DF831009DF8320020F00600801CE0
:1051600020F0100040F009008DF8320007A8FCF78D
:10517000E7FB0DA807900CA808900120ADF82400CB
:105180000420ADF82640ADF828000B94B5F87A005D
:1051900005F1180307AA6946AADF0FB030BD000069
:1051A000044880F839100449012088710349C87205
:1051B00070470000F83D0020A0360020D0320020CB
:1051C00030B58FB005461C216846FCF7B9FB0024BA
:1051D0009DF80000019440F00A008DF8000003944F
:1051E00004940594069495F87C008DF8360042F6F8
:1051F0000650ADF834000C949DF83000142120F0D6
:105200000F00401C20F0F00010308DF830009DF8A9
:10521000310020F00F00401C20F0F00010308DF81D
:1052200031009DF8320020F00600801C20F01000B4
:1052300040F009008DF8320007A8FCF781FB0DA8AB
:1052400007900CA808900120ADF824000420ADF8C8
:105250002640ADF828000B94B5F87A0005F120033C
:1052600007AA6946AADF0FB030BD0000044880F8E5
:105270003A100449012088710349C8727047000040
:10528000F83D0020A0360020D03200200CF070BB8A
:10529000F0B5B84AB8494FF080541368D4F83001DB
:1052A0000978D4F83421451CC1F3031106D0844693
:1052B00001270025BCF1060F0BD102E003F0FF0C23
:1052C000F6E7B4F82463DFF8B4C2C6F30426CCF8DA
:1052D0000060DEB2062E06D1032904D1DFF8A4C295
:1052E000A74ECCF87460461C04D08446BCF1060F6F
:1052F0000BD102E003F0FF0CF8E7D4F84462DFF8CA
:1053000088C2C6F34236CCF80060DEB2062E08D161
:10531000032906D19D4ED6F800C02CF0807CC6F83B
:1053200000C0461C04D08446BCF1060F0CD102E03C
:1053300003F0FF0CF8E74FF08046C6F80C51C6F8B2
:105340001051914E361F3560DEB2062E08D103296A
:1053500006D1DFF834C203260CF1640CCCF80060EF
:10536000DEB2062E11D103290FD1DFF824C20526A3
:10537000CCF80060864E78363760854E083635604A
:105380000CF1040C3F26CCF80060461C06D0844685
:105390004FEA0206BCF1060F7ED103E003F0FF0CDA
:1053A0000E46F7E7032E7DD0042E7BD0794E36686B
:1053B000DFF8E4C1CCF80060764E361D36680CF19B
:1053C000040CCCF80060734E083636680CF1040CFF
:1053D000CCF800606F4E0C3636680CF1040CCCF83B
:1053E00000606C4E103636680CF1040CCCF800608E
:1053F000684E143636680CF1040CCCF80060654E2B
:1054000018363668DFF890C10CF1200CCCF800603B
:10541000604E1C3636680CF1040CCCF800605D4E12
:10542000203636680CF1040CCCF80060594E243656
:1054300036680CF1040CCCF80060564E28363668FD
:105440000CF1040CCCF80060524E2C3636680CF18E
:10545000040CCCF800604F4E30363668DFF838C1A7
:105460000CF1400CCCF800604A4E343636680CF132
:10547000040CCCF80060474E383636680CF1040C4A
:10548000CCF80060434E3C3636680CF1040CCCF886
:105490000060404E403600E004E036680CF1040C39
:1054A000CCF80060461C05D04FEA000CBCF1060F9A
:1054B00009D102E003F0FF0CF8E7D4F85842374E68
:1054C00004F04F043460441C03D00346062B09D17A
:1054D00001E0DBB2FAE732490B68DB0702D06FF07C
:1054E00001030B6006280AD1032A08D0042A06D03B
:1054F000052A04D02B48016841F4806101602348EB
:105500007438016841F470010160BFF34F8FBFF33D
:105510006F8F4FF01021D1F80002002803DBD1F883
:105520000402002822DA204A176020480368002B72
:10553000FCD01523C1F800320468002CFCD0C1F85F
:10554000043201680029FCD0156001680029FCD0F4
:10555000BFF34F8F0D48F0380168154A01F4E06140
:1055600011430160BFF34F8F00BFFDE7124911489F
:105570000860F0BDE00F00F0E80F00F0403501409A
:105580000DF0ADBA00C007403C050040FCED00E066
:10559000105600400404001020C50040E40E0040F6
:1055A000000400403C17004004E5014000E40140D5
:1055B0000400FA050090D003CC35002001480068B3
:1055C00000470000B034002070B58EB005461C21A5
:1055D0006846FCF7B5F99DF80000002440F00A0089
:1055E0008DF80000039401268DF8366042F696206F
:1055F000ADF834000C949DF83000019420F00F00B9
:10560000401C20F0F00010308DF830009DF8310083
:10561000049420F00F00401C20F0F00010308DF8B2
:1056200031009DF83200059420F00600801C20F027
:10563000100040F009008DF832000694142107A8EC
:10564000FCF77EF90DA807900CA80890ADF824602F
:105650000320ADF82640ADF828000B94288805F10A
:10566000420307AA6946AADF0EB070BD044880F85D
:10567000721004490120C8740349C87270470000C1
:10568000F83D0020A0360020D032002038B5064C6E
:1056900020680025002805D0044840688047256020
:1056A0002068009038BD000000010140C034002097
:1056B00002E008C8121F08C1002AFAD170477047DB
:1056C000002001E001C1121F002AFBD17047000039
:1056D0000121202803DA81400548014003E04028E9
:1056E00002DA2038814009B101207047002070475C
:1056F000FC06FFBD2DE9F843804643F2020669B976
:1057000069460EF071FEB04204D018B128A2B12152
:10571000FAF780FD9DF80000800746D4002140463E
:105720000EF06CFE050040D0112D3ED02F483049C0
:10573000401AC708022000EB07440D2D0AD00B2D9C
:105740001DD0B5421FD12B4920464246BDE8F84343
:105750000BF092BB2046424627490BF08DFB1321EC
:10576000404676DF002820D00CF0DEF9024601B07A
:1057700020464346BDE8F04320A10BF084BB204601
:1057800042462C49E2E728460CF0CEF902460120B9
:1057900000EB0740434628A10BF075FB2846BDE807
:1057A000F84303A2E021FAF735BDBDE8F883000015
:1057B0002E2E5C2E2E5C636F6D706F6E656E747333
:1057C0005C626C655C706565725F6D616E6167657A
:1057D000725C706565725F6D616E616765725F684E
:1057E000616E646C65722E6300000000F852050063
:1057F000B0520500CC3805005838050073645F626C
:105800006C655F6761705F646973636F6E6E65631B
:105810007428292072657475726E65642025732062
:105820006F6E20636F6E6E5F68616E646C652025BD
:10583000642E000018390500417373657274696E37
:10584000672E20706D5F636F6E6E5F736563757238
:105850006528292072657475726E65642025732031
:105860006F6E20636F6E6E5F68616E646C6520257D
:10587000642E000010B560B159B102780B7852085F
:10588000B2EB530F05D10622401C491CFCF76AF805
:1058900008B1002010BD012010BD800701D00020FC
:1058A000704701207047C3688B4206D811440069D5
:1058B000491E814201D8012070470020704790F8AE
:1058C0002400012801D01F207047EE20704710B53A
:1058D00001220221002003F0E1F908B1072810D1CC
:1058E00007220221012003F0D9F908B1072808D1C5
:1058F00000210A22084603F0D1F908B1072800D197
:10590000002010BD10B5ACB0AC216846FCF718F80B
:1059100002208DF8000000208DF8020006218DF88D
:1059200003100121ADF81010304A8DF87C1005925B
:105930004FF49671CDE9221006F0AAFE2C4C20708F
:1059400006F05AFC607006F047FBA070274810383C
:10595000807AE07006F0C2FC207106F019FC080E97
:10596000607106F015FC080CA07106F011FC080A25
:10597000E07106F00DFC217206F00AFC000E40EA10
:105980000120607206F004FC000C40EA0140A072A5
:1059900006F0F8FAE07206F097FEC821B0FBF1F0CD
:1059A000207314482990114869461C30099004F16D
:1059B000F00001F0AFFB20B10FA240F69731FAF7EB
:1059C00029FC0B480422F03090F85410012077DFB6
:1059D00020B109A240F69A31FAF71CFC04480121D3
:1059E000F03001F094FB2CB010BD0000E03200203C
:1059F000C8360020B92B04002E2E5C5372635C6DF8
:105A000061696E2E6300000010B588B10F4810491F
:105A1000401AC008032101EB00400EA10BF028FA48
:105A20000FF0B8FA002810D00EA240F2023108E0C0
:105A30000321104801F040FC002806D009A24FF4D1
:105A40004571BDE81040FAF7E5BB10BDA85305004D
:105A5000B0520500457261736520626F6E647321F8
:105A6000000000002E2E5C5372635C6D61696E2E27
:105A700063000000B8370020C8B2642808D8054980
:105A800081F89300A1F5EB61012088770249C87283
:105A900070470000F83D0020D0320020C8B26428D2
:105AA00008D8054981F89600A1F5EB610120C87777
:105AB0000249C87270470000F83D0020D032002033
:105AC00070B58EB005461C216846FBF739FF9DF87E
:105AD0000000002440F00A008DF800000394012625
