:020000040003F7
:10000000C8990020DD030300E5030300E7030300B4
:10001000E9030300EB030300ED030300000000000D
:10002000000000000000000000000000EF030300DB
:10003000F103030000000000F3030300F5030300D5
:100040000D460300F7030300F14B030005480300CE
:10005000F7030300F7030300C1430300BD46030099
:10006000F7030300F7030300F7030300F70303009C
:10007000F703030085460300F7030300F7030300BB
:10008000FD4B0300AD460300F7030300F703030035
:10009000F7030300F7030300C1480300F70303005D
:1000A000F7030300F7030300F7030300F70303005C
:1000B00065460300F7030300000000000000000095
:1000C000F703030075460300F7030300F70303007B
:1000D000F7030300F7030300F70303000000000029
:1000E0000000000000000000000000000000000010
:1000F0000000000000000000000000000000000000
:1001000000000000000000000000000000000000EF
:1001100000000000000000000000000000000000DF
:1001200000000000000000000000000000000000CF
:1001300000000000000000000000000000000000BF
:1001400000000000000000000000000000000000AF
:10015000000000000000000000000000000000009F
:10016000000000000000000000000000000000008F
:10017000000000000000000000000000000000007F
:10018000000000000000000000000000000000006F
:10019000000000000000000000000000000000005F
:1001A000000000000000000000000000000000004F
:1001B000000000000000000000000000000000003F
:1001C000000000000000000000000000000000002F
:1001D000000000000000000000000000000000001F
:1001E000000000000000000000000000000000000F
:1001F00000000000000000000000000000000000FF
:10020000DFF80CD001F096FE00480047E1C703007C
:10021000C899002000B583B002900091019244F289
:10022000010071466A4605F09FFD03B000BD000065
:1002300030B450E8012F93B2C48923448489A34287
:1002400028BF1B1B0489A34202BFBFF32F8F0020CE
:1002500007E0C3EA020340E80134002CE9D14FF083
:1002600001000A6030BC704750E8012FC2EA024228
:1002700040E801210029F7D1704730B450E8022F3F
:100280001FFAA2F3C488A34202BFBFF32F8F00203E
:100290000DE0C48923448489A34228BF1B1BC2EA02
:1002A000034340E80234002CE8D14FF001000A601B
:1002B00030BC704750E8022FC2EA224240E80221D7
:1002C0000029F7D17047034653E8022FD988B2EBD3
:1002D000324F4FF0000017BF92B241EA014142EAAB
:1002E000014104E05A68B2EB324F08BF012043E8F5
:1002F0000212002AE8D1704730B4044654E8000FD7
:100300000D4644E80053002BF8D1156030BC70470F
:1003100030B4044654E8000F40EA010544E80053B5
:10032000002BF7D1156030BC704730B4044654E858
:10033000000F00EA010544E80053002BF7D11560D7
:1003400030BC704730B4044654E8000F80EA010521
:1003500044E80053002BF7D1156030BC704730B42F
:10036000044654E8000F00EB010544E80053002B5D
:10037000F7D1156030BC704730B4044654E8000F24
:10038000A0EB010544E80053002BF7D1156030BC09
:10039000704770B404464FF0000054E8006F0D68D9
:1003A000AE4207BF44E80023012044E800630E602A
:1003B000002B1CBF0020F0E770BC704730B404462F
:1003C00054E8000F88422CBF451A054644E8005304
:1003D000002BF5D1156030BC7047000006488047FF
:1003E00006480047FEE7FEE7FEE7FEE7FEE7FEE71A
:1003F000FEE7FEE7FEE7FEE7C54803000102030053
:1004000070B491E87800B2E802105B1854EB0C0469
:10041000B2E802104D4156EB0C0680E878008041AE
:10042000013070BC704770B491E87800B2E80210F7
:100430005B1A74EB0C04B2E802108D4176EB0C06EB
:1004400080E878008041404270BC70472DE9F00799
:1004500091E8F807B2E802105B1854EB0C04B2E81C
:1004600002104D4156EB0C06B2E802104F4158EB1A
:100470000C08B2E8021059EB01095AEB0C0A80E8AB
:10048000F80780410130BDE8F00770472DE9F0071B
:1004900091E8F807B2E802105B1A74EB0C04B2E8BA
:1004A00002108D4176EB0C06B2E802108F4178EB1A
:1004B0000C08B2E8021079EB01097AEB0C0A80E82B
:1004C000F80780414042BDE8F00770472DE9F0078A
:1004D000524290E87800B1E880071740DB1918EA2B
:1004E000020854EB080419EA020955EB09051AEA57
:1004F000020A56EB0A0678C090E87800B1E8800757
:1005000017407B4118EA020854EB080419EA020973
:1005100055EB09051AEA020A56EB0A0678C0804133
:100520000130BDE8F00770472DE9F007524290E82E
:100530007800B1E880071740DB1B18EA020874EB6B
:10054000080419EA020975EB09051AEA020A76EBB2
:100550000A0678C090E87800B1E880071740BB41F0
:1005600018EA020874EB080419EA020975EB090598
:100570001AEA020A76EB0A0678C080414042BDE8DA
:10058000F007704790E8300091E8C000A31B1340CB
:10059000E41AF618EB1B1340ED1AFF1830C0C0C167
:1005A0007047F0B55242FFF7EDFFFFF7EBFFFFF7A3
:1005B000E9FFFFF7E7FFF0BD2DE9F0073AC916683C
:1005C000A1FB069A4FF0000CE3FB06AC4FF00007CE
:1005D000E4FB06C74FF00008E5FB067840F8049BF3
:1005E00056684FF00009E1FB06A91CEB090C4FF01F
:1005F000000949EB0909E3FB06C917EB09074FF0AE
:10060000000949EB0909E4FB067918EB09084FF0EA
:10061000000949EB0909E5FB068940F804AB966837
:100620004FF0000AE1FB06CA17EB0A074FF0000A79
:100630004AEB0A0AE3FB067A18EB0A084FF0000AB5
:100640004AEB0A0AE4FB068A19EB0A094FF0000A92
:100650004AEB0A0AE5FB069A40F804CBD6684FF04D
:10066000000CE1FB067C18EB0C084FF0000C4CEB87
:100670000C0CE3FB068C19EB0C094FF0000C4CEB57
:100680000C0CE4FB069C1AEB0C0A4FF0000C4CEB34
:100690000C0CE5FB06AC80E88017BDE8F00770475E
:1006A0000A462DE9F04F41EC140A92EC080A1EC9E3
:1006B00010EE100AA1FB00784FF00009E2FB008960
:1006C0004FF0000AE3FB009A4FF0000BE4FB00AB95
:1006D00012EE100A4FF0000CE1FB00BC4FF0000ED0
:1006E000E2FB00CE4FF00005E3FB00E54FF0000613
:1006F000E4FB005605EE107A10EE900A4FF000076A
:10070000E1FB008719EB07094FF0000747EB0707EC
:10071000E2FB00971AEB070A4FF0000747EB0707C9
:10072000E3FB00A71BEB070B4FF0000747EB0707A6
:10073000E4FB00B712EE900A1CEB070C4FF0000729
:1007400047EB0707E1FB00C71EEB070E4FF0000762
:1007500047EB0707E2FB00E7ED194FF0000747EB17
:100760000707E3FB0057F6194FF0000747EB0707B1
:10077000E4FB006705EE908A11EE100A4FF00008C6
:10078000E1FB00981AEB080A4FF0000848EB080854
:10079000E2FB00A81BEB080B4FF0000848EB080831
:1007A000E3FB00B81CEB080C4FF0000848EB08080E
:1007B000E4FB00C813EE100A1EEB080E4FF0000811
:1007C00048EB0808E1FB00E815EB08054FF00008CE
:1007D00048EB0808E2FB005816EB08064FF000084B
:1007E00048EB0808E3FB006817EB08074FF0000828
:1007F00048EB0808E4FB007806EE109A11EE900A28
:100800004FF00009E1FB00A91BEB090B4FF00009B9
:1008100049EB0909E2FB00B91CEB090C4FF0000998
:1008200049EB0909E3FB00C91EEB090E4FF0000973
:1008300049EB0909E4FB00E913EE900A15EB090501
:100840004FF0000949EB0909E1FB005916EB0906D5
:100850004FF0000949EB0909E2FB006917EB0907B2
:100860004FF0000949EB0909E3FB007918EB09088F
:100870004FF0000949EB0909E4FB008906EE90AA54
:1008800014EE901A01F110011EC910EE100A4FF07B
:10089000000AE1FB00BA1CEB0A0C4FF0000A4AEB1D
:1008A0000A0AE2FB00CA1EEB0A0E4FF0000A4AEBEE
:1008B0000A0AE3FB00EA15EB0A054FF0000A4AEBCF
:1008C0000A0AE4FB005A12EE100A16EB0A064FF071
:1008D000000A4AEB0A0AE1FB006A17EB0A074FF02D
:1008E000000A4AEB0A0AE2FB007A18EB0A084FF00A
:1008F000000A4AEB0A0AE3FB008A19EB0A094FF0E7
:10090000000A4AEB0A0AE4FB009A07EE10BA10EE5E
:10091000900A4FF0000BE1FB00CB1EEB0B0E4FF0EB
:10092000000B4BEB0B0BE2FB00EB15EB0B054FF059
:10093000000B4BEB0B0BE3FB005B16EB0B064FF0D6
:10094000000B4BEB0B0BE4FB006B12EE900A17EB6A
:100950000B074FF0000B4BEB0B0BE1FB007B18EB95
:100960000B084FF0000B4BEB0B0BE2FB008B19EB72
:100970000B094FF0000B4BEB0B0BE3FB009B1AEB4F
:100980000B0A4FF0000B4BEB0B0BE4FB00AB07EE3D
:1009900090CA11EE100A4FF0000CE1FB00EC15EBD1
:1009A0000C054FF0000C4CEB0C0CE2FB005C16EB62
:1009B0000C064FF0000C4CEB0C0CE3FB006C17EB3F
:1009C0000C074FF0000C4CEB0C0CE4FB007C13EE1E
:1009D000100A18EB0C084FF0000C4CEB0C0CE1FB70
:1009E000008C19EB0C094FF0000C4CEB0C0CE2FBEB
:1009F000009C1AEB0C0A4FF0000C4CEB0C0CE3FBC8
:100A000000AC1BEB0C0B4FF0000C4CEB0C0CE4FBA4
:100A100000BC08EE10EA11EE900A4FF0000EE1FB68
:100A2000005E16EB0E064FF0000E4EEB0E0EE2FBD4
:100A3000006E17EB0E074FF0000E4EEB0E0EE3FBB1
:100A4000007E18EB0E084FF0000E4EEB0E0EE4FB8E
:100A5000008E13EE900A19EB0E094FF0000E4EEBCC
:100A60000E0EE1FB009E1AEB0E0A4FF0000E4EEB4D
:100A70000E0EE2FB00AE1BEB0E0B4FF0000E4EEB2A
:100A80000E0EE3FB00BE1CEB0E0C4FF0000E4EEB07
:100A90000E0EE4FB00CE14EE100AA0EC075A80E81C
:100AA000E05FBDE8F08F00BF30B44FF0000310F8F6
:100AB000014B11F8015B013A84EA050443EA04039F
:100AC000F5D1A3F101034FEAD37030BC70474FF06A
:100AD000000310F8012B013943EA0203F9D1A3F115
:100AE00001034FEAD370704711F8013B00F8013B56
:100AF000013AF9D17047002200F8012B0139FBD1EE
:100B0000704700BF2DE9F00791E8F807B2E802103E
:100B10005B1854EB0C04B2E802104D4156EB0C0686
:100B2000B2E802104F4158EB0C08B2E8021059EB42
:100B300001095AEB0C0A8941B3F1FF3374F1FF3418
:100B400075F1FF3576F1000677F1000778F10008BE
:100B500079F101097AF1FF3A51F100014A425B183B
:100B60004C414D4156F1000657F1000758F100087D
:100B700059EB02095AEB010A80E8F807BDE8F007D3
:100B800070472DE9F00791E8F807B2E802105B1A08
:100B900074EB0C04B2E802108D4176EB0C06B2E85F
:100BA00002108F4178EB0C08B2E8021079EB0109D2
:100BB0007AEB0C0A89414A425B184C414D4156F18F
:100BC000000657F1000758F1000859EB02095AEBEB
:100BD000010A80E8F807BDE8F00770470A462DE9EA
:100BE000F04F41EC140A92EC080A1EC910EE100AEC
:100BF000A1FB00784FF00009E2FB00894FF0000AEA
:100C0000E3FB009A4FF0000BE4FB00AB12EE100A7E
:100C10004FF0000CE1FB00BC4FF0000EE2FB00CEF9
:100C20004FF00005E3FB00E54FF00006E4FB005643
:100C300005EE107A10EE900A4FF00007E1FB0087F6
:100C400019EB07094FF0000747EB0707E2FB009796
:100C50001AEB070A4FF0000747EB0707E3FB00A773
:100C60001BEB070B4FF0000747EB0707E4FB00B750
:100C700012EE900A1CEB070C4FF0000747EB07073A
:100C8000E1FB00C71EEB070E4FF0000747EB07071D
:100C9000E2FB00E7ED194FF0000747EB0707E3FB26
:100CA0000057F6194FF0000747EB0707E4FB006712
:100CB00005EE908A11EE100A4FF00008E1FB009853
:100CC0001AEB080A4FF0000848EB0808E2FB00A8FE
:100CD0001BEB080B4FF0000848EB0808E3FB00B8DB
:100CE0001CEB080C4FF0000848EB0808E4FB00C8B8
:100CF00013EE100A1EEB080E4FF0000848EB080830
:100D0000E1FB00E815EB08054FF0000848EB080888
:100D1000E2FB005816EB08064FF0000848EB080805
:100D2000E3FB006817EB08074FF0000848EB0808E2
:100D3000E4FB007806EE109A11EE900A4FF00009DD
:100D4000E1FB00A91BEB090B4FF0000949EB090976
:100D5000E2FB00B91CEB090C4FF0000949EB090953
:100D6000E3FB00C91EEB090E4FF0000949EB09092E
:100D7000E4FB00E913EE900A15EB09054FF00009BA
:100D800049EB0909E1FB005916EB09064FF0000990
:100D900049EB0909E2FB006917EB09074FF000096D
:100DA00049EB0909E3FB007918EB09084FF000094A
:100DB00049EB0909E4FB008906EE90AA14EE901AAB
:100DC00001F110011EC910EE100A4FF0000AE1FBFC
:100DD00000BA1CEB0A0C4FF0000A4AEB0A0AE2FBCD
:100DE00000CA1EEB0A0E4FF0000A4AEB0A0AE3FBA8
:100DF00000EA15EB0A054FF0000A4AEB0A0AE4FB89
:100E0000005A12EE100A16EB0A064FF0000A4AEBDF
:100E10000A0AE1FB006A17EB0A074FF0000A4AEBE7
:100E20000A0AE2FB007A18EB0A084FF0000A4AEBC4
:100E30000A0AE3FB008A19EB0A094FF0000A4AEBA1
:100E40000A0AE4FB009A07EE10BA10EE900A4FF07F
:100E5000000BE1FB00CB1EEB0B0E4FF0000B4BEB3E
:100E60000B0BE2FB00EB15EB0B054FF0000B4BEB14
:100E70000B0BE3FB005B16EB0B064FF0000B4BEB91
:100E80000B0BE4FB006B12EE900A17EB0B074FF015
:100E9000000B4BEB0B0BE1FB007B18EB0B084FF04F
:100EA000000B4BEB0B0BE2FB008B19EB0B094FF02C
:100EB000000B4BEB0B0BE3FB009B1AEB0B0A4FF009
:100EC000000B4BEB0B0BE4FB00AB07EE90CA11EEF3
:100ED000100A4FF0000CE1FB00EC15EB0C054FF095
:100EE000000C4CEB0C0CE2FB005C16EB0C064FF01C
:100EF000000C4CEB0C0CE3FB006C17EB0C074FF0F9
:100F0000000C4CEB0C0CE4FB007C13EE100A18EB0D
:100F10000C084FF0000C4CEB0C0CE1FB008C19EBB7
:100F20000C094FF0000C4CEB0C0CE2FB009C1AEB94
:100F30000C0A4FF0000C4CEB0C0CE3FB00AC1BEB71
:100F40000C0B4FF0000C4CEB0C0CE4FB00BC08EE5F
:100F500010EA11EE900A4FF0000EE1FB005E16EB76
:100F60000E064FF0000E4EEB0E0EE2FB006E17EB7E
:100F70000E074FF0000E4EEB0E0EE3FB007E18EB5B
:100F80000E084FF0000E4EEB0E0EE4FB008E13EE3B
:100F9000900A19EB0E094FF0000E4EEB0E0EE1FB1E
:100FA000009E1AEB0E0A4FF0000E4EEB0E0EE2FB07
:100FB00000AE1BEB0E0B4FF0000E4EEB0E0EE3FBE4
:100FC00000BE1CEB0E0C4FF0000E4EEB0E0EE4FBC1
:100FD00000CE53EC172A18EE104A12EB0A0253EB1C
:100FE0000B0354EB0C0455EB0E05002040F1000000
:100FF00012EB0B0253EB0C0354EB0E0455EB0E05F6
:1010000046410020474158EB000859EB0A0940F1DE
:101010000000B2EB0E0273F1000374F1000475EBF3
:101020000A0576EB0B0677EB0C0778EB0A0879EBF1
:101030000C0960F10000B5EB0B0576EB0C0677EBC5
:101040000E0778EB0B0879EB0E0960F100005FEA00
:10105000E07C7FEA0C0CDCF1000EB2EB0C0273EBCF
:101060000C0374EB0C0475F1000576F1000677F1C2
:10107000000778EB0E0879EB0C0960F100005FEADD
:10108000E07CDCF1000E12EB0C0253EB0C0354EB92
:101090000C0455F1000556F1000657F1000758EB16
:1010A0000E0859EB0C0940F100005FEAE07CDCF12E
:1010B000000E12EB0C0253EB0C0354EB0C0455F135
:1010C000000556F1000657F1000758EB0E0859EBE2
:1010D0000C095BEC15AA51EC160A1AEB060A5BEB3D
:1010E000070B50EB080051EB09015FF0000C4CF1CD
:1010F000000C1AEB070A5BEB080B50EB090051EBF5
:10110000090152EB0C025FF0000C53EB0C0354EBA3
:101110000C0475414CF1000CBAEB090A7BF1000B91
:1011200070F10000B141BA4173EB0803B44175EBB3
:1011300008056CF1000CC91B72EB080273EB090384
:10114000BC4175EB09056CF1000C5FEAEC787FEAB5
:101150000808D8F10009BAEB080A7BEB080B70EB22
:10116000080071F1000172F1000273F1000374EBE9
:10117000090475EB08056CF1000C5FEAEC78D8F116
:1011800000091AEB080A5BEB080B50EB080051F161
:10119000000152F1000253F1000354EB090455EB36
:1011A00008054CF1000C5FEAEC78D8F100091AEB65
:1011B000080A5BEB080B50EB080051F1000152F1FB
:1011C000000253F1000354EB090455EB080514EE3B
:1011D000107AA7E8000C87E83F00BDE8F08F00BF59
:1011E0002DE9F00791E8F807B2E802105B1854EB1C
:1011F0000C04B2E802104D4156EB0C06B2E80210A6
:101200004F4158EB0C08B2E8021059EB01095AEBB8
:101210000C0A4FF0260261EB010122EA01015B1882
:1012200054F1000455F1000556F1000657F100078E
:1012300058F1000859F100095AF1000A61EB010167
:1012400022EA01010B4480E8F807BDE8F007704787
:101250002DE9F00791E8F807B2E802105B1A74EB89
:101260000C04B2E802108D4176EB0C06B2E80210D5
:101270008F4178EB0C08B2E8021079EB01097AEBA8
:101280000C0A4FF0260261EB010102EA01015B1A30
:1012900074F1000475F1000576F1000677F100079E
:1012A00078F1000879F100097AF1000A61EB010197
:1012B00002EA0101A3EB010380E8F807BDE8F007AB
:1012C00070470A462DE9F04F41EC140A92EC080AE7
:1012D0001EC910EE100AA1FB00784FF00009E2FBD6
:1012E00000894FF0000AE3FB009A4FF0000BE4FB8B
:1012F00000AB12EE100A4FF0000CE1FB00BC4FF007
:10130000000EE2FB00CE4FF00005E3FB00E54FF0DE
:101310000006E4FB005605EE107A10EE900A4FF03E
:101320000007E1FB008719EB07094FF0000747EBC7
:101330000707E2FB00971AEB070A4FF0000747EB9D
:101340000707E3FB00A71BEB070B4FF0000747EB7A
:101350000707E4FB00B712EE900A1CEB070C4FF0F6
:10136000000747EB0707E1FB00C71EEB070E4FF036
:10137000000747EB0707E2FB00E7ED194FF0000716
:1013800047EB0707E3FB0057F6194FF0000747EB61
:101390000707E4FB006705EE908A11EE100A4FF094
:1013A0000008E1FB00981AEB080A4FF0000848EB30
:1013B0000808E2FB00A81BEB080B4FF0000848EB05
:1013C0000808E3FB00B81CEB080C4FF0000848EBE2
:1013D0000808E4FB00C813EE100A1EEB080E4FF0DD
:1013E000000848EB0808E1FB00E815EB08054FF0A2
:1013F000000848EB0808E2FB005816EB08064FF01F
:10140000000848EB0808E3FB006817EB08074FF0FB
:10141000000848EB0808E4FB007806EE109A11EE8D
:10142000900A4FF00009E1FB00A91BEB090B4FF0FC
:10143000000949EB0909E2FB00B91CEB090C4FF06C
:10144000000949EB0909E3FB00C91EEB090E4FF047
:10145000000949EB0909E4FB00E913EE900A15EBDA
:1014600009054FF0000949EB0909E1FB005916EBAA
:1014700009064FF0000949EB0909E2FB006917EB87
:1014800009074FF0000949EB0909E3FB007918EB64
:1014900009084FF0000949EB0909E4FB008906EE51
:1014A00090AA14EE901A01F110011EC910EE100A54
:1014B0004FF0000AE1FB00BA1CEB0A0C4FF0000AE7
:1014C0004AEB0A0AE2FB00CA1EEB0A0E4FF0000AC2
:1014D0004AEB0A0AE3FB00EA15EB0A054FF0000AA3
:1014E0004AEB0A0AE4FB005A12EE100A16EB0A064F
:1014F0004FF0000A4AEB0A0AE1FB006A17EB0A0701
:101500004FF0000A4AEB0A0AE2FB007A18EB0A08DD
:101510004FF0000A4AEB0A0AE3FB008A19EB0A09BA
:101520004FF0000A4AEB0A0AE4FB009A07EE10BAF1
:1015300010EE900A4FF0000BE1FB00CB1EEB0B0E00
:101540004FF0000B4BEB0B0BE2FB00EB15EB0B052D
:101550004FF0000B4BEB0B0BE3FB005B16EB0B06AA
:101560004FF0000B4BEB0B0BE4FB006B12EE900A01
:1015700017EB0B074FF0000B4BEB0B0BE1FB007B6A
:1015800018EB0B084FF0000B4BEB0B0BE2FB008B47
:1015900019EB0B094FF0000B4BEB0B0BE3FB009B24
:1015A0001AEB0B0A4FF0000B4BEB0B0BE4FB00AB01
:1015B00007EE90CA11EE100A4FF0000CE1FB00ECB0
:1015C00015EB0C054FF0000C4CEB0C0CE2FB005C37
:1015D00016EB0C064FF0000C4CEB0C0CE3FB006C14
:1015E00017EB0C074FF0000C4CEB0C0CE4FB007CF1
:1015F00013EE100A18EB0C084FF0000C4CEB0C0C1F
:10160000E1FB008C19EB0C094FF0000C4CEB0C0CBF
:10161000E2FB009C1AEB0C0A4FF0000C4CEB0C0C9C
:10162000E3FB00AC1BEB0C0B4FF0000C4CEB0C0C79
:10163000E4FB00BC08EE10EA11EE900A4FF0000E39
:10164000E1FB005E16EB0E064FF0000E4EEB0E0EA9
:10165000E2FB006E17EB0E074FF0000E4EEB0E0E86
:10166000E3FB007E18EB0E084FF0000E4EEB0E0E63
:10167000E4FB008E13EE900A19EB0E094FF0000EFA
:101680004EEB0E0EE1FB009E1AEB0E0A4FF0000E21
:101690004EEB0E0EE2FB00AE1BEB0E0B4FF0000EFE
:1016A0004EEB0E0EE3FB00BE1CEB0E0C4FF0000EDB
:1016B0004EEB0E0EE4FB00CE4FF0260153EC152A44
:1016C0004FF00000E6FB01201B184FF0000040EB3C
:1016D0000000E7FB013057EC166A36184FF00000A7
:1016E00040EB0000E8FB01603F184FF0000040EBCA
:1016F0000000E9FB017059EC178A18EB00084FF065
:10170000000040EB0000EAFB018019EB00094FF0FC
:10171000000040EB0000EBFB019018EE10AA1AEB62
:10172000000A4FF0000040EB0000ECFB01A02D1878
:101730004FF0000040EB0000EEFB015000FB01F019
:10174000121853F1000356F1000657F1000758F143
:10175000000859F100095AF1000A55F1000B60EB3D
:10176000000021EA0000024414EE100A80E8CC0FC9
:10177000BDE8F08F2DE9F00791E8F0174EF6A15182
:101780004FEA4101A4FB01234FF00004E5FB0134C3
:101790004FF00005E6FB01454FF00006E7FB015660
:1017A0004FF00007E8FB01674FF00008E9FB017804
:1017B0004FF00009EAFB01894FF0000AECFB019AA7
:1017C0004FF026010AFB01FA12EB0A0253F1000363
:1017D00054F1000455F1000556F1000657F10007D9
:1017E00058F1000859F100096AEB0A0A21EA0A01D6
:1017F0000A4480E8FC03BDE8F00770472DE9F003D8
:1018000090E8F8134FEAEC7202F013022CF0004C4F
:1018100002F11301591854F1000155F1000156F17C
:10182000000157F1000158F1000159F100015CF18C
:1018300000014FEAE17101F0130111445B1854F10A
:10184000000455F1000556F1000657F1000758F164
:10185000000859F100094CF1000C2CF0004C80E814
:10186000F813BDE8F00370472DE9F05F054600204E
:1018700092469B4688460646814640241BE0284601
:1018800041464746224600F06EFA53465A46C01A71
:10189000914110D311461846224600F016F82D1A31
:1018A00067EB01084F4622460120002100F00DF8A9
:1018B00017EB00094E41201EA4F10104DFDC48466D
:1018C00031462A464346BDE8F09F202A04DB203AF1
:1018D00000FA02F1002070479140C2F1200320FA83
:1018E00003F319439040704700487047F80F050014
:1018F00010B5441A0346944209D28418114403E0F7
:1019000011F8013D04F8013D521EF9D210BD40EA24
:101910000104A40703D009E010C9121F10C3042A50
:10192000FAD203E011F8014B03F8014B521EF9D231
:1019300010BDD2B201E000F8012B491EFBD2704766
:101940000022F6E710B513460A4604461946FFF78B
:10195000F0FF204610BD421C10F8011B0029FBD1EE
:10196000801A704730B504460020034600E05B1C37
:10197000934203D2E05CCD5C401BF8D030BD0346FF
:1019800011F8012B00F8012B002AF9D118467047F5
:101990002DE9FE4F804681EA0300C00F0C460090FF
:1019A00021F0004123F00045B8EB0200A94105D227
:1019B0004046214690461C460B46024623F0004016
:1019C000104347D0270DC7F30A00C3F30A51029012
:1019D000401A019040286BDAC3F3130040F4801BD7
:1019E0000098924620B10023D2EB030A63EB0B0B65
:1019F00001985946C0F140025046FFF766FF06467F
:101A00000D4650465946019A00F0BDF910EB08000A
:101A10006141002487EA115284EAE7731A4340D0F7
:101A2000009A62B3019A012A4FEA075215DC001BA3
:101A300061EB02014FF0004202EA0752CDE9004299
:101A4000001C41F5801132462B4600F0F4F903B03A
:101A5000BDE8F08F40462146F9E7001B61EB02012B
:101A6000001C41F5801300185B412018A2F50017F7
:101A700047EB030140EAD570B6196D4111E06D08DE
:101A80004FEA360645EAC0754FEA0752001B61EB84
:101A90000201001C41F5801149084FEA300000198D
:101AA000514132462B4603B0BDE8F04F00F0B4B9C7
:101AB0000098012240000023D0EB020263EBE073A8
:101AC000009821464FEAE074B8EB000061EB040196
:101AD000E9E783F000435BE781F0004158E72DE937
:101AE000FE4F81EA030404F0004421F00041009419
:101AF0004FF0000B23F0004350EA01045ED052EA9D
:101B000003045BD0C3F30A54C1F30A552C44A4F276
:101B1000F3340194A0FB0254C1F3130141F480118A
:101B2000C3F3130343F4801301FB024400FB034E91
:101B3000840A970A44EA815447EA8357A4FB07685A
:101B400002958D0A05FB07854FEA932C04FB0C5484
:101B50002705029D4FEA065847EA1637B5EB0805F8
:101B60006EEB070C870E920E47EA811742EA83124A
:101B7000A7FB0201B6EB0B0164EB00042B0D43EA5B
:101B80000C335E1844EB1C50DA465146E7FB020169
:101B9000C5F313044FEA0B3343EA14534FEA0432FC
:101BA000019C43EA0603A4F10C040294009CCDE9D5
:101BB00000B400F040F903B0BDE8F08F002001460A
:101BC000F9E72DE9F04D81EA030404F0004B21F020
:101BD000004514464FF0000A23F0004150EA050288
:101BE00020D054EA01021DD0C5F30A570246C5F3BE
:101BF0001303C1F31300C1F30A5640F4801543F4F4
:101C00008013A7EB0608101BD64608F2FD3873EBCD
:101C1000050002D308F1010801E092185B41B8F118
:101C2000000F03DA00200146BDE8F08D00204FF4DC
:101C30008011064684460EE0171B73EB050705D39B
:101C4000121B63EB050306434CEA010C49084FEAFB
:101C5000300092185B4150EA0107EDD152EA0300CF
:101C600012D082EA040083EA0501084305D0101B64
:101C7000AB4106D20122002306E000224FF00043D0
:101C800002E06FF0010253101AEB06004CEB085112
:101C900010EB0A0041EB0B01BDE8F04D00F0BCB8C1
:101CA0000EB5C10F80EAE0700844CA07002140F277
:101CB00033438DE80E000A460B4600F0BCF803B033
:101CC00000BD0EB540F2334102910021CDE9001173
:101CD0000A460B4600F0AFF803B000BD00F000422A
:101CE00030F000400AD0C10D01F56071C0F316005C
:101CF00042EA0151C20840071143704700200146E3
:101D0000704701F0004330B421F0004150EA010275
:101D100006D00A0DA2F56072C1F31301002A02DC9D
:101D200030BC00207047440F44EAC104C100E018F1
:101D300030BC00EBC25000F038B830B50B4601465D
:101D400000202022012409E021FA02F59D4205D35A
:101D500003FA02F5491B04FA02F52844151EA2F104
:101D60000102F1DC30BD202A04DB203A21FA02F026
:101D70000021704721FA02F3D040C2F120029140C5
:101D8000084319467047202A06DBCB17203A41FA50
:101D900002F043EAE07306E041FA02F3D040C2F1F8
:101DA000200291400843194670470029A8BF704798
:101DB000401C490008BF20F00100704710B4B0FA81
:101DC00080FC00FA0CF050EA010404BF10BC70471C
:101DD00049B1CCF1200421FA04F411FA0CF118BF36
:101DE000012121430843A3EB0C01CB1D4FEA006105
:101DF0004FEA102042BF002010BC704700EBC350D8
:101E000010440029A4BF10BC7047401C490008BF03
:101E100020F0010010BC704710B5141E73F10004CF
:101E200008DA401C41F1000192185B411A4301D1CC
:101E300020F0010010BD2DE9F04D92469B4611B1F6
:101E4000B1FA81F202E0B0FA80F220329046FFF758
:101E50003CFD04460F4640EA0A0041EA0B015346A6
:101E60005A46084313D0114653EA010019D0C8F16D
:101E700040025046FFF777FF05460E46504659464A
:101E80004246FFF722FD084305D0012004E020462A
:101E90003946BDE8F08D0020054346EAE0762C4344
:101EA00037430A986305E40AA0EB08000022FD0A04
:101EB00044EA47540A3002D500200146E9E701050B
:101EC00010196941DDE9084500196941BDE8F04D87
:101ED000A2E7C1F30A52C1F3130140F2FF3341F408
:101EE00080119A4202DA00200146704740F23343E3
:101EF0009A42A2F2334202DC5242FFF734BFFFF7AC
:101F0000E4BC000030B5041E71F1000404DB4FF0A6
:101F10000044404264EB0101141E73F1000405DB30
:101F20001C464FF00043524263EB0403994208BF42
:101F3000904230BD064C074D06E0E06840F00103DA
:101F400094E8070098471034AC42F6D3FEF75CF9EA
:101F500080330500A033050070B58C1810F8015BC4
:101F600015F0070301D110F8013B2A1106D110F832
:101F7000012B03E010F8016B01F8016B5B1EF9D136
:101F80002B0705D40023521E0DD401F8013BFAE7BC
:101F900010F8013BCB1A921C03E013F8015B01F827
:101FA000015B521EF9D5A142D8D3002070BD0000BC
:101FB0002DE9F0410446B0B00D460A46684604F1EA
:101FC0002007002100F0C0F804F140083A462146FD
:101FD00010A804F16006FFF775F94146324618A8CB
:101FE000FFF770F94246394620A8FFF76BF93246F1
:101FF000214628A8FFF766F9EB0F6A4610A920468C
:1020000000F000F930B0BDE8F08100BF2DE9F041EB
:102010000446B0B00D460A46684604F12007012187
:1020200000F092F804F140083A46214610A804F165
:102030006006FFF747F94146324618A8FFF742F914
:102040004246394620A8FFF73DF93246214628A8E6
:10205000FFF738F9EB0F6A4610A9204600F0D2F8D6
:1020600030B0BDE8F08100BF2DE9F0410446B0B0CA
:10207000684604F12006884604F1400700F096F80F
:1020800004F160053246214610A8FFF71BF93946D6
:102090002A4618A8FFF716F93A46314620A8FFF756
:1020A00011F92A46214628A8FFF70CF94FEAD87300
:1020B0006A4610A9204600F0A5F830B0BDE8F081CE
:1020C00070B5A0B0044601F1200668460D46FFF742
:1020D000F8F8314608A8FFF7F4F805F1400110A818
:1020E000FFF7EFF810AA11461046FFF779F8694696
:1020F00018A800F0D1FB324629462046FFF770F8B9
:1021000021462046FFF7DDF86A4621462046FFF7C4
:102110009FF804F1400508AA21462046FFF798F8E9
:10212000284608AA18A9FFF75BF810AA294604F167
:102130002000FFF78DF808AA18A904F16000FFF746
:1021400087F820B070BD00BF2DE9F84302EBE276BE
:1021500086EAE27680460C46002100F093FB08F107
:102160002007711EC90F38460F4D00F08BFB05EBA1
:10217000442540354FF0010986EA0904013CE40F8B
:10218000294622464046FEF7A1F909F1010905F169
:10219000200122463846FEF799F9B9F1090F05F1F9
:1021A0004005E9D1BDE8F883A02C05002DE9F843EE
:1021B00001EBE177814687EAE177002100F062FBDD
:1021C00009F12008791EC90F404600F05BFB0C4E58
:1021D000012587EA0504013CE40F314622464846C2
:1021E000FEF774F9013506F1200122464046FEF75C
:1021F0006DF9092D06F14006EBD1BDE8F88300BF6B
:10220000E03005002DE9F0430D46A1B001F12009B1
:102210001646044649462A466846984606F120076F
:10222000FFF716F849462A4608A8FEF7D9FF3946AF
:10223000324610A8FFF70CF83946324618A8FEF7C8
:10224000CFFF424618A910A8FEF7ABF910AA6946BD
:102250006846FFF737F808A918AA0846FFF732F8CA
:102260003A46314610A8FFF72DF810A905F1600293
:102270000846FFF727F810A90846144AFFF722F886
:1022800005F14002114618A8FEF7AAFF6A4608A900
:102290002046FEF7DDFF04F120056A4608A904F197
:1022A0006000FEF79DFF4034284610AA18A9FEF7EB
:1022B000CFFF10AA18A92046FEF792FF42462946F2
:1022C0002046FEF76EF921B0BDE8F083E03205004C
:1022D0002DE9F047CC7F0D78C0B00B4604F03F04E9
:1022E0004978D3F804C093F802809F68D3F810A00F
:1022F000DE688DF8411044F04004114625F00705D2
:102300005A698DF85F409C6993F803E08DF840505E
:102310008DF842801D7F93F81D809B7F8DF843E0F0
:1023200081466846CDE911C78DF85E30CDE91524A8
:10233000CDE9136A8DF85D808DF85C5000F086FA67
:102340002022694618A8FEF7CFFB6846012100F05D
:1023500099FA08A8002100F095FA18A920A82022CF
:10236000FEF7C2FB28A8012100F08CFA18AF0DF18E
:1023700040084FF0060A002417F8016D46FA0AF5E6
:1023800005F001056C40224620A96846FEF709F9D0
:10239000224628A908A8FEF704F908AA694630A829
:1023A000FEF71EFF08AA10466946FEF751FF28AA4D
:1023B00020A938A8FEF714FF28AA104620A9FEF786
:1023C00047FF38A9084608AAFEF77CFF28A9084657
:1023D00030AAFEF777FF38AA28A920A8FEF700FF49
:1023E00028A938AA0846FEF733FF20A90846FEF7B9
:1023F00068FF28A90846FEF764FF28A918AA08461E
:10240000FEF760FF30A90846FEF75BFF08A938A871
:10241000FEF757FF38AA30A96846FEF753FF30A9E8
:1024200038AA0846FEF714FF30A908A8FFF7A2F95A
:1024300008A9084638AAFEF7D3FE08A90AF1FF3A10
:1024400030AA0846FEF73EFFBAF1FF3F2C4695D171
:1024500047454FF0070A8FD108A90846012200F02E
:102460002DFA08AA69466846FEF72CFF69464846D9
:1024700000F036FB40B0BDE8F08700BF014AFFF72F
:1024800027BF00BF6029050070B500F1200590B09E
:102490000E46044600F058FB06F12001284600F0E5
:1024A00053FB214608A8FEF799FB08A908460C4AE9
:1024B000FEF728FB08A922460846FEF790FB08A96C
:1024C0000846084AFEF71EFB29466846FEF786FBCB
:1024D000694608A82022FEF7E7FA013810B070BD5F
:1024E00000330500203305002DE9F047B8B08A46D7
:1024F0008146114610A8514AFDF7C8FF50490246CF
:1025000010A8FDF7E3FF179F4C4900EAD7778046F4
:10251000C7F1010210A8FDF7D9FF179D524628A95F
:1025200018A8ED4301F088F8ED0F20A9C5F10102CC
:10253000084600F0EDFAC8F10108FE266A4618A91F
:1025400028A801F02DF8731138AA02EB830306F0D6
:102550001F0253F8A04CD44004F0010465402A4601
:1025600028A918A8FEF71DF82A4630A920A8FEF7CA
:1025700018F8013E28A918A800F0ACFF731C2546E6
:10258000DCD1C4F1010208A820A900F0C1FA7D4005
:102590006A4618A928A801F003F828A92A4618A80D
:1025A000FDF7FFFF2A4630A920A8FDF7FAFF08A98A
:1025B0006A460846FEF713FB08A9084600F0DEFA53
:1025C00008A909F120040AF120020846FEF707FBDA
:1025D00020A908AA2046FEF702FB08AA18A9684607
:1025E000FEF7FDFA69466846FEF7F8FA18AA69464A
:1025F00008A8FEF7F4FA21466846FEF7EFFA08AAA3
:1026000069461046FEF7BDFA08A90E4A6846FEF76D
:10261000B8FA20462021FEF75AFA08A9434202469A
:10262000684643EA0808FDF7BCFF48466946064A83
:10263000FEF7D5FA404638B0BDE8F08760330500B4
:10264000402C050020330500602C05000A46014996
:10265000FFF74ABF8029050000F040BB38B50446AB
:102660000D4600F03BFB05F1200104F12000BDE820
:10267000384000F033BB00BF30B5A9B01446054662
:10268000684600F09DFB214618A8FFF7FDFE6A464C
:1026900018A9044608A8FFF727FF08A904432846FD
:1026A000FFF7DAFF204629B030BD00BF30B599B042
:1026B0000546684600F084FB694608A8FFF7C6FF98
:1026C00008A904462846FFF7C9FF204619B030BDC7
:1026D00010B52022B0B004460DEB020000F098FBCC
:1026E0009DF83F309DF8202003F07F0343F0400326
:1026F00022F0070208A968468DF83F308DF82020A7
:1027000000F006FB694618A800F028F818A9204632
:1027100000F002F830B010BD30B599B004460D4657
:1027200010A84031012200F0C9F810AA29466846D5
:10273000FEF7C8FD10AA05F1200108A8FEF7C2FDAA
:1027400008A9204600F0CCF9684600F093F8E37F32
:1027500083EAC010E07719B030BD00BF2DE9F04129
:10276000B0B0E8460446404600F00AFB04F14006DB
:1027700020469DF93F10FFF719FD3046012100F07A
:1027800081F804F120070DF11505214610A8FFF787
:1027900097FC18AA10A92046FEF794FD28AA20A9A4
:1027A0003846FEF78FFD20AA18A93046FEF78AFDAD
:1027B000214610A8FFF784FC18AA10A92046FEF7AE
:1027C00081FD28AA20A93846FEF77CFD20AA18A979
:1027D0003046FEF777FD214610A8FFF771FC18AAD6
:1027E00010A92046FEF76EFD28AA20A93846FEF75C
:1027F00069FD20AA18A93046FEF764FD214610A8FD
:10280000FFF75EFC15F9011D10A8FFF7D1FB95F944
:10281000151010A8FFF7FAFB95F92A1010A8FFF77A
:1028200023FC18AA10A92046FEF74CFD28AA20A9CF
:102830003846FEF747FD20AA18A93046FEF742FDAC
:10284000A845A2D130B0BDE8F08100BF0B6803609D
:102850004B6843608B688360CB68C3600B6903611E
:102860004B6943618B698361CB6923F00043C3618A
:10287000704700BF10B50446FEF7C0FF206800F0A7
:10288000010010BD0023C0E90013C0E90233C0E914
:102890000433C0E90633704700B589B000230A4607
:1028A0006946CDE90033CDE90233CDE90433CDE902
:1028B0000633FEF7CDFC09B05DF804FBF0B5A1B01E
:1028C0000546684617460E46FEF7FBFC694618A803
:1028D000FEF7F7FC18A90846FEF7F3FC324618A9E4
:1028E00008A8FEF7EFFC6A4608A96846FEF7EAFC6E
:1028F000694618A8FEF7E5FC08AA104618A9FEF7D5
:10290000E1FC08A918A8FEF7DCFC18A90846FEF7A8
:10291000D8FC18A90846FEF7D4FC18A90846FEF70B
:10292000D0FC18A90846FEF7CCFC08AA18A9104646
:10293000FEF7C8FC022408A900E0012418A8FEF74D
:10294000C0FC18A90846FEF7BCFC18A90846FEF70B
:10295000B8FC18A90846FEF7B4FC18A90846FEF70B
:10296000B0FC012C18A9E8D110A808AAFEF7AAFC0F
:10297000042410A918A8FEF7A4FC18A90846FEF71D
:10298000A0FC18A90846FEF79CFC18A90846FEF70B
:1029900098FC18A90846FEF794FC013C18A9E9D157
:1029A00010AA0846FEF78EFC022400E0012418A9B4
:1029B0000846FEF786FC18A90846FEF782FC18A90F
:1029C0000846FEF77EFC18A90846FEF77AFC18A90F
:1029D0000846FEF776FC012CE8D118A908AA10A831
:1029E000FEF770FC0A2410A918A8FEF76AFC18A9C3
:1029F0000846FEF766FC18A90846FEF762FC18A90F
:102A00000846FEF75EFC18A90846FEF75AFC013C92
:102A100018A9E9D110AA08A8FEF754FC142408A9A3
:102A200018A8FEF74EFC18A90846FEF74AFC18A99C
:102A30000846FEF746FC18A90846FEF742FC18A90E
:102A40000846FEF73EFC013C18A9E9D108AA084651
:102A5000FEF738FC0A2418A90846FEF732FC18A92C
:102A60000846FEF72EFC18A90846FEF72AFC18A90E
:102A70000846FEF726FC18A90846FEF722FC013C92
:102A8000E9D118A9084610AAFEF71CFC18A90846A7
:102A900067B9FEF716FC18A90846FEF712FC324685
:102AA00018A92846FEF70EFC21B0F0BDFEF709FC80
:102AB00018A90846FEF705FC18A90846FEF701FC10
:102AC00018A90846FEF7FDFB18A90846FEF7F9FB12
:102AD0006A4618A92846FEF7F5FB21B0F0BD00BFF5
:102AE00038B50C4605460846FEF788FE23682B607D
:102AF00063686B60A368AB60E368EB6023692B617C
:102B000063696B61A369AB61E369EB6138BD00BFC9
:102B100070B588B004460D46684620211646FDF77C
:102B2000EAFF00232946204620220093FDF7DCFF20
:102B30002A4669466846FEF724F83246694620462A
:102B4000FDF72FFD08B070BD0B681BBAC3614B6861
:102B50001BBA83618B681BBA4361CB681BBA0361E4
:102B60000B691BBAC3604B691BBA83608B691BBAC4
:102B70004360CB691BBA0360704700BF70B598B063
:102B80000D46064610A8FEF729F82A4610A9684601
:102B9000FEF725F8694610A8FEF720F810A90846A8
:102BA000FEF71CF86A4610A908A8FEF718F808A94D
:102BB00010A8FEF713F810A90846FEF70FF810A9A1
:102BC0000846FEF70BF810A90846FEF707F810A90B
:102BD00008AA0846FEF703F810A90846FDF7FEFF0D
:102BE00010A90846FDF7FAFF10A96A4608A8FDF7E4
:102BF000F6FF052408A910A8FDF7F0FF10A9084664
:102C0000FDF7ECFF013C10A9F5D108AA0846FDF735
:102C1000E6FF052410A90846FDF7E0FF10A90846C5
:102C2000FDF7DCFF013CF5D110A908AA0846FDF725
:102C3000D6FF10A908A8FDF7D1FF08A90846FDF79F
:102C4000CDFF08A96A466846FDF7C9FF102469460A
:102C500010A8FDF7C3FF10A90846FDF7BFFF013C10
:102C600010A9F5D12A460846FDF7B9FF402410A95E
:102C70000846FDF7B3FF10A90846FDF7AFFF013C7A
:102C8000F5D110A96A460846FDF7A9FF102410A93E
:102C90000846FDF7A3FF10A90846FDF79FFF013C7A
:102CA000F5D110A96A460846FDF799FF102410A92E
:102CB0000846FDF793FF10A90846FDF78FFF013C7A
:102CC000F5D110A908AA0846FDF789FF2A4610A9E0
:102CD0003046FDF784FF18B070BD00BFCB691BBA4A
:102CE00003608B691BBA43604B691BBA83600B6935
:102CF0001BBAC360CB681BBA03618B681BBA436104
:102D00004B681BBA83610B681BBAC361704700BF75
:102D1000F0B50B4699B0DA69184D149218A9120F44
:102D200004465F689E68186941F85C2DDA68D3F83C
:102D300000C00E970F965F699E69109200232A4685
:102D4000119005A8CDF834C0CDE916331593CDE91F
:102D50000333029312971396FDF72EFC019B05AAED
:102D60001B070DA920460C93FDF790FBE26929464D
:102D7000D20F2046FDF7AAFB19B0F0BD802C05004C
:102D8000F0B40025471E2C462A46E30814F0070F2E
:102D900008BF51F8235005F00F03134403F1080254
:102DA00012090134D6B2A3EB06133F2C4FEA1515D6
:102DB00007F8013FE9D1354480F83F50F0BC704737
:102DC00038B50B68114D1BBAC3614B681BBA8361E0
:102DD0008B681BBA4361CB681BBA03610B691BBAD2
:102DE000C3604B691BBA83608B691BBA4360CB69B4
:102DF0001BBA2A46036001460446FDF747FB2946F5
:102E000002462046BDE83840FDF760BB4033050070
:102E10002DE9F04DE2A5D5E90045B2B0E2A7D7E92A
:102E20000067CDE90045E2A5D5E90045CDE9026797
:102E3000E1A7D7E90067CDE90445E1A5D5E900455B
:102E4000CDE90667E0A7D7E90067CDE908450FF2AD
:102E5000803BDBE900ABE0A5D5E90045CDE90A6799
:102E60000027CDE90C4580461446CDE90EABCDE9EF
:102E70003072002A40F0CD8080238DF84030012050
:102E80006D4610AE00F1400E05EB0E035B42471C91
:102E900003F00303D91C7B2FC0F17B0C88BF4FF0DC
:102EA000010C052938BF05217B2FC0F17A0288BFAC
:102EB0000022914229D8ABB132AA02440021012B51
:102EC00002F8881C00F0A38032AA1744032B00F1FB
:102ED000020207F8881C40F0538132AF3A440330B5
:102EE00002F8881CACEB030C002273442B444FEA1D
:102EF0009C0711460132974243F8041BFAD82CF084
:102F000003036345184427D0471C32AB0344002217
:102F10007B2F03F8882C1FD032AB3B44811C7B29CC
:102F200003F8882C18D032AB1944C31C7B2B01F852
:102F3000882C11D032A90B44011D7B2903F8882C61
:102F40000AD0053032AB7B28194418BFC01801F8ED
:102F5000882C18BF00F8882C620F002362F3070347
:102F6000620D62F30F23620B62F31743620931466D
:102F700062F31F632846E400CDF8BB308DF8BF40F4
:102F800000F076FDDDE90623DDE90076DDE9025497
:102F9000DDE9040193FA83FE089BC8F818E036BA0D
:102FA0002DBA24BA00BA09BA12BA93FA83FCC8F847
:102FB0000060C8F80C50C8F80840099D0A9CC8F881
:102FC0001400C8F810100B980C99C8F81C200E9B20
:102FD0000D9A0F9EC8F824C03FBA2DBA24BA00BA81
:102FE00009BA12BA1BBA36BAC8F80470C8F8205029
:102FF000C8F82C40C8F82800C8F83410C8F83020A9
:10300000C8F83C30C8F8386032B0BDE8F08D3846BA
:1030100068E76D4628460E4600F06AFB241A024611
:103020003119002800F0AE80431E022B40F2B2801E
:1030300010AE4FEA900C3B4634460846013350F838
:10304000047B44F8047B6345F8D322F003039A42DF
:10305000194414D032A818440C7800F8884C581C35
:1030600082420CD932AC204402334C7800F8884CB0
:103070009A4204D932A80344897803F8881C32ABF9
:10308000501C134480217028309203F8881C40F2B1
:1030900084807F286BD832AB1844911C0023802990
:1030A00000F8883C63D032A80144D01C802801F885
:1030B000883C5CD032A90844111D802900F8883C66
:1030C00055D032A80144501D802801F8883C4ED0CC
:1030D00032A90844911D802900F8883C47D032A8C5
:1030E0000144D01D802801F8883C40D032A9084412
:1030F00002F10801802900F8883C38D032A8014448
:1031000002F10900802801F8883C30D032AB184425
:1031100002F10A010023802900F8883C27D032A858
:10312000014402F10B00802801F8883C1FD032A92D
:10313000084402F10C01802900F8883C17D032A81D
:10314000014402F10D00802801F8883C0FD032A91B
:10315000084402F10E01802900F8883C07D032A80B
:103160000144702A01F8883C08BF8DF8BF30314611
:10317000284600F07DFC7A28319C7FF683AEEBE692
:103180001046AFE6802330908DF84030319C01200E
:1031900010AE77E63B4610AE5CE7319C72E600BFAE
:1031A00008C9BCF367E6096A3BA7CA8485AE67BB5A
:1031B0002BF894FE72F36E3CF1361D5F3AF54FA585
:1031C000D182E6AD7F520E511F6C3E2B8C68059B61
:1031D00079217E1319CDE05B6BBD41FBABD9831F19
:1031E0002DE9F04F9FB0A1F108031C93D2E90E34F2
:1031F000CDE91834D2E90C34CDE90034D2E90A34EF
:10320000CDE90234D2E90634CDE91A34D2E90234E8
:10321000CDE90634D2E90434CDE9043400F1800369
:10322000D2E908ABD2E900891D9309909446014682
:1032300005E0CDE90689DDE91689B246BB46F1E82D
:1032400002451C9F09914FEA9A3242EA8B424FEAAB
:103250009A43F7E902010A9243EA8B334FEA9B361D
:103260004FEA9B420C9346EA8A4642EA8A324FEA88
:10327000CB530D920B9643EA5A23CDE916010F93D7
:10328000DDE90C011C974FEACA53DDE90A6743EAFE
:103290005B230E9346404F40DDE90E014FEA187361
:1032A00043EA091370407940109306460F464FEAEF
:1032B0008973DDE9160143EA980313934FEA197302
:1032C00000194FEA887243EA08136941119342EAF0
:1032D0009903CDE916011293DDE90201DDE900232E
:1032E0004FEA496442404B4044EAD814DDE91601F4
:1032F0001594DDE90045801902EA0A024FEA486E9A
:1033000079415440DDE9066703EA0B034EEAD9121E
:103310005D401492DDE9042346EA080647EA0907FE
:10332000324016463B4022181F4645EB0103DDE9BB
:103330001045DDE91201CDE9162344404D40DDE999
:1033400014016040694004460D46DDE9060100EACB
:10335000080001EA090140EA060241EA07031046B3
:10336000DDE918671946DDE9162392197B41DDE98D
:103370001A6700196941B6185F41841841EB0305CB
:10338000DDE90201CDE91645CCE90C01DDE90034A7
:10339000DDE90412CCE90E34CCE90612CDE918348B
:1033A000DDE90423CDE91A23DDE90234DDE9060174
:1033B000CDE90034DDE91634CCE90401CCE9003470
:1033C000CDE904011D9B09999942CCE90AABCCE9EE
:1033D0000289CCE90867CDE902AB7FF42AAF1FB0C0
:1033E000BDE8F08F2DE9F04F4FF0000C8BB0864612
:1033F000A0F1080A6346ACF102040CF1010C0CF0D8
:103400000F000EEBC00204F00F045EF830005268AB
:103410000EEBC401073B5EF8344049684FEA5008A0
:1034200003F00F03070A0EEBC30B48EAC273E60C66
:10343000009347EA0263CD00029346EA41330493C6
:10344000CE0C45EA54730793E50046EA44330593EE
:10345000A60945EA51735408069344EAC073140A56
:103460004FEAD018019344EA006348EA42680393A4
:103470004FEAD219FAE9022346EA8166CDE9082328
:103480008F09DDE90623DDE90401DBE90045504051
:103490005940DDE9082312196B41CDE90823DDE924
:1034A0000045DDE9022370407940DDE908675440BA
:1034B0005D4084EA0804361985EA09056F4132182F
:1034C00047EB0103BCF1100FCAE9002392D10BB006
:1034D000BDE8F08FF0B599B004460E460A460146A5
:1034E0006846FDF74EFB69466846FDF777FB6A467E
:1034F000214608A806F1200504F12007FDF76FFB1F
:103500006A4631466846FDF76AFB39462A4610A8E6
:10351000FDF7F8FA2A4639462846FDF732FB2946D8
:103520003046FDF75BFB6A4608A92046FDF7EAFA3C
:10353000224631463046FDF724FB6A4608A9684614
:10354000FDF71FFB6A4639463846FDF748FB324611
:1035500008A96846FDF715FB6A4629462846FDF787
:103560003EFB3A4629462846FDF70BFB10A9684664
:10357000FDF734FB224669462046FDF702FB08A909
:1035800022460846FDF7FDFA10A908AA0846FDF7ED
:1035900026FB3A4610A93846FDF7F3FA19B0F0BDFC
:1035A0002DE9F0410C4688B005469046014622467A
:1035B0006846FDF7E6FA69466846FDF70FFB6A467E
:1035C0002946284604F12006FDF709FB05F12007EE
:1035D0006A4621466846FDF702FB324630463946C8
:1035E000FDF7CFFA31462046FDF7F8FA2A46214684
:1035F0002046FDF7C6FA6A4621462046FDF7C1FA85
:103600006A4629464046FDF7BCFA424639463846E6
:10361000FDF7E5FA224629466846FDF7B2FA6A4602
:1036200031463046FDF7DBFA3A4631463046FDF783
:10363000A8FA08B0BDE8F0812DE9F04188B00D4648
:10364000074602F12001684607F120069046FDF783
:10365000C5FA6A4669466846FDF754FA3046694637
:10366000FDF7BCFA32463146304605F12004FDF73D
:1036700049FA6A4669466846FDF744FA20464146DB
:10368000FDF7ACFA6A4641463846FDF7A8FA2246ED
:1036900021466846FDF736FA224669466846FDF738
:1036A00031FA69466846114AFDF72CFA6946284600
:1036B000FDF794FA3A4629462846FDF762FA3A465B
:1036C00029462846FDF75DFA2A4639462046FDF789
:1036D00058FA6A4621462046FDF781FA32462146CD
:1036E0002046FDF74EFA08B0BDE8F0810033050032
:1036F0002DE9F04FC7B07F2A159240F2AB810D46FD
:10370000A2F18001D0E900230646CDE90023D6E9E5
:103710000823CDE90A23D6E90A23CDE90223D6E915
:103720000C2321F07F04D0E902ABD6E90689D0E969
:103730000401CDE90C23D6E90E238034CDE90E2314
:10374000CDE904ABCDE91001CDE906892C1914941B
:1037500009962C68AF68D5F80CA0D5F810E02E6B50
:10376000E86913962346DDE900891BBA019300231B
:103770000093AB6BAC691294CDE91689DDE904893D
:103780000493DDE91023DDE900BCCDE91A23DDE96E
:1037900006233946CDE91C239AFA8AFA0BBA5A460F
:1037A00042EA0A02CDE92823DDE90A23CDE9188996
:1037B000D5F81480129E2F6A696AAC6ACDE91E237F
:1037C00098FA88F89EFA8EF35A4642EA0802CDE942
:1037D0002A2300BA33BA5A4642EA0002CDE92C2322
:1037E00009BA3BBA5A4642EA0102CDE92E23EF6AF2
:1037F000139ED5F858E023BA5A463FBA42EA070268
:10380000CDE93023DDE90C236C6BCDE9222324BA0A
:1038100033BA5A4642EA0402DDE90201CDE9322315
:10382000049B1FBACDE920013B46E86B6968DDE9DE
:103830000E6700BA4BEA0002CDE9246709BA5E467A
:10384000674646EA0106CDE934232B6EAA6E286F3F
:103850000493B046EB6C2E6C696C0692B946AF6F60
:103860001290CDE926890A97D5F84890D5F850806E
:103870006F6D0293EC6DE86F6A6EEB6ED5F874A015
:1038800036BAB44609BA029E00BA4FF0000B4BEAB2
:10389000010B029099FA89F10020CDE936BC36BAC5
:1038A00083468C464BEA060BCDE938BCDDE900BC0B
:1038B00098FA88F13FBAD84689469EFA8EF148EACE
:1038C000070824BA5E460F4646EA0406049C12988E
:1038D00021BACDE93C6712BA5E460F4646EA0206B7
:1038E000069A11BA1BBA0A46594641EA030140AB8F
:1038F000C3E900129AFA8AFA03BA5A4642EA0A025D
:10390000CDE93E6742A90A9F5448C1E90023029AC3
:103910003CBA5B4643EA0203CDE93A8916AA9846C7
:10392000A14644AB26A9C3E90089FFF759FC26A8A4
:10393000FFF758FD16AA26A94948FFF751FC26A80B
:10394000FFF750FD16AA26A94648FFF749FC26A80E
:10395000FFF748FD16AA26A94348FFF741FC26A811
:10396000FFF740FD16AA26A94048FFF739FC099C3D
:10397000DDE91623D4E90067B618D4E902AB5F414C
:10398000DDE91834099A13EB0A0344EB0B04DDE973
:103990001A01CDE90434D2E904341B184C41DDE9A5
:1039A0001C899B46A446D2E9063413EB080344EB7A
:1039B0000904CDE90067CDE90634D2E90867DDE9FD
:1039C0001E34F61810466741D2E90A34DDE92012A8
:1039D0005B185441CDE90234D0E90C12DDE9223400
:1039E000C918DDE924896241D0E90E3413EB0803DC
:1039F00044EB09049846A146DDE90034C0E90034EF
:103A0000DDE90434CDE910BCC0E90234CDE90A6730
:103A1000CDE90C12CDE90E891290C0E904BCDDE9B4
:103A200006ABDDE90234C0E90A344C464346C0E93E
:103A30000E34149C8035A542C0E906ABC0E9086786
:103A4000C0E90C127FF485AE159B03F07F0047B0F0
:103A5000BDE8F08F104647B0BDE8F08FC0290500E3
:103A6000402A0500C02A0500402B0500C02B050098
:103A70002DE9F04F0B68D1F808E0D1F80C90D1F89F
:103A800010C08F69D1F82080D1F824A0B7B01BBA3C
:103A90000193002300939EFA8EF599FA89F943EA7F
:103AA00009022B46DDE900450646D1F814E0C86955
:103AB000CDE918239CFA8CF39C469EFA8EFE00BA40
:103AC00022463BBA44EA0E0B42EA000298FA88F515
:103AD0009AFA8AFA0024CDE91C2344EA0A022B460A
:103AE0004868CDE91E23DDE90023CDE91ABCD6E9FB
:103AF0000089D6E902AB00BA42EA0002CDE91623FA
:103B0000D6E90423CDE90689CDE908ABD6E90689D3
:103B1000D6E908ABCDE90A23D6E90A23CDE90C8919
:103B2000CDE90EABD6E90C89D6E90EABD1F828C0A9
:103B3000D1F830E08D6B086C8F6CCDE910239CFAC6
:103B40008CF3039300230293DDE90223CDE912896C
:103B5000D1F82C90D1F850C0D1F8588099FA89F951
:103B600042EA0902CDE920239EFA8EF30393002353
:103B70000293DDE90223D1F834E09EFA8EFE42EA98
:103B80000E02CDE922232BBA039300230293DDE931
:103B90000223CD6BD1F870E02DBA42EA0502CDE9DF
:103BA000242303BA03930023CDE914AB8D6FD1F81E
:103BB00060A0D1F868B0486C0293DDE9022300BA36
:103BC00042EA0002CDE926233BBA03930023029385
:103BD000DDE90223C86C4F6D00BA42EA0002CDE96C
:103BE00028239CFA8CF3039300230293DDE902233C
:103BF0003FBA42EA0702CDE92A23C86DD1F864C072
:103C0000CF6E98FA88F3002299469AFA8AF30393C2
:103C1000029200BA42EA0008DDE902239CFA8CFC19
:103C2000C86F42EA0C02CDE92C899BFA8BF4D1F8DB
:103C30007480DDE900ABCDE92E2300BA2BBA002257
:103C40004E4D42EA000298FA88F1A1463FBA9EFA28
:103C50008EF4CDE934234AEA070806AA4AEA010AA3
:103C6000A34616A92846CDE93089CDE932ABFFF746
:103C7000B7FA16A8FFF7B6FB06AA16A905F1800049
:103C8000FFF7AEFA16A8FFF7ADFB06AA16A905F5D1
:103C90008070FFF7A5FA16A8FFF7A4FB06AA16A9DD
:103CA00005F5C070FFF79CFA16A8FFF79BFB06AA64
:103CB00016A905F50070FFF793FAD6E90023DDE9B0
:103CC0000601D6E90289DDE908AB141843EB0105CA
:103CD00018EB0A0249EB0B03CDE90245DDE90AAB1B
:103CE000CDE90423D6E9043413EB0A0344EB0B04B7
:103CF0009A46A346D6E90623DDE90C451219144677
:103D0000DDE902126B41D6E908781D46C6E90012CA
:103D1000DDE90E23BF1848EB0308DDE90423C6E9FB
:103D20000878C6E90223DDE91089D6E90A2312EBF7
:103D3000080243EB090390469946C6E904ABD6E96D
:103D40000C23DDE912AB12EB0A0243EB0B039246A4
:103D50009B46C6E90645DDE91423D6E90E45A418BD
:103D600000985D4122462B46C6E90A89C6E90CAB9C
:103D7000C6E90E2337B0BDE8F08F00BFC0290500AB
:103D80002DE9F04704462DED048B82B01E46D4E9A0
:103D90000050DDF838A090468946A84202D105F1CE
:103DA000C8006060D4E90410411A00EE101A002720
:103DB000B8EEC00A10EE101A8DED000A11F1814F15
:103DC0000CD2B1F17E5F09DA00EE100A42F656110C
:103DD0002761B8EEC00A61608DED000A6068401B83
:103DE000FDF75EFF9FED309B53EC192BFDF777FE3F
:103DF00041EC180B0098FDF771FF53EC182BFDF701
:103E0000E0FEFDF77EFF00EE105A00EE900A0090F3
:103E1000B8EEC00A20EE200A10EE100AFDF75EFF91
:103E200041EC180B2069FDF73BFF53EC192BFDF714
:103E3000C8FE53EC182BFDF74CFEFDF762FF019016
:103E4000DDED000A9FED1A0A60EE800AC9ED000A56
:103E5000DDED010A20EE800A88ED000A9DED000AE2
:103E6000B5EEC00AF1EE10FA0DD09DED010ADDEDC0
:103E7000000AB1EE400A80EE201ABDEEC10A10EE33
:103E8000100A308000E03780D4E90012501A00B2E6
:103E90008A4201DA404200B2AAF8000002B0BDEC4A
:103EA000048BBDE8F08700000000000000408F4058
:103EB00000007A4470B53A4948828D8B0122032470
:103EC0000223002035B1012D0AD0022D14D0032D7C
:103ED00023D117E0B1F91250002D1EDD8A831CE0BA
:103EE000B1F91250B1F91460B54203DD4D8B0D8369
:103EF0004A8311E0888310E0B1F91250002D0CDAEA
:103F00008C830AE0B1F91250B1F91660B54203DAB8
:103F10004D8B0D834883EDE78B830D8B4E8BB54224
:103F200029D04D8B0D83CD8A0DB188640C65CC6D85
:103F30007CB1012C17D0022C0AD14C8B012C07D15B
:103F400088654A668B66CA650A84086F401C0867E4
:103F500070BD4B8B012BFBD108840A66CA6588654E
:103F60004A668A6670BD4C8B002CFBD18A65486618
:103F70008B66CB6570BDCB6D73B18B6C5B1C8B643A
:103F80008B6CCC6CA342F5D98864C865C883086D76
:103F9000401E08654A6570BD0B6D002BEDD170BDEC
:103FA000D0320020F0B5158F059C258011874FF485
:103FB0007A7110FB01F0576B90FBF7F61660D06A30
:103FC00035181561146B5461906805FB00F1C81732
:103FD00001EB5040C1139161D2F80CC004FB0CF00E
:103FE0004FEAE07C00EB5C4001EBE0302118D0614F
:103FF0002844711A04447C434FF4FA6594FBF5F4A9
:10400000C2E909101462C2E90B101C80F0BD000067
:104010000249C98D401A00B270470000D03200201A
:104020000648C168012908D10021C1608038C26FEB
:104030000349A1F1180000F005B870475033002083
:1040400038380020002A1FDD436800EE102A93FB59
:10405000F2F34B60B8EEC00AD0ED020A80EE801A8F
:1040600000EE102AB8EEC00A81ED021AC36893FB75
:10407000F2F3CB60036993FBF2F30B61D0ED050A19
:1040800080EE801A81ED051A70470000F0B5384ABD
:104090004FF4FA734FF4FA74926E022693634368F6
:1040A000D26B6343846802FB04324FF47A7392FB51
:1040B000F3F32F4A803A002B01DA0023D66690ED05
:1040C000000A2C4C956FB8EEC00A04EB850400255D
:1040D000D4ED000A20EE800A81ED020A4D609FEDCA
:1040E000260A0D6181ED050AC468002C0CDDB2F9C9
:1040F0002C70BC4202DD04200D6037E0B2F92A705A
:10410000BC4202DA0D60D666F0BD0C60B2F92850F0
:10411000C46895FBF4F44C60164C956F203400EEA7
:10412000103A04EB8504B8EEC00AD4ED000A114C35
:1041300020EE800A4034BDEEC00A81ED040A956F7E
:1041400000EE103A04EB8504B8EEC00AD4ED000A84
:1041500060EE800A90ED030AB8EEC00A80EE801A85
:1041600081ED051AD06E0028CED10120D066F0BDB9
:10417000503300205C390020000000002DE9F041A0
:10418000504CA6202DED048BA16E9FED4F0B886146
:1041900051EC100BFDF7B5FD08EE100A18EE100AF1
:1041A000FDF79CFD9FED4A1B53EC112BFDF797FC8F
:1041B000FDF7A7FD08EE900A18EE100AFDF78EFD38
:1041C00041EC190BA06A4000FDF76AFD9FED421B10
:1041D00053EC112BFDF783FC9FED411B53EC112B8E
:1041E000FDF77DFC53EC192BFDF779FCFDF789FDFC
:1041F000D4ED0B0A00EE100A3B4E68EEA00AA6F1C1
:10420000600202F18003C4ED1C0AD4ED0B0A02F136
:10421000200101F1200520EE200AF2EE040A01201F
:1042200084ED1D0A94ED0B0A20EE200A84ED1B0A92
:1042300094ED0B0A86ED000A94ED1B0A82ED000A4C
:1042400094ED1B0A20EE080A83ED000A94ED1C0A87
:1042500081ED000A94ED1D0A85ED000A00EE100ABA
:10426000D4ED1B0A06EB8007B8EEC00A80EE801A78
:1042700087ED001AD2ED000A02EB800780EE801A6B
:1042800087ED001AD3ED000A03EB800780EE801A59
:1042900087ED001AD1ED000A01EB800780EE801A4D
:1042A00087ED001AD5ED000A05EB8007401C80EE73
:1042B000801A082887ED001AD0DBBDEC048BBDE81E
:1042C000F081000050330020736891ED7C3FC53FC2
:1042D000DCF1D1F14B695D4005A3923A019D234089
:1042E00044174154FB211940BC3900202DE9F0410D
:1042F0002A4C606D0126002504F18007012806D0B4
:10430000A06EC0B101280DD0022814D10FE0656560
:1043100007F09AFB224800F045F807F081FBE566BC
:10432000FE6009E007F090FBE683BD6003E012F059
:1043300027FC12F0D3FBA566E18B00290BD01848AF
:10434000B038012909D0022905D1616E00EB0110B6
:10435000C168491CC160BDE8F081616E00EB0111CC
:10436000CA68521CCA60616E00EB01110A68B4F998
:1043700026301A440A60B4F926100029616E00EB59
:10438000011005DD4168B4F9262011444160E2E7DF
:104390008168B4F9262011448160DCE7D032002026
:1043A000203800200021016041609FED040A016176
:1043B00080ED050A80ED020AC16070470000000030
:1043C0002DE9F04700268AB0DFF85091B0464FF44F
:1043D000807501243746069628460BF0C7F938B198
:1043E000D9F80403204203D028460BF0B5F9264340
:1043F0002D1D64007F1CADB2082FEDD34FF4BE74A9
:1044000020460BF0B3F948B120460BF0A5F946F071
:10441000004606AA012100200BF08AF9404D16F053
:10442000FF0F15D00127002437420DD009EB84017E
:10443000D1F81005D1F81015C0F3042055F8242048
:10444000C1F3014102B190477F00641C082CEBD3FB
:10445000002E5FDA4FF0FF30CDF8108054E02819BD
:1044600010F8507F90F9000027F0C008401C3BD0A6
:1044700007A9404609F049FC10B34FEA9719404696
:1044800004F058FD55F820701FB1B9F1030F03D0A7
:1044900006E0B9F1030F27D104A9404609F03DFC1D
:1044A0004FF0A04101EB8800D0F8000706A9C0F347
:1044B000014A404609F029FC18B1BAF1020F03D0B5
:1044C00012E0BAF1030F0FD1B9F1030F08D1BAF11D
:1044D000020F1DD0022140460BF0F1F8761CF6B217
:1044E00017B149464046B847641C042CB7D3002E88
:1044F00010D06A46012100200BF01AF906990098A5
:10450000884207D006900498002634460790A6E714
:104510000321E0E70AB0BDE8F0870000006000403A
:10452000AC4F00201D4810B5406892B01C49CC6DBE
:104530003C21A080BB20E080CC20208160812073C2
:104540006073E0816846FDF7FBF902208DF80000FA
:1045500000208DF8020006208DF803001120ADF830
:1045600040004FF48170ADF83C000FA80990119401
:10457000002269460B4802F0D0FA20B10AA240F6A8
:104580002241FBF747FE064C803CA07B0DF07AF8F9
:10459000217B094801F015FB12B010BD2038002026
:1045A00050330020B43B00202E2E5C5372635C6DB0
:1045B00061696E2E63000000083A002042F210711B
:1045C00090FBF1F390FBF1F201FB13034FF47A71CE
:1045D00093FBF1F3120442EA033290FBF1F301FB87
:1045E0001303642193FBF1F342EA032290FBF1F3FE
:1045F00001FB13030A2193FBF1F342EA031290FB40
:10460000F1F301FB130010437047000070B54FF445
:104610008076304609F050FE114CB50560B1304649
:1046200009F051FE0120C5F80803607920B9012086
:1046300060712168002088474FF48276304609F087
:104640003BFE00280AD0304609F03DFE0220C5F8A6
:1046500008032168BDE870400120084770BD0000D4
:10466000B83500200149024807F0D8BA945000201C
:1046700000C001400149024807F0D0BA9C50002018
:1046800000100240064882B00021016000680090DE
:10469000044800680449C0B2496802B008470000F5
:1046A00000D1004008D50040C8350020024902482A
:1046B000091F096800680847183600202DE9FE43E5
:1046C0004FF4827840460BF023FD4C4F00254C4CB4
:1046D000012600B340460BF023FD94F82E0010B1E4
:1046E00094F82F10D1B18DF80050616801912189A3
:1046F000ADF80810E26832B1218B618362602181DC
:10470000E56010B102E0257400E03E602168684673
:10471000884784F82F5094F82E0060B34FF48077C8
:1047200038460BF0F5FC30B338460BF0F9FC628BE1
:1047300094F82D108A420AD9A2EB010080B260835E
:104740002289A2EB0000626802EB400005E007D17D
:10475000E06828B184F82F6065830BF0C7FC04E0A3
:104760008A4202D184F82F60658340460BF0D8FC62
:104770002248001D06604FF4887738460BF0C8FCCD
:1047800048B138460BF0CCFC257402208DF80000AF
:104790002168684688474FF48A7738460BF0B8FCA2
:1047A00028B138460BF0BCFC2574BDE8FE834FF001
:1047B00000484FF48C7967691DE000BFB7FA87F0B5
:1047C00028FA00F109EB80058F4328460BF0A0FC86
:1047D00088B128460BF0A4FCA5F58C75E8088DF887
:1047E000040045F38000401C8DF800608DF8050042
:1047F000216868468847002FE0D1D6E70070004066
:10480000A4500020F8B51248124E04464FF48C71A3
:104810000BF0C9FF00281AD00025C4F81851D4F8AD
:1048200018010090F07F3446FF2806D0A17F11B117
:104830000AF05DFF01E00AF068FF65772572D4E9B0
:10484000002101B004F10800BDE8F0401047F8BDB8
:10485000003000405850002010B52DED028B8EB076
:104860000446B0EE408A0BF02FFA00BF0BF060F860
:104870000028FBD118EE100AFDF730FA41EC100BBE
:104880000AA153EC102B684600F0CAF90848094900
:104890006B46401AC008032101EB0040224606A1E6
:1048A0000BF06BF90EB0BDEC028B10BD256600005D
:1048B000B0340500B83305002573202573000000CF
:1048C0000BF0C0BEF0B5B84AB8494FF08054136839
:1048D000D4F830010978D4F83421451CC1F3031110
:1048E00006D0844601270025BCF1060F0BD102E05B
:1048F00003F0FF0CF6E7B4F82463DFF8B4C2C6F3A4
:104900000426CCF80060DEB2062E06D1032904D1BD
:10491000DFF8A4C2A74ECCF87460461C04D08446CD
:10492000BCF1060F0BD102E003F0FF0CF8E7D4F85E
:104930004462DFF888C2C6F34236CCF80060DEB2CB
:10494000062E08D1032906D19D4ED6F800C02CF0C2
:10495000807CC6F800C0461C04D08446BCF1060F1B
:104960000CD102E003F0FF0CF8E74FF08046C6F8E8
:104970000C51C6F81051914E361F3560DEB2062E2E
:1049800008D1032906D1DFF834C203260CF1640CE8
:10499000CCF80060DEB2062E11D103290FD1DFF86A
:1049A00024C20526CCF80060864E78363760854EE6
:1049B000083635600CF1040C3F26CCF80060461C2C
:1049C00006D084464FEA0206BCF1060F7ED103E012
:1049D00003F0FF0C0E46F7E7032E7DD0042E7BD0AC
:1049E000794E3668DFF8E4C1CCF80060764E361DAB
:1049F00036680CF1040CCCF80060734E083636684B
:104A00000CF1040CCCF800606F4E0C3636680CF1DB
:104A1000040CCCF800606C4E103636680CF1040CB7
:104A2000CCF80060684E143636680CF1040CCCF8F3
:104A30000060654E18363668DFF890C10CF1200C26
:104A4000CCF80060604E1C3636680CF1040CCCF8D3
:104A500000605D4E203636680CF1040CCCF8006026
:104A6000594E243636680CF1040CCCF80060564ED2
:104A7000283636680CF1040CCCF80060524E2C3607
:104A800036680CF1040CCCF800604F4E30363668B6
:104A9000DFF838C10CF1400CCCF800604A4E3436D7
:104AA00036680CF1040CCCF80060474E3836366896
:104AB0000CF1040CCCF80060434E3C3636680CF127
:104AC000040CCCF80060404E403600E004E036684C
:104AD0000CF1040CCCF80060461C05D04FEA000C29
:104AE000BCF1060F09D102E003F0FF0CF8E7D4F89F
:104AF0005842374E04F04F043460441C03D0034640
:104B0000062B09D101E0DBB2FAE732490B68DB077B
:104B100002D06FF001030B6006280AD1032A08D0E7
:104B2000042A06D0052A04D02B48016841F480618C
:104B3000016023487438016841F470010160BFF3DB
:104B40004F8FBFF36F8F4FF01021D1F80002002874
:104B500003DBD1F80402002822DA204A176020483B
:104B60000368002BFCD01523C1F800320468002C28
:104B7000FCD0C1F8043201680029FCD0156001683E
:104B80000029FCD0BFF34F8F0D48F0380168154A5B
:104B900001F4E06111430160BFF34F8F00BFFDE7F7
:104BA000124911480860F0BDE00F00F0E80F00F076
:104BB000403501400DF0ADBA00C007403C05004053
:104BC000FCED00E0105600400404001020C5004039
:104BD000E40E0040000400403C17004004E50140A2
:104BE00000E401400400FA050090D003DC36002008
:104BF0000148006800470000C035002038B5064C69
:104C000020680025002805D00448406880472560BA
:104C10002068009038BD000000010140D035002020
:104C20000FB4084B10B504A902AA039800F0B0F91C
:104C3000044602A9002000F042FD204610BC5DF8A9
:104C400014FB0000BF56030002E008C8121F08C191
:104C5000002AFAD170477047002001E001C1121FFD
:104C6000002AFBD1704700000121202803DA81408F
:104C70000548014003E0402802DA2038814009B1AC
:104C80000120704700207047FC06FFBD2DE9F84366
:104C9000804643F2020669B969460EF09DFBB042B8
:104CA00004D018B128A2B121FBF7B4FA9DF8000096
:104CB000800746D4002140460EF098FB050040D006
:104CC000112D3ED02F483049401AC708022000EB72
:104CD00007440D2D0AD00B2D1DD0B5421FD12B49F5
:104CE00020464246BDE8F8430AF040BF204642460F
:104CF00027490AF03BFF1321404676DF002820D0E9
:104D00000BF07CFD024601B020464346BDE8F0436F
:104D100020A10AF032BF204642462C49E2E728464D
:104D20000BF06CFD0246012000EB0740434628A132
:104D30000AF023FF2846BDE8F84303A2E021FBF771
:104D400069BABDE8F88300002E2E5C2E2E5C636FDE
:104D50006D706F6E656E74735C626C655C706565BA
:104D6000725F6D616E616765725C706565725F6DC3
:104D7000616E616765725F68616E646C65722E63F7
:104D80000000000000340500B8330500D419050008
:104D90006019050073645F626C655F6761705F64D2
:104DA0006973636F6E6E656374282920726574750C
:104DB000726E6564202573206F6E20636F6E6E5F68
:104DC00068616E646C652025642E0000201A050061
:104DD000417373657274696E672E20706D5F636FC7
:104DE0006E6E5F73656375726528292072657475D0
:104DF000726E6564202573206F6E20636F6E6E5F28
:104E000068616E646C652025642E00002DE9FF5FEB
:104E100082B00021DDE90430020DDDF840B003432B
:104E200018D044F61050A2F2FF32424315141198E4
:104E300001281FD0A5EB0B00401C5FEA000A4FF0D1
:104E400000064E4FDFF83891B046504615D5CAF1EE
:104E5000000413E0119801244AA3012801D16FEA4C
:104E60000B010298119AC0E90031C0E9024206B074
:104E7000BDE8F09FCBF10000DFE704460021404A87
:104E8000491842EB0450CDE9001012E0E00707D0CA
:104E900032463B4640464946FCF721FE804689465D
:104EA00032463B4610461946FCF719FE06460F46A9
:104EB0006410002CEAD1DDE90401DDE90023BAF138
:104EC000000F06DAFCF70BFE42464B46FCF707FEE6
:104ED00005E0FCF776FE42464B46FCF772FE0446C0
:104EE0000E460022284BFDF70DF803D84FF0FF3097
:104EF000014607E00022254B20463146FCF748FDDD
:104F0000FCF7E7FF102409E0002C0ADB0A2200234B
:104F1000FCF7AAFC039B30321A55641E50EA0102CA
:104F2000F2D1641C039AC4F111031444119A012AAA
:104F300003D0012208430DD10AE0084304D0002029
:104F40004FF0110B119072E7A3EB0B056D1E0DE0F6
:104F50005B4504DD4FF0000205F1010504E003DAD2
:104F60004FF00002A5F10105002AECD0029811993A
:104F7000C0E90231C0E9004579E7000000001440B3
:104F80000000F03F300000000000F0430000E03F70
:104F90002DE9FF4F95B09B468946064600250FE256
:104FA000252877D100242746F84A0121059400E0FE
:104FB000044316F8013F203B01FA03F01042F7D1F9
:104FC00030782A2811D06FF02F033078A0F130020A
:104FD000092A16D8059A44F0020402EB820203EB78
:104FE00042021044761C0590EFE759F8042B059215
:104FF000002A03DA504244F40054059044F00204BD
:10500000761C30782E2816D116F8010F44F00404CF
:105010002A280DD06FF02F023078A0F13003092B31
:1050200009D807EB870302EB4303C718761CF3E7A5
:1050300059F8047B761C30786C280FD006DC4C289D
:1050400017D068280DD06A2814D104E0742810D035
:105050007A280FD10DE044F400140AE044F48014DF
:1050600001E044F440147278824202D104F58014C5
:10507000761C761C307866280BD013DC582877D045
:1050800009DC002875D04528F6D04628F4D04728FA
:105090001AD19DE118E0632835D0642879D06528BD
:1050A00012D195E1702873D008DC6728F1D0692807
:1050B0006FD06E280DD06F2806D1B5E073282CD0A4
:1050C000752875D0782874D05A46179990476D1C6A
:1050D00075E1C4F30250022809D003280DD0D9F895
:1050E000001004280DD00D6009F1040967E1D9F81A
:1050F0000010EA17C1E90052F6E7D9F800100D8058
:10510000F2E70D70F0E719F8041B8DF8001000208D
:105110008DF80100EA46012003E059F804AB4FF096
:10512000FF3061074FF0000102D40DE008F10101EA
:105130008846B9420FDA8045F8DB1AF808100029D2
:10514000F4D108E008F1010188468142FADB1AF83F
:1051500008100029F6D105985B46A0EB0807214608
:105160003846179A00F094FA284400EB080507E047
:105170004DE029E10DE01AF8010B5A4617999047C6
:10518000B8F10108F7D25B4621463846179A13E179
:1051900042E00A220092C4F302524FF0000A022AAF
:1051A00008D059F804CB032A4FEAEC710AD00DE07D
:1051B00029E02AE009F1070121F00702F2E802C123
:1051C000914609E00FFA8CFC4FEAEC71042A03D1F6
:1051D0004FFA8CFC4FEAEC71002907DA0A460021ED
:1051E000DCF1000C61EB02012D2202E0220504D566
:1051F0002B228DF80420012203E0E20701D02022B7
:10520000F7E7904659E00A2102E010220DE0102154
:105210004FF0000A00910BE010224FF0000A44F01A
:1052200004040827009203E008224FF0000A0092CD
:10523000C4F30252022A05D059F804CB0021032AF4
:1052400008D009E009F1070121F00702F2E802C1E4
:10525000914605E01FFA8CFC042A01D10CF0FF0CEA
:105260004FF00008220728D5702806D0009B83F055
:10527000100353EA0A0305D00EE040228DF8042003
:10528000012208E05CEA010206D030228DF80420F9
:105290008DF8050002229046009B83F0080353EA34
:1052A0000A030AD15CEA010201D1620705D5302266
:1052B0008DF804204FF001087F1E582804D034A038
:1052C00003900EA802900DE036A0F9E75346604621
:1052D000009AFCF7C9FA84460398825C0298401E43
:1052E000029002705CEA0100F0D1029806A9081A47
:1052F00000F1200A600702D524F4803400E0012781
:10530000574502DDA7EB0A0000E0002000EB0A0190
:10531000009005984144401A0590E00306D45B468E
:105320002146179A059800F0B3F90544002706E0D6
:1053300001A85A46C05D179990476D1C7F1C4745D0
:10534000F6DBE0030CD55B462146179A059800F082
:105350009FF9054404E030205A46179990476D1C88
:105360000099481E00900029F5DC08E00298029997
:105370005A460078491C0291179990476D1CBAF162
:105380000001AAF1010AF1DC65E100000928010031
:1053900030313233343536373839616263646566AB
:1053A000000000003031323334353637383941426D
:1053B000434445460000000000F058F90544761CBF
:1053C000307800287FF4ECAD19B02846BDE8F08FA6
:1053D000620700D4062709F1070222F0070CFCE857
:1053E0000223E14603F000485FEA080C02D00FF206
:1053F000702C0DE05FEA045C02D50FF2682C07E028
:105400005FEAC47C02D00FF2602C01E0AFF2700CB6
:105410004FF0FF3823F00043CDF850C065280CD082
:1054200006DC452809D046281DD047283DD13DE05F
:10543000662818D067287ED138E00021112F01DBC3
:10544000112000E0781CCDE9000106A90EA8FFF7A5
:10545000DDFCDDE90F010E9A03910021009207F1B6
:10546000010A04914DE04FF000400097CDE9011092
:1054700006A90EA8FFF7CAFCDDE90F0203920E9BF6
:1054800011990022DDF80CA00093049211B9791C47
:1054900000EB010AB7EB0A0004D4C0F1FF3007F1BA
:1054A000010A0490AAEB0700019044E0012F00DA02
:1054B00001270021112F01DD112000E03846CDE940
:1054C000000106A90EA8FFF7A1FCDDE90F010E9A65
:1054D0000391002104910092BA4621070CD403994C
:1054E000514500DA8A46BAF1010F05DD009AAAF1AA
:1054F0000101515C302908D0B84202DA10F1040FE2
:1055000006DA0121CDE9011015E0AAF10101E9E770
:10551000002805DC049901440491AAEB000102E093
:10552000411C514500DD8A460499401A401C0190F7
:105530004FF000400290200704D40198504501DB51
:10554000CDF8048000208DF84F0002980DF14F0730
:10555000B0F1004F25D02B200E9002984FF002089A
:1055600000280CDA404202902D200E9007E00A211C
:105570000298FCF7E2FB3031029007F8011DB8F108
:105580000001A8F10108F2DC02980028EFD1791E91
:105590000E980870307800F0200040F0450007F8C1
:1055A000020D12A8C01B00F107081498007800B182
:1055B000012000EB0A01019801EBE07105984144DC
:1055C000401A401E0590E00306D45B462146179A18
:1055D000059800F05DF805441498007818B15A4613
:1055E000179990476D1CE00324D55B462146179A16
:1055F000059800F04DF805441CE00498002807DBEE
:10560000DDE90301884203DD0098405C179901E061
:10561000179930205A469047049805F10105401C1F
:1056200004900198401E019004D12E205A461799EB
:1056300090476D1CBAF10001AAF1010ADDDC05E01A
:1056400017F8010B5A46179990476D1CB8F10001E5
:10565000A8F10108F4DC5B462146179A0598ABE6F1
:105660002D0000002B000000200000002DE9F0417B
:10567000044600251E461746880404D405E0394632
:105680002020B0476D1C641EF9D52846BDE8F08186
:105690002DE9F041044600251E469046C80301D579
:1056A000302700E02027880404D505E0414638462D
:1056B000B0476D1C641EF9D52846BDE8F0810A6824
:1056C000531C0B601070704730B5324BD86F0828F0
:1056D0005ED23148046803F18002116801EB410594
:1056E00000F17C0141F835404468156805EB45053B
:1056F00001EBC5056C6090ED020A146804EB4404EC
:1057000001EBC40484ED020AC468156805EB450585
:1057100001EBC505EC600469156805EB450501EB77
:10572000C5052C6190ED050A146804EB440401EBF7
:10573000C40181ED050A00F130010C6805682C44B4
:105740000C604C6845682C444C6091ED020AD0ED29
:10575000020A30EE200A81ED020ACC68C5682C44AA
:10576000CC600C6905692C440C6191ED050AD0ED03
:10577000050A30EE200A81ED050A1068401C106011
:105780001068082801D300201060D86F401CD8672B
:1057900030BD0000D03200202038002030B58FB05E
:1057A00005461C216846FCF7CBF89DF80000002454
:1057B00020F0080040F002008DF8000001940394EE
:1057C00004940594069495F86A008DF836004BF61B
:1057D0005C60ADF834000C949DF83000142120F08A
:1057E0000F00401C20F0F00010308DF830009DF8C4
:1057F000310020F00F00401C20F0F00010308DF838
:1058000031009DF8320020F00600801C20F01000CE
:1058100040F009008DF8320007A8FCF791F80DA8B8
:1058200007900CA808900120ADF824000420ADF8E2
:105830002640ADF828000B94288805F14A0307AAF2
:105840006946AADF0FB030BD30B58FB005461C21C8
:105850006846FCF775F89DF80000002420F0080069
:1058600040F002008DF80000019403940494059424
:10587000069495F86A008DF8360048F2FE40ADF8BF
:1058800034000C949DF83000142120F00F00401CCF
:1058900020F0F00010308DF830009DF8310020F03D
:1058A0000F00401C20F0F00010308DF831009DF802
:1058B000320020F00600801C20F0100040F00900AB
:1058C0008DF8320007A8FCF73BF80DA807900CA84C
:1058D00008900120ADF824000420ADF82640ADF872
:1058E00028000B94288805F1420307AA6946AADF1D
:1058F0000FB030BD10B560B159B102780B785208C5
:10590000B2EB530F05D10622401C491CFCF72AF8C4
:1059100008B1002010BD012010BD800701D000207B
:10592000704701207047C3688B4206D81144006954
:10593000491E814201D8012070470020704790F82D
:105940002400012801D01F207047EE20704710B5B9
:1059500001220221002002F077FE08B1072810D1B1
:1059600007220221012002F06FFE08B1072808D1AA
:1059700000210A22084602F067FE08B1072800D17C
:10598000002010BD00B5ABB0AC216846FBF7D8FFD6
:1059900002208DF8000000218DF802100622ADF8DB
:1059A00010008DF803201A48059001208DF87C0026
:1059B0004FF49670CDE922011549AA20AC318880B8
:1059C000C8800881488108734873C88111482990AC
:1059D00001F11200189069460F4801F0F1F820B16A
:1059E0000EA240F6B131FAF715FC0B48042290F8EC
:1059F0005410012077DF20B108A240F6B431FAF745
:105A000009FC0121044801F0D8F82BB000BD0000CA
:105A1000DE33002015170400B43B00202E2E5C530B
:105A200072635C6D61696E2E6300000010B588B111
:105A30000F481049401AC008032101EB00400EA195
:105A40000AF090F80EF09EFA002810D00EA24FF443
:105A5000407108E00321104801F084F9002806D0C5
:105A600009A240F21131BDE81040FAF7D3BB10BDD6
:105A7000B0340500B8330500457261736520626F6C
:105A80006E647321000000002E2E5C5372635C6D07
:105A900061696E2E63000000B43B002070B58CB0CD
:105AA00015460E4600236C46C3F10F01415CE154DC
:105AB0005B1C102BF8D30D2104F11000FBF740FF05
:105AC0000020C0F10F02315C2244401C11740328F5
:105AD000F7D3684646DF0020C0F10F01214491F85A
