:020000040003F7
:1000000078960020E1030300E9030300EB030300FB
:10001000ED030300EF030300F10303000000000001
:10002000000000000000000000000000F3030300D7
:10003000F503030000000000F7030300F9030300C9
:10004000113E0300FB030300854703000940030042
:10005000FB030300FB030300D13B0300C13E03008D
:10006000FB030300FB030300FB030300FB0303008C
:10007000FB030300893E0300FB030300FB030300B3
:1000800091470300B13E0300FB030300FB030300A1
:10009000FB030300FB03030055440300FB030300C1
:1000A000FB030300FB030300FB030300FB0303004C
:1000B000693E0300FB030300000000000000000095
:1000C000FB030300793E0300FB030300FB03030073
:1000D000FB030300FB030300FB030300000000001D
:1000E0000000000000000000000000000000000010
:1000F0000000000000000000000000000000000000
:1001000000000000000000000000000000000000EF
:1001100000000000000000000000000000000000DF
:1001200000000000000000000000000000000000CF
:1001300000000000000000000000000000000000BF
:1001400000000000000000000000000000000000AF
:10015000000000000000000000000000000000009F
:10016000000000000000000000000000000000008F
:10017000000000000000000000000000000000007F
:10018000000000000000000000000000000000006F
:10019000000000000000000000000000000000005F
:1001A000000000000000000000000000000000004F
:1001B000000000000000000000000000000000003F
:1001C000000000000000000000000000000000002F
:1001D000000000000000000000000000000000001F
:1001E000000000000000000000000000000000000F
:1001F00000000000000000000000000000000000FF
:10020000DFF810D001F0BEFD004800470DB6030036
:10021000AFF300807896002000B583B00290009183
:10022000019244F2010071466A4604F0C1FE03B037
:1002300000BD000030B450E8012F93B2C4892344BC
:100240008489A34228BF1B1B0489A34202BFBFF3BA
:100250002F8F002007E0C3EA020340E80134002C9E
:10026000E9D14FF001000A6030BC704750E8012F1F
:10027000C2EA024240E801210029F7D1704730B4B8
:1002800050E8022F1FFAA2F3C488A34202BFBFF3B3
:100290002F8F00200DE0C48923448489A34228BF06
:1002A0001B1BC2EA034340E80234002CE8D14FF0A4
:1002B00001000A6030BC704750E8022FC2EA2242B7
:1002C00040E802210029F7D17047034653E8022F86
:1002D000D988B2EB324F4FF0000017BF92B241EA1B
:1002E000014142EA014104E05A68B2EB324F08BFD3
:1002F000012043E80212002AE8D1704730B40446D6
:1003000054E8000F0D4644E80053002BF8D1156067
:1003100030BC704730B4044654E8000F40EA010591
:1003200044E80053002BF7D1156030BC704730B45F
:10033000044654E8000F00EA010544E80053002B8E
:10034000F7D1156030BC704730B4044654E8000F54
:1003500080EA010544E80053002BF7D1156030BC5A
:10036000704730B4044654E8000F00EB010544E840
:100370000053002BF7D1156030BC704730B40446F1
:1003800054E8000FA0EB010544E80053002BF7D11F
:10039000156030BC704770B404464FF0000054E85C
:1003A000006F0D68AE4207BF44E80023012044E817
:1003B00000630E60002B1CBF0020F0E770BC70478C
:1003C00030B4044654E8000F88422CBF451A054655
:1003D00044E80053002BF5D1156030BC7047000095
:1003E0000648804706480047FEE7FEE7FEE7FEE7CF
:1003F000FEE7FEE7FEE7FEE7FEE7FEE759440300FF
:100400000102030070B491E87800B2E802105B18B2
:1004100054EB0C04B2E802104D4156EB0C0680E898
:1004200078008041013070BC704770B491E878006A
:10043000B2E802105B1A74EB0C04B2E802108D41B2
:1004400076EB0C0680E878008041404270BC704733
:100450002DE9F00791E8F807B2E802105B1854EBB9
:100460000C04B2E802104D4156EB0C06B2E8021043
:100470004F4158EB0C08B2E8021059EB01095AEB56
:100480000C0A80E8F80780410130BDE8F0077047AA
:100490002DE9F00791E8F807B2E802105B1A74EB57
:1004A0000C04B2E802108D4176EB0C06B2E80210A3
:1004B0008F4178EB0C08B2E8021079EB01097AEB76
:1004C0000C0A80E8F80780414042BDE8F007704719
:1004D0002DE9F007524290E87800B1E88007174014
:1004E000DB1918EA020854EB080419EA020955EB73
:1004F00009051AEA020A56EB0A0678C090E8780065
:10050000B1E8800717407B4118EA020854EB080461
:1005100019EA020955EB09051AEA020A56EB0A061E
:1005200078C080410130BDE8F00770472DE9F00741
:10053000524290E87800B1E880071740DB1B18EAC8
:10054000020874EB080419EA020975EB09051AEAB6
:10055000020A76EB0A0678C090E87800B1E88007D6
:100560001740BB4118EA020874EB080419EA0209B3
:1005700075EB09051AEA020A76EB0A0678C0804193
:100580004042BDE8F007704790E8300091E8C000B5
:10059000A31B1340E41AF618EB1B1340ED1AFF18C7
:1005A00030C0C0C17047F0B55242FFF7EDFFFFF712
:1005B000EBFFFFF7E9FFFFF7E7FFF0BD2DE9F007DD
:1005C0003AC91668A1FB069A4FF0000CE3FB06AC93
:1005D0004FF00007E4FB06C74FF00008E5FB067884
:1005E00040F8049B56684FF00009E1FB06A91CEB9C
:1005F000090C4FF0000949EB0909E3FB06C917EBA9
:1006000009074FF0000949EB0909E4FB067918EBEB
:1006100009084FF0000949EB0909E5FB068940F894
:1006200004AB96684FF0000AE1FB06CA17EB0A0715
:100630004FF0000A4AEB0A0AE3FB067A18EB0A08B5
:100640004FF0000A4AEB0A0AE4FB068A19EB0A0992
:100650004FF0000A4AEB0A0AE5FB069A40F804CB81
:10066000D6684FF0000CE1FB067C18EB0C084FF04D
:10067000000C4CEB0C0CE3FB068C19EB0C094FF057
:10068000000C4CEB0C0CE4FB069C1AEB0C0A4FF034
:10069000000C4CEB0C0CE5FB06AC80E88017BDE8C9
:1006A000F00770470A462DE9F04F41EC140A92EC2E
:1006B000080A1EC910EE100AA1FB00784FF00009CD
:1006C000E2FB00894FF0000AE3FB009A4FF0000BB9
:1006D000E4FB00AB12EE100A4FF0000CE1FB00BC93
:1006E0004FF0000EE2FB00CE4FF00005E3FB00E50B
:1006F0004FF00006E4FB005605EE107A10EE900A6B
:100700004FF00007E1FB008719EB07094FF00007E6
:1007100047EB0707E2FB00971AEB070A4FF00007C9
:1007200047EB0707E3FB00A71BEB070B4FF00007A6
:1007300047EB0707E4FB00B712EE900A1CEB070C2F
:100740004FF0000747EB0707E1FB00C71EEB070E62
:100750004FF0000747EB0707E2FB00E7ED194FF00A
:10076000000747EB0707E3FB0057F6194FF00007B8
:1007700047EB0707E4FB006705EE908A11EE100ACD
:100780004FF00008E1FB00981AEB080A4FF0000850
:1007900048EB0808E2FB00A81BEB080B4FF0000831
:1007A00048EB0808E3FB00B81CEB080C4FF000080E
:1007B00048EB0808E4FB00C813EE100A1EEB080E15
:1007C0004FF0000848EB0808E1FB00E815EB0805CE
:1007D0004FF0000848EB0808E2FB005816EB08064B
:1007E0004FF0000848EB0808E3FB006817EB080728
:1007F0004FF0000848EB0808E4FB007806EE109A7A
:1008000011EE900A4FF00009E1FB00A91BEB090B68
:100810004FF0000949EB0909E2FB00B91CEB090C98
:100820004FF0000949EB0909E3FB00C91EEB090E73
:100830004FF0000949EB0909E4FB00E913EE900AC7
:1008400015EB09054FF0000949EB0909E1FB0059D7
:1008500016EB09064FF0000949EB0909E2FB0069B4
:1008600017EB09074FF0000949EB0909E3FB007991
:1008700018EB09084FF0000949EB0909E4FB00896E
:1008800006EE90AA14EE901A01F110011EC910EEA6
:10089000100A4FF0000AE1FB00BA1CEB0A0C4FF003
:1008A000000A4AEB0A0AE2FB00CA1EEB0A0E4FF0EE
:1008B000000A4AEB0A0AE3FB00EA15EB0A054FF0CF
:1008C000000A4AEB0A0AE4FB005A12EE100A16EB81
:1008D0000A064FF0000A4AEB0A0AE1FB006A17EB2E
:1008E0000A074FF0000A4AEB0A0AE2FB007A18EB0B
:1008F0000A084FF0000A4AEB0A0AE3FB008A19EBE8
:100900000A094FF0000A4AEB0A0AE4FB009A07EED4
:1009100010BA10EE900A4FF0000BE1FB00CB1EEB7B
:100920000B0E4FF0000B4BEB0B0BE2FB00EB15EB50
:100930000B054FF0000B4BEB0B0BE3FB005B16EBD7
:100940000B064FF0000B4BEB0B0BE4FB006B12EEB6
:10095000900A17EB0B074FF0000B4BEB0B0BE1FB77
:10096000007B18EB0B084FF0000B4BEB0B0BE2FB83
:10097000008B19EB0B094FF0000B4BEB0B0BE3FB60
:10098000009B1AEB0B0A4FF0000B4BEB0B0BE4FB3D
:1009900000AB07EE90CA11EE100A4FF0000CE1FB1D
:1009A00000EC15EB0C054FF0000C4CEB0C0CE2FBD3
:1009B000005C16EB0C064FF0000C4CEB0C0CE3FB50
:1009C000006C17EB0C074FF0000C4CEB0C0CE4FB2D
:1009D000007C13EE100A18EB0C084FF0000C4CEBE7
:1009E0000C0CE1FB008C19EB0C094FF0000C4CEBEC
:1009F0000C0CE2FB009C1AEB0C0A4FF0000C4CEBC9
:100A00000C0CE3FB00AC1BEB0C0B4FF0000C4CEBA5
:100A10000C0CE4FB00BC08EE10EA11EE900A4FF05B
:100A2000000EE1FB005E16EB0E064FF0000E4EEBE3
:100A30000E0EE2FB006E17EB0E074FF0000E4EEBB2
:100A40000E0EE3FB007E18EB0E084FF0000E4EEB8F
:100A50000E0EE4FB008E13EE900A19EB0E094FF018
:100A6000000E4EEB0E0EE1FB009E1AEB0E0A4FF04D
:100A7000000E4EEB0E0EE2FB00AE1BEB0E0B4FF02A
:100A8000000E4EEB0E0EE3FB00BE1CEB0E0C4FF007
:100A9000000E4EEB0E0EE4FB00CE14EE100AA0EC9E
:100AA000075A80E8E05FBDE8F08F00BF30B44FF038
:100AB000000310F8014B11F8015B013A84EA0504C8
:100AC00043EA0403F5D1A3F101034FEAD37030BC2C
:100AD00070474FF0000310F8012B013943EA02037D
:100AE000F9D1A3F101034FEAD370704711F8013B2C
:100AF00000F8013B013AF9D17047002200F8012BC0
:100B00000139FBD1704700BF2DE9F00791E8F807E4
:100B1000B2E802105B1854EB0C04B2E802104D412D
:100B200056EB0C06B2E802104F4158EB0C08B2E845
:100B3000021059EB01095AEB0C0A8941B3F1FF335A
:100B400074F1FF3475F1FF3576F1000677F1000797
:100B500078F1000879F101097AF1FF3A51F10001C9
:100B60004A425B184C414D4156F1000657F10007CF
:100B700058F1000859EB02095AEB010A80E8F8071E
:100B8000BDE8F00770472DE9F00791E8F807B2E8F3
:100B900002105B1A74EB0C04B2E802108D4176EB84
:100BA0000C06B2E802108F4178EB0C08B2E8021094
:100BB00079EB01097AEB0C0A89414A425B184C41F6
:100BC0004D4156F1000657F1000758F1000859EB66
:100BD00002095AEB010A80E8F807BDE8F007704700
:100BE0000A462DE9F04F41EC140A92EC080A1EC99E
:100BF00010EE100AA1FB00784FF00009E2FB00891B
:100C00004FF0000AE3FB009A4FF0000BE4FB00AB4F
:100C100012EE100A4FF0000CE1FB00BC4FF0000E8A
:100C2000E2FB00CE4FF00005E3FB00E54FF00006CD
:100C3000E4FB005605EE107A10EE900A4FF0000724
:100C4000E1FB008719EB07094FF0000747EB0707A7
:100C5000E2FB00971AEB070A4FF0000747EB070784
:100C6000E3FB00A71BEB070B4FF0000747EB070761
:100C7000E4FB00B712EE900A1CEB070C4FF00007E4
:100C800047EB0707E1FB00C71EEB070E4FF000071D
:100C900047EB0707E2FB00E7ED194FF0000747EBD2
:100CA0000707E3FB0057F6194FF0000747EB07076C
:100CB000E4FB006705EE908A11EE100A4FF0000881
:100CC000E1FB00981AEB080A4FF0000848EB08080F
:100CD000E2FB00A81BEB080B4FF0000848EB0808EC
:100CE000E3FB00B81CEB080C4FF0000848EB0808C9
:100CF000E4FB00C813EE100A1EEB080E4FF00008CC
:100D000048EB0808E1FB00E815EB08054FF0000888
:100D100048EB0808E2FB005816EB08064FF0000805
:100D200048EB0808E3FB006817EB08074FF00008E2
:100D300048EB0808E4FB007806EE109A11EE900AE2
:100D40004FF00009E1FB00A91BEB090B4FF0000974
:100D500049EB0909E2FB00B91CEB090C4FF0000953
:100D600049EB0909E3FB00C91EEB090E4FF000092E
:100D700049EB0909E4FB00E913EE900A15EB0905BC
:100D80004FF0000949EB0909E1FB005916EB090690
:100D90004FF0000949EB0909E2FB006917EB09076D
:100DA0004FF0000949EB0909E3FB007918EB09084A
:100DB0004FF0000949EB0909E4FB008906EE90AA0F
:100DC00014EE901A01F110011EC910EE100A4FF036
:100DD000000AE1FB00BA1CEB0A0C4FF0000A4AEBD8
:100DE0000A0AE2FB00CA1EEB0A0E4FF0000A4AEBA9
:100DF0000A0AE3FB00EA15EB0A054FF0000A4AEB8A
:100E00000A0AE4FB005A12EE100A16EB0A064FF02B
:100E1000000A4AEB0A0AE1FB006A17EB0A074FF0E7
:100E2000000A4AEB0A0AE2FB007A18EB0A084FF0C4
:100E3000000A4AEB0A0AE3FB008A19EB0A094FF0A1
:100E4000000A4AEB0A0AE4FB009A07EE10BA10EE19
:100E5000900A4FF0000BE1FB00CB1EEB0B0E4FF0A6
:100E6000000B4BEB0B0BE2FB00EB15EB0B054FF014
:100E7000000B4BEB0B0BE3FB005B16EB0B064FF091
:100E8000000B4BEB0B0BE4FB006B12EE900A17EB25
:100E90000B074FF0000B4BEB0B0BE1FB007B18EB50
:100EA0000B084FF0000B4BEB0B0BE2FB008B19EB2D
:100EB0000B094FF0000B4BEB0B0BE3FB009B1AEB0A
:100EC0000B0A4FF0000B4BEB0B0BE4FB00AB07EEF8
:100ED00090CA11EE100A4FF0000CE1FB00EC15EB8C
:100EE0000C054FF0000C4CEB0C0CE2FB005C16EB1D
:100EF0000C064FF0000C4CEB0C0CE3FB006C17EBFA
:100F00000C074FF0000C4CEB0C0CE4FB007C13EED8
:100F1000100A18EB0C084FF0000C4CEB0C0CE1FB2A
:100F2000008C19EB0C094FF0000C4CEB0C0CE2FBA5
:100F3000009C1AEB0C0A4FF0000C4CEB0C0CE3FB82
:100F400000AC1BEB0C0B4FF0000C4CEB0C0CE4FB5F
:100F500000BC08EE10EA11EE900A4FF0000EE1FB23
:100F6000005E16EB0E064FF0000E4EEB0E0EE2FB8F
:100F7000006E17EB0E074FF0000E4EEB0E0EE3FB6C
:100F8000007E18EB0E084FF0000E4EEB0E0EE4FB49
:100F9000008E13EE900A19EB0E094FF0000E4EEB87
:100FA0000E0EE1FB009E1AEB0E0A4FF0000E4EEB08
:100FB0000E0EE2FB00AE1BEB0E0B4FF0000E4EEBE5
:100FC0000E0EE3FB00BE1CEB0E0C4FF0000E4EEBC2
:100FD0000E0EE4FB00CE53EC172A18EE104A12EB6B
:100FE0000A0253EB0B0354EB0C0455EB0E050020E7
:100FF00040F1000012EB0B0253EB0C0354EB0E0418
:1010000055EB0E0546410020474158EB000859EBCF
:101010000A0940F10000B2EB0E0273F1000374F113
:10102000000475EB0A0576EB0B0677EB0C0778EB03
:101030000A0879EB0C0960F10000B5EB0B0576EBC3
:101040000C0677EB0E0778EB0B0879EB0E0960F1D5
:1010500000005FEAE07C7FEA0C0CDCF1000EB2EBF2
:101060000C0273EB0C0374EB0C0475F1000576F1C4
:10107000000677F1000778EB0E0879EB0C0960F1B8
:1010800000005FEAE07CDCF1000E12EB0C0253EB97
:101090000C0354EB0C0455F1000556F1000657F112
:1010A000000758EB0E0859EB0C0940F100005FEA0D
:1010B000E07CDCF1000E12EB0C0253EB0C0354EB62
:1010C0000C0455F1000556F1000657F1000758EBE6
:1010D0000E0859EB0C095BEC15AA51EC160A1AEB39
:1010E000060A5BEB070B50EB080051EB09015FF0C0
:1010F000000C4CF1000C1AEB070A5BEB080B50EBF1
:10110000090051EB090152EB0C025FF0000C53EBAC
:101110000C0354EB0C0475414CF1000CBAEB090ABA
:101120007BF1000B70F10000B141BA4173EB080391
:10113000B44175EB08056CF1000CC91B72EB080299
:1011400073EB0903BC4175EB09056CF1000C5FEA18
:10115000EC787FEA0808D8F10009BAEB080A7BEBC3
:10116000080B70EB080071F1000172F1000273F1DD
:10117000000374EB090475EB08056CF1000C5FEAE1
:10118000EC78D8F100091AEB080A5BEB080B50EB7E
:10119000080051F1000152F1000253F1000354EB39
:1011A000090455EB08054CF1000C5FEAEC78D8F126
:1011B00000091AEB080A5BEB080B50EB080051F131
:1011C000000152F1000253F1000354EB090455EB06
:1011D000080514EE107AA7E8000C87E83F00BDE888
:1011E000F08F00BF2DE9F00791E8F807B2E8021090
:1011F0005B1854EB0C04B2E802104D4156EB0C06A0
:10120000B2E802104F4158EB0C08B2E8021059EB5B
:1012100001095AEB0C0A4FF0260261EB010122EAA8
:1012200001015B1854F1000455F1000556F1000668
:1012300057F1000758F1000859F100095AF1000A66
:1012400061EB010122EA01010B4480E8F807BDE8E7
:10125000F00770472DE9F00791E8F807B2E80210AF
:101260005B1A74EB0C04B2E802108D4176EB0C06AD
:10127000B2E802108F4178EB0C08B2E8021079EB6B
:1012800001097AEB0C0A4FF0260261EB010102EA38
:1012900001015B1A74F1000475F1000576F1000696
:1012A00077F1000778F1000879F100097AF1000A76
:1012B00061EB010102EA0101A3EB010380E8F807F9
:1012C000BDE8F00770470A462DE9F04F41EC140ADB
:1012D00092EC080A1EC910EE100AA1FB00784FF02C
:1012E0000009E2FB00894FF0000AE3FB009A4FF08F
:1012F000000BE4FB00AB12EE100A4FF0000CE1FB18
:1013000000BC4FF0000EE2FB00CE4FF00005E3FB07
:1013100000E54FF00006E4FB005605EE107A10EEF3
:10132000900A4FF00007E1FB008719EB07094FF027
:10133000000747EB0707E2FB00971AEB070A4FF09D
:10134000000747EB0707E3FB00A71BEB070B4FF07A
:10135000000747EB0707E4FB00B712EE900A1CEB0F
:10136000070C4FF0000747EB0707E1FB00C71EEB38
:10137000070E4FF0000747EB0707E2FB00E7ED1908
:101380004FF0000747EB0707E3FB0057F6194FF054
:10139000000747EB0707E4FB006705EE908A11EEB4
:1013A000100A4FF00008E1FB00981AEB080A4FF012
:1013B000000848EB0808E2FB00A81BEB080B4FF005
:1013C000000848EB0808E3FB00B81CEB080C4FF0E2
:1013D000000848EB0808E4FB00C813EE100A1EEBF7
:1013E000080E4FF0000848EB0808E1FB00E815EB99
:1013F00008054FF0000848EB0808E2FB005816EB20
:1014000008064FF0000848EB0808E3FB006817EBFC
:1014100008074FF0000848EB0808E4FB007806EEE8
:10142000109A11EE900A4FF00009E1FB00A91BEBA6
:10143000090B4FF0000949EB0909E2FB00B91CEB6D
:10144000090C4FF0000949EB0909E3FB00C91EEB49
:10145000090E4FF0000949EB0909E4FB00E913EE1E
:10146000900A15EB09054FF0000949EB0909E1FB6A
:10147000005916EB09064FF0000949EB0909E2FB98
:10148000006917EB09074FF0000949EB0909E3FB75
:10149000007918EB09084FF0000949EB0909E4FB52
:1014A000008906EE90AA14EE901A01F110011EC9EF
:1014B00010EE100A4FF0000AE1FB00BA1CEB0A0C18
:1014C0004FF0000A4AEB0A0AE2FB00CA1EEB0A0EC2
:1014D0004FF0000A4AEB0A0AE3FB00EA15EB0A05A3
:1014E0004FF0000A4AEB0A0AE4FB005A12EE100A17
:1014F00016EB0A064FF0000A4AEB0A0AE1FB006A03
:1015000017EB0A074FF0000A4AEB0A0AE2FB007ADF
:1015100018EB0A084FF0000A4AEB0A0AE3FB008ABC
:1015200019EB0A094FF0000A4AEB0A0AE4FB009A99
:1015300007EE10BA10EE900A4FF0000BE1FB00CB63
:101540001EEB0B0E4FF0000B4BEB0B0BE2FB00EB1B
:1015500015EB0B054FF0000B4BEB0B0BE3FB005BAC
:1015600016EB0B064FF0000B4BEB0B0BE4FB006B89
:1015700012EE900A17EB0B074FF0000B4BEB0B0B27
:10158000E1FB007B18EB0B084FF0000B4BEB0B0B58
:10159000E2FB008B19EB0B094FF0000B4BEB0B0B35
:1015A000E3FB009B1AEB0B0A4FF0000B4BEB0B0B12
:1015B000E4FB00AB07EE90CA11EE100A4FF0000CEE
:1015C000E1FB00EC15EB0C054FF0000C4CEB0C0CA8
:1015D000E2FB005C16EB0C064FF0000C4CEB0C0C25
:1015E000E3FB006C17EB0C074FF0000C4CEB0C0C02
:1015F000E4FB007C13EE100A18EB0C084FF0000C13
:101600004CEB0C0CE1FB008C19EB0C094FF0000CBF
:101610004CEB0C0CE2FB009C1AEB0C0A4FF0000C9C
:101620004CEB0C0CE3FB00AC1BEB0C0B4FF0000C79
:101630004CEB0C0CE4FB00BC08EE10EA11EE900A37
:101640004FF0000EE1FB005E16EB0E064FF0000EB1
:101650004EEB0E0EE2FB006E17EB0E074FF0000E86
:101660004EEB0E0EE3FB007E18EB0E084FF0000E63
:101670004EEB0E0EE4FB008E13EE900A19EB0E09F2
:101680004FF0000E4EEB0E0EE1FB009E1AEB0E0A21
:101690004FF0000E4EEB0E0EE2FB00AE1BEB0E0BFE
:1016A0004FF0000E4EEB0E0EE3FB00BE1CEB0E0CDB
:1016B0004FF0000E4EEB0E0EE4FB00CE4FF0260175
:1016C00053EC152A4FF00000E6FB01201B184FF0E9
:1016D000000040EB0000E7FB013057EC166A3618BB
:1016E0004FF0000040EB0000E8FB01603F184FF0B6
:1016F000000040EB0000E9FB017059EC178A18EB81
:1017000000084FF0000040EB0000EAFB018019EBFD
:1017100000094FF0000040EB0000EBFB019018EED9
:1017200010AA1AEB000A4FF0000040EB0000ECFB9F
:1017300001A02D184FF0000040EB0000EEFB01501F
:1017400000FB01F0121853F1000356F1000657F1A7
:10175000000758F1000859F100095AF1000A55F143
:10176000000B60EB000021EA0000024414EE100AB6
:1017700080E8CC0FBDE8F08F2DE9F00791E8F01775
:101780004EF6A1514FEA4101A4FB01234FF00004A2
:10179000E5FB01344FF00005E6FB01454FF0000684
:1017A000E7FB01564FF00007E8FB01674FF0000828
:1017B000E9FB01784FF00009EAFB01894FF0000ACC
:1017C000ECFB019A4FF026010AFB01FA12EB0A0228
:1017D00053F1000354F1000455F1000556F10006E1
:1017E00057F1000758F1000859F100096AEB0A0A9D
:1017F00021EA0A010A4480E8FC03BDE8F0077047CB
:101800002DE9F00390E8F8134FEAEC7202F01302AE
:101810002CF0004C02F11301591854F1000155F15C
:10182000000156F1000157F1000158F1000159F192
:1018300000015CF100014FEAE17101F01301114474
:101840005B1854F1000455F1000556F1000657F1FC
:10185000000758F1000859F100094CF1000C2CF078
:10186000004C80E8F813BDE8F00370472DE9F05F05
:101870000546002092469B468846064681464024FF
:101880001BE0284641464746224600F0C5F953462C
:101890005A46C01A914110D311461846224600F00C
:1018A00016F82D1A67EB01084F4622460120002149
:1018B00000F00DF817EB00094E41201EA4F10104C1
:1018C000DFDC484631462A464346BDE8F09F202AE1
:1018D00004DB203A00FA02F1002070479140C2F187
:1018E000200320FA03F319439040704700487047E3
:1018F000D8FE040010B5441A0346944209D2841855
:10190000114403E011F8013D04F8013D521EF9D2E3
:1019100010BD40EA0104A40703D009E010C9121F5A
:1019200010C3042AFAD203E011F8014B03F8014B6B
:10193000521EF9D210BDD2B201E000F8012B491EAF
:10194000FBD270470022F6E710B513460A4604465C
:101950001946FFF7F0FF204610BD421C10F8011B8E
:101960000029FBD1801A704730B504460020034699
:1019700000E05B1C934203D2E05CCD5C401BF8D0DE
:1019800030BD034611F8012B00F8012B002AF9D1D4
:10199000184670472DE9FE4F804681EA0300C00FCC
:1019A0000C46009021F0004123F00045B8EB020006
:1019B000A94105D24046214690461C460B460246A8
:1019C00023F00040104347D0270DC7F30A00C3F3AC
:1019D0000A510290401A019040286BDAC3F31300B9
:1019E00040F4801B0098924620B10023D2EB030AFA
:1019F00063EB0B0B01985946C0F140025046FFF7CC
:101A000066FF06460D4650465946019A00F014F905
:101A100010EB08006141002487EA115284EAE77361
:101A20001A4340D0009A62B3019A012A4FEA075242
:101A300015DC001B61EB02014FF0004202EA075285
:101A4000CDE90042001C41F5801132462B4600F0E2
:101A50004BF903B0BDE8F08F40462146F9E7001B83
:101A600061EB0201001C41F5801300185B41201856
:101A7000A2F5001747EB030140EAD570B6196D4196
:101A800011E06D084FEA360645EAC0754FEA075285
:101A9000001B61EB0201001C41F5801149084FEA6F
:101AA00030000019514132462B4603B0BDE8F04FDB
:101AB00000F00BB90098012240000023D0EB020295
:101AC00063EBE073009821464FEAE074B8EB000046
:101AD00061EB0401E9E783F000435BE781F000413B
:101AE00058E72DE9FE4F81EA030404F0004421F099
:101AF000004100944FF0000B23F0004350EA010432
:101B00005ED052EA03045BD0C3F30A54C1F30A5512
:101B10002C44A4F2F3340194A0FB0254C1F313014A
:101B200041F48011C3F3130343F4801301FB024417
:101B300000FB034E840A970A44EA815447EA83571C
:101B4000A4FB076802958D0A05FB07854FEA932CD5
:101B500004FB0C542705029D4FEA065847EA163746
:101B6000B5EB08056EEB070C870E920E47EA81175E
:101B700042EA8312A7FB0201B6EB0B0164EB0004FF
:101B80002B0D43EA0C335E1844EB1C50DA465146E9
:101B9000E7FB0201C5F313044FEA0B3343EA145386
:101BA0004FEA0432019C43EA0603A4F10C040294B8
:101BB000009CCDE900B400F097F803B0BDE8F08FC9
:101BC00000200146F9E70EB540F2334102910021B1
:101BD000CDE900110A460B4600F086F803B000BDBF
:101BE00001F0004330B421F0004150EA010206D078
:101BF0000A0DA2F56072C1F31301002A02DC30BCA9
:101C000000207047440F44EAC104C100E01830BC12
:101C100000EBC25000F022B8202A04DB203A21FA5F
:101C200002F00021704721FA02F3D040C2F12002F5
:101C30009140084319467047202A06DBCB17203A0B
:101C400041FA02F043EAE07306E041FA02F3D040C1
:101C5000C2F1200291400843194670470029A8BFED
:101C60007047401C490008BF20F00100704710B4C5
:101C7000B0FA80FC00FA0CF050EA010404BF10BC7A
:101C8000704749B1CCF1200421FA04F411FA0CF1A7
:101C900018BF012121430843A3EB0C01CB1D4FEAE0
:101CA00000614FEA102042BF002010BC704700EBDB
:101CB000C35010440029A4BF10BC7047401C490009
:101CC00008BF20F0010010BC704710B5141E73F15E
:101CD000000408DA401C41F1000192185B411A43EC
:101CE00001D120F0010010BD2DE9F04D92469B4638
:101CF00011B1B1FA81F202E0B0FA80F220329046DE
:101D0000FFF7E5FD04460F4640EA0A0041EA0B01F1
:101D100053465A46084313D0114653EA010019D0DE
:101D2000C8F140025046FFF777FF05460E46504681
:101D300059464246FFF7CBFD084305D0012004E099
:101D400020463946BDE8F08D0020054346EAE0769E
:101D50002C4337430A986305E40AA0EB08000022ED
:101D6000FD0A44EA47540A3002D500200146E9E75B
:101D7000010510196941DDE9084500196941BDE80F
:101D8000F04DA2E7064C074D06E0E06840F0010385
:101D900094E8070098471034AC42F6D3FEF734FAC3
:101DA000182205003822050070B58C1810F8015B68
:101DB00015F0070301D110F8013B2A1106D110F8E4
:101DC000012B03E010F8016B01F8016B5B1EF9D1E8
:101DD0002B0705D40023521E0DD401F8013BFAE76E
:101DE00010F8013BCB1A921C03E013F8015B01F8D9
:101DF000015B521EF9D5A142D8D3002070BD00006E
:101E00002DE9F0410446B0B00D460A46684604F19B
:101E10002007002100F0C0F804F140083A462146AE
:101E200010A804F16006FFF74FFA4146324618A8A1
:101E3000FFF74AFA4246394620A8FFF745FA3246EC
:101E4000214628A8FFF740FAEB0F6A4610A9204662
:101E500000F000F930B0BDE8F08100BF2DE9F0419D
:101E60000446B0B00D460A46684604F12007012139
:101E700000F092F804F140083A46214610A804F117
:101E80006006FFF721FA4146324618A8FFF71CFA10
:101E90004246394620A8FFF717FA3246214628A8BD
:101EA000FFF712FAEB0F6A4610A9204600F0D2F8AD
:101EB00030B0BDE8F08100BF2DE9F0410446B0B07C
:101EC000684604F12006884604F1400700F096F8C1
:101ED00004F160053246214610A8FFF7F5F93946AE
:101EE0002A4618A8FFF7F0F93A46314620A8FFF72E
:101EF000EBF92A46214628A8FFF7E6F94FEAD873FE
:101F00006A4610A9204600F0A5F830B0BDE8F0817F
:101F100070B5A0B0044601F1200668460D46FFF7F3
:101F2000D2F9314608A8FFF7CEF905F1400110A813
:101F3000FFF7C9F910AA11461046FFF753F9694691
:101F400018A800F0D1FB324629462046FFF74AF98F
:101F500021462046FFF7B7F96A4621462046FFF79B
:101F600079F904F1400508AA21462046FFF772F9E5
:101F7000284608AA18A9FFF735F910AA294604F13E
:101F80002000FFF767F908AA18A904F16000FFF71D
:101F900061F920B070BD00BF2DE9F84302EBE27695
:101FA00086EAE27680460C46002100F093FB08F1B9
:101FB0002007711EC90F38460F4D00F08BFB05EB53
:101FC000442540354FF0010986EA0904013CE40F3D
:101FD000294622464046FEF77BFA09F1010905F140
:101FE000200122463846FEF773FAB9F1090F05F1D0
:101FF0004005E9D1BDE8F883381B05002DE9F84319
:1020000001EBE177814687EAE177002100F062FB8E
:1020100009F12008791EC90F404600F05BFB0C4E09
:10202000012587EA0504013CE40F31462246484673
:10203000FEF74EFA013506F1200122464046FEF732
:1020400047FA092D06F14006EBD1BDE8F88300BF41
:10205000781F05002DE9F0430D46A1B001F12009DC
:102060001646044649462A466846984606F1200721
:10207000FFF7F0F849462A4608A8FFF7B3F83946B3
:10208000324610A8FFF7E6F83946324618A8FFF79F
:10209000A9F8424618A910A8FEF785FA10AA6946C1
:1020A0006846FFF711F908A918AA0846FFF70CF9C6
:1020B0003A46314610A8FFF707F910A905F160026A
:1020C0000846FFF701F910A90846144AFFF7FCF883
:1020D00005F14002114618A8FFF784F86A4608A9DE
:1020E0002046FFF7B7F804F120056A4608A904F175
:1020F0006000FFF777F84034284610AA18A9FFF7C8
:10210000A9F810AA18A92046FFF76CF842462946FC
:102110002046FEF748FA21B0BDE8F083782105009B
:102120002DE9F047CC7F0D78C0B00B4604F03F049A
:102130004978D3F804C093F802809F68D3F810A0C0
:10214000DE688DF8411044F04004114625F0070583
:102150005A698DF85F409C6993F803E08DF8405010
:102160008DF842801D7F93F81D809B7F8DF843E0A2
:1021700081466846CDE911C78DF85E30CDE915245A
:10218000CDE9136A8DF85D808DF85C5000F086FA19
:102190002022694618A8FEF7A9FC6846012100F034
:1021A00099FA08A8002100F095FA18A920A8202281
:1021B000FEF79CFC28A8012100F08CFA18AF0DF165
:1021C00040084FF0060A002417F8016D46FA0AF598
:1021D00005F001056C40224620A96846FEF7E3F9A8
:1021E000224628A908A8FEF7DEF908AA694630A801
:1021F000FEF7F8FF08AA10466946FFF72BF828AA51
:1022000020A938A8FEF7EEFF28AA104620A9FFF75C
:1022100021F838A9084608AAFFF756F828A9084661
:1022200030AAFFF751F838AA28A920A8FEF7DAFF4C
:1022300028A938AA0846FFF70DF820A90846FFF795
:1022400042F828A90846FFF73EF828A918AA084628
:10225000FFF73AF830A90846FFF735F808A938A87B
:10226000FFF731F838AA30A96846FFF72DF830A9F2
:1022700038AA0846FEF7EEFF30A908A8FFF77CFA57
:1022800008A9084638AAFEF7ADFF08A90AF1FF3AE7
:1022900030AA0846FFF718F8BAF1FF3F2C4695D14F
:1022A00047454FF0070A8FD108A90846012200F0E0
:1022B0002DFA08AA69466846FFF706F869464846B7
:1022C00000F036FB40B0BDE8F08700BF014AFFF7E1
:1022D00027BF00BFF817050070B500F1200590B0CA
:1022E0000E46044600F058FB06F12001284600F097
:1022F00053FB214608A8FEF773FC08A908460C4AC0
:10230000FEF702FC08A922460846FEF76AFC08A967
:102310000846084AFEF7F8FB29466846FEF760FCC7
:10232000694608A82022FEF7C1FB013810B070BD35
:1023300098210500B82105002DE9F047B8B08A467C
:102340008146114610A8514AFEF7A2F850490246AC
:1023500010A8FEF7BDF8179F4C4900EAD7778046D2
:10236000C7F1010210A8FEF7B3F8179D524628A93D
:1023700018A8ED4301F088F8ED0F20A9C5F101027E
:10238000084600F0EDFAC8F10108FE266A4618A9D1
:1023900028A801F02DF8731138AA02EB830306F088
:1023A0001F0253F8A04CD44004F0010465402A46B3
:1023B00028A918A8FEF7F7F82A4630A920A8FEF7A2
:1023C000F2F8013E28A918A800F0ACFF731C2546BE
:1023D000DCD1C4F1010208A820A900F0C1FA7D40B7
:1023E0006A4618A928A801F003F828A92A4618A8BF
:1023F000FEF7D9F82A4630A920A8FEF7D4F808A994
:102400006A460846FEF7EDFB08A9084600F0DEFA2A
:1024100008A909F120040AF120020846FEF7E1FBB1
:1024200020A908AA2046FEF7DCFB08AA18A96846DE
:10243000FEF7D7FB69466846FEF7D2FB18AA694645
:1024400008A8FEF7CEFB21466846FEF7C9FB08AA9E
:1024500069461046FEF797FB08A90E4A6846FEF744
:1024600092FB20462021FEF734FB08A94342024696
:10247000684643EA0808FEF796F848466946064A61
:10248000FEF7AFFB404638B0BDE8F087F821050005
:10249000D81A0500B8210500F81A05000A460149B6
:1024A000FFF74ABF1818050000F040BB38B50446D6
:1024B0000D4600F03BFB05F1200104F12000BDE8D2
:1024C000384000F033BB00BF30B5A9B01446054614
:1024D000684600F09DFB214618A8FFF7FDFE6A46FE
:1024E00018A9044608A8FFF727FF08A904432846AF
:1024F000FFF7DAFF204629B030BD00BF30B599B0F4
:102500000546684600F084FB694608A8FFF7C6FF49
:1025100008A904462846FFF7C9FF204619B030BD78
:1025200010B52022B0B004460DEB020000F098FB7D
:102530009DF83F309DF8202003F07F0343F04003D7
:1025400022F0070208A968468DF83F308DF8202058
:1025500000F006FB694618A800F028F818A92046E4
:1025600000F002F830B010BD30B599B004460D4609
:1025700010A84031012200F0C9F810AA2946684687
:10258000FEF7A2FE10AA05F1200108A8FEF79CFEA6
:1025900008A9204600F0CCF9684600F093F8E37FE4
:1025A00083EAC010E07719B030BD00BF2DE9F041DB
:1025B000B0B0E8460446404600F00AFB04F140068D
:1025C00020469DF93F10FFF719FD3046012100F02C
:1025D00081F804F120070DF11505214610A8FFF739
:1025E00097FC18AA10A92046FEF76EFE28AA20A97B
:1025F0003846FEF769FE20AA18A93046FEF764FEA9
:10260000214610A8FFF784FC18AA10A92046FEF75F
:102610005BFE28AA20A93846FEF756FE20AA18A974
:102620003046FEF751FE214610A8FFF771FC18AAAC
:1026300010A92046FEF748FE28AA20A93846FEF732
:1026400043FE20AA18A93046FEF73EFE214610A8F8
:10265000FFF75EFC15F9011D10A8FFF7D1FB95F9F6
:10266000151010A8FFF7FAFB95F92A1010A8FFF72C
:1026700023FC18AA10A92046FEF726FE28AA20A9A6
:102680003846FEF721FE20AA18A93046FEF71CFEA8
:10269000A845A2D130B0BDE8F08100BF0B6803604F
:1026A0004B6843608B688360CB68C3600B690361D0
:1026B0004B6943618B698361CB6923F00043C3613C
:1026C000704700BF10B50446FFF79AF8206800F085
:1026D000010010BD0023C0E90013C0E90233C0E9C6
:1026E0000433C0E90633704700B589B000230A46B9
:1026F0006946CDE90033CDE90233CDE90433CDE9B4
:102700000633FEF7A7FD09B05DF804FBF0B5A1B0F4
:102710000546684617460E46FEF7D5FD694618A8D9
:10272000FEF7D1FD18A90846FEF7CDFD324618A9DF
:1027300008A8FEF7C9FD6A4608A96846FEF7C4FD69
:10274000694618A8FEF7BFFD08AA104618A9FEF7AB
:10275000BBFD08A918A8FEF7B6FD18A90846FEF7A4
:10276000B2FD18A90846FEF7AEFD18A90846FEF707
:10277000AAFD18A90846FEF7A6FD08AA18A9104642
:10278000FEF7A2FD022408A900E0012418A8FEF724
:102790009AFD18A90846FEF796FD18A90846FEF707
:1027A00092FD18A90846FEF78EFD18A90846FEF707
:1027B0008AFD012C18A9E8D110A808AAFEF784FD0B
:1027C000042410A918A8FEF77EFD18A90846FEF7F4
:1027D0007AFD18A90846FEF776FD18A90846FEF707
:1027E00072FD18A90846FEF76EFD013C18A9E9D153
:1027F00010AA0846FEF768FD022400E0012418A98B
:102800000846FEF760FD18A90846FEF75CFD18A90A
:102810000846FEF758FD18A90846FEF754FD18A90A
:102820000846FEF750FD012CE8D118A908AA10A807
:10283000FEF74AFD0A2410A918A8FEF744FD18A9BE
:102840000846FEF740FD18A90846FEF73CFD18A90A
:102850000846FEF738FD18A90846FEF734FD013C8E
:1028600018A9E9D110AA08A8FEF72EFD142408A97A
:1028700018A8FEF728FD18A90846FEF724FD18A998
:102880000846FEF720FD18A90846FEF71CFD18A90A
:102890000846FEF718FD013C18A9E9D108AA084628
:1028A000FEF712FD0A2418A90846FEF70CFD18A928
:1028B0000846FEF708FD18A90846FEF704FD18A90A
:1028C0000846FEF700FD18A90846FEF7FCFC013C8F
:1028D000E9D118A9084610AAFEF7F6FC18A908467F
:1028E00067B9FEF7F0FC18A90846FEF7ECFC324683
:1028F00018A92846FEF7E8FC21B0F0BDFEF7E3FC7E
:1029000018A90846FEF7DFFC18A90846FEF7DBFC0D
:1029100018A90846FEF7D7FC18A90846FEF7D3FC0D
:102920006A4618A92846FEF7CFFC21B0F0BD00BFCB
:1029300038B50C4605460846FEF762FF23682B6053
:1029400063686B60A368AB60E368EB6023692B612D
:1029500063696B61A369AB61E369EB6138BD00BF7B
:1029600070B588B004460D46684620211646FEF72D
:10297000C4F800232946204620220093FEF7B6F82B
:102980002A4669466846FEF7FEF832466946204602
:10299000FDF709FE08B070BD0B681BBAC3614B6838
:1029A0001BBA83618B681BBA4361CB681BBA036196
:1029B0000B691BBAC3604B691BBA83608B691BBA76
:1029C0004360CB691BBA0360704700BF70B598B015
:1029D0000D46064610A8FEF703F92A4610A96846D8
:1029E000FEF7FFF8694610A8FEF7FAF810A90846A6
:1029F000FEF7F6F86A4610A908A8FEF7F2F808A94B
:102A000010A8FEF7EDF810A90846FEF7E9F810A99E
:102A10000846FEF7E5F810A90846FEF7E1F810A908
:102A200008AA0846FEF7DDF810A90846FEF7D8F810
:102A300010A90846FEF7D4F810A96A4608A8FEF7C0
:102A4000D0F8052408A910A8FEF7CAF810A908466E
:102A5000FEF7C6F8013C10A9F5D108AA0846FEF712
:102A6000C0F8052410A90846FEF7BAF810A90846D0
:102A7000FEF7B6F8013CF5D110A908AA0846FEF702
:102A8000B0F810A908A8FEF7ABF808A90846FEF7A9
:102A9000A7F808A96A466846FEF7A3F81024694615
:102AA00010A8FEF79DF810A90846FEF799F8013C1A
:102AB00010A9F5D12A460846FEF793F8402410A93C
:102AC0000846FEF78DF810A90846FEF789F8013C84
:102AD000F5D110A96A460846FEF783F8102410A91C
:102AE0000846FEF77DF810A90846FEF779F8013C84
:102AF000F5D110A96A460846FEF773F8102410A90C
:102B00000846FEF76DF810A90846FEF769F8013C83
:102B1000F5D110A908AA0846FEF763F82A4610A9BD
:102B20003046FEF75EF818B070BD00BFCB691BBA27
:102B300003608B691BBA43604B691BBA83600B69E6
:102B40001BBAC360CB681BBA03618B681BBA4361B5
:102B50004B681BBA83610B681BBAC361704700BF27
:102B6000F0B50B4699B0DA69184D149218A9120FF6
:102B700004465F689E68186941F85C2DDA68D3F8EE
:102B800000C00E970F965F699E69109200232A4637
:102B9000119005A8CDF834C0CDE916331593CDE9D1
:102BA0000333029312971396FDF708FD019B05AAC4
:102BB0001B070DA920460C93FDF76AFCE269294624
:102BC000D20F2046FDF784FC19B0F0BD181B05009C
:102BD000F0B40025471E2C462A46E30814F0070FE0
:102BE00008BF51F8235005F00F03134403F1080206
:102BF00012090134D6B2A3EB06133F2C4FEA151588
:102C000007F8013FE9D1354480F83F50F0BC7047E8
:102C100038B50B68114D1BBAC3614B681BBA836191
:102C20008B681BBA4361CB681BBA03610B691BBA83
:102C3000C3604B691BBA83608B691BBA4360CB6965
:102C40001BBA2A46036001460446FDF721FC2946CB
:102C500002462046BDE83840FDF73ABCD8210500C1
:102C60002DE9F04DE2A5D5E90045B2B0E2A7D7E9DC
:102C70000067CDE90045E2A5D5E90045CDE9026749
:102C8000E1A7D7E90067CDE90445E1A5D5E900450D
:102C9000CDE90667E0A7D7E90067CDE908450FF25F
:102CA000803BDBE900ABE0A5D5E90045CDE90A674B
:102CB0000027CDE90C4580461446CDE90EABCDE9A1
:102CC0003072002A40F0CD8080238DF84030012002
:102CD0006D4610AE00F1400E05EB0E035B42471C43
:102CE00003F00303D91C7B2FC0F17B0C88BF4FF08E
:102CF000010C052938BF05217B2FC0F17A0288BF5E
:102D00000022914229D8ABB132AA02440021012B02
:102D100002F8881C00F0A38032AA1744032B00F1AC
:102D2000020207F8881C40F0538132AF3A44033066
:102D300002F8881CACEB030C002273442B444FEACE
:102D40009C0711460132974243F8041BFAD82CF035
:102D500003036345184427D0471C32AB03440022C9
:102D60007B2F03F8882C1FD032AB3B44811C7B297E
:102D700003F8882C18D032AB1944C31C7B2B01F804
:102D8000882C11D032A90B44011D7B2903F8882C13
:102D90000AD0053032AB7B28194418BFC01801F89F
:102DA000882C18BF00F8882C620F002362F30703F9
:102DB000620D62F30F23620B62F31743620931461F
:102DC00062F31F632846E400CDF8BB308DF8BF40A6
:102DD00000F076FDDDE90623DDE90076DDE9025449
:102DE000DDE9040193FA83FE089BC8F818E036BABF
:102DF0002DBA24BA00BA09BA12BA93FA83FCC8F8F9
:102E00000060C8F80C50C8F80840099D0A9CC8F832
:102E10001400C8F810100B980C99C8F81C200E9BD1
:102E20000D9A0F9EC8F824C03FBA2DBA24BA00BA32
:102E300009BA12BA1BBA36BAC8F80470C8F82050DA
:102E4000C8F82C40C8F82800C8F83410C8F830205A
:102E5000C8F83C30C8F8386032B0BDE8F08D38466C
:102E600068E76D4628460E4600F06AFB241A0246C3
:102E70003119002800F0AE80431E022B40F2B280D0
:102E800010AE4FEA900C3B4634460846013350F8EA
:102E9000047B44F8047B6345F8D322F003039A4291
:102EA000194414D032A818440C7800F8884C581CE7
:102EB00082420CD932AC204402334C7800F8884C62
:102EC0009A4204D932A80344897803F8881C32ABAB
:102ED000501C134480217028309203F8881C40F263
:102EE00084807F286BD832AB1844911C0023802942
:102EF00000F8883C63D032A80144D01C802801F837
:102F0000883C5CD032A90844111D802900F8883C17
:102F100055D032A80144501D802801F8883C4ED07D
:102F200032A90844911D802900F8883C47D032A876
:102F30000144D01D802801F8883C40D032A90844C3
:102F400002F10801802900F8883C38D032A80144F9
:102F500002F10900802801F8883C30D032AB1844D7
:102F600002F10A010023802900F8883C27D032A80A
:102F7000014402F10B00802801F8883C1FD032A9DF
:102F8000084402F10C01802900F8883C17D032A8CF
:102F9000014402F10D00802801F8883C0FD032A9CD
:102FA000084402F10E01802900F8883C07D032A8BD
:102FB0000144702A01F8883C08BF8DF8BF303146C3
:102FC000284600F07DFC7A28319C7FF683AEEBE644
:102FD0001046AFE6802330908DF84030319C0120C0
:102FE00010AE77E63B4610AE5CE7319C72E600BF60
:102FF00008C9BCF367E6096A3BA7CA8485AE67BB0C
:103000002BF894FE72F36E3CF1361D5F3AF54FA536
:10301000D182E6AD7F520E511F6C3E2B8C68059B12
:1030200079217E1319CDE05B6BBD41FBABD9831FCA
:103030002DE9F04F9FB0A1F108031C93D2E90E34A3
:10304000CDE91834D2E90C34CDE90034D2E90A34A0
:10305000CDE90234D2E90634CDE91A34D2E902349A
:10306000CDE90634D2E90434CDE9043400F180031B
:10307000D2E908ABD2E900891D9309909446014634
:1030800005E0CDE90689DDE91689B246BB46F1E8DF
:1030900002451C9F09914FEA9A3242EA8B424FEA5D
:1030A0009A43F7E902010A9243EA8B334FEA9B36CF
:1030B0004FEA9B420C9346EA8A4642EA8A324FEA3A
:1030C000CB530D920B9643EA5A23CDE916010F9389
:1030D000DDE90C011C974FEACA53DDE90A6743EAB0
:1030E0005B230E9346404F40DDE90E014FEA187313
:1030F00043EA091370407940109306460F464FEAA1
:103100008973DDE9160143EA980313934FEA1973B3
:1031100000194FEA887243EA08136941119342EAA1
:103120009903CDE916011293DDE90201DDE90023DF
:103130004FEA496442404B4044EAD814DDE91601A5
:103140001594DDE90045801902EA0A024FEA486E4B
:1031500079415440DDE9066703EA0B034EEAD912D0
:103160005D401492DDE9042346EA080647EA0907B0
:10317000324016463B4022181F4645EB0103DDE96D
:103180001045DDE91201CDE9162344404D40DDE94B
:1031900014016040694004460D46DDE9060100EA7D
:1031A000080001EA090140EA060241EA0703104665
:1031B000DDE918671946DDE9162392197B41DDE93F
:1031C0001A6700196941B6185F41841841EB03057D
:1031D000DDE90201CDE91645CCE90C01DDE9003459
:1031E000DDE90412CCE90E34CCE90612CDE918343D
:1031F000DDE90423CDE91A23DDE90234DDE9060126
:10320000CDE90034DDE91634CCE90401CCE9003421
:10321000CDE904011D9B09999942CCE90AABCCE99F
:103220000289CCE90867CDE902AB7FF42AAF1FB071
:10323000BDE8F08F2DE9F04F4FF0000C8BB08646C3
:10324000A0F1080A6346ACF102040CF1010C0CF089
:103250000F000EEBC00204F00F045EF8300052685D
:103260000EEBC401073B5EF8344049684FEA500852
:1032700003F00F03070A0EEBC30B48EAC273E60C18
:10328000009347EA0263CD00029346EA4133049378
:10329000CE0C45EA54730793E50046EA44330593A0
:1032A000A60945EA51735408069344EAC073140A08
:1032B0004FEAD018019344EA006348EA4268039356
:1032C0004FEAD219FAE9022346EA8166CDE90823DA
:1032D0008F09DDE90623DDE90401DBE90045504003
:1032E0005940DDE9082312196B41CDE90823DDE9D6
:1032F0000045DDE9022370407940DDE9086754406C
:103300005D4084EA0804361985EA09056F413218E0
:1033100047EB0103BCF1100FCAE9002392D10BB0B7
:10332000BDE8F08FF0B599B004460E460A46014656
:103330006846FDF728FC69466846FDF751FC6A4679
:10334000214608A806F1200504F12007FDF749FCF5
:103350006A4631466846FDF744FC39462A4610A8BD
:10336000FDF7D2FB2A4639462846FDF70CFC2946D4
:103370003046FDF735FC6A4608A92046FDF7C4FB38
:10338000224631463046FDF7FEFB6A4608A96846EC
:10339000FDF7F9FB6A4639463846FDF722FC32460E
:1033A00008A96846FDF7EFFB6A4629462846FDF75F
:1033B00018FC3A4629462846FDF7E5FB10A9684661
:1033C000FDF70EFC224669462046FDF7DCFB08A906
:1033D00022460846FDF7D7FB10A908AA0846FDF7C4
:1033E00000FC3A4610A93846FDF7CDFB19B0F0BDF8
:1033F0002DE9F0410C4688B005469046014622462C
:103400006846FDF7C0FB69466846FDF7E9FB6A467A
:103410002946284604F12006FDF7E3FB05F12007C5
:103420006A4621466846FDF7DCFB3246304639469F
:10343000FDF7A9FB31462046FDF7D2FB2A4621467F
:103440002046FDF7A0FB6A4621462046FDF79BFB80
:103450006A4629464046FDF796FB424639463846BD
:10346000FDF7BFFB224629466846FDF78CFB6A46FE
:1034700031463046FDF7B5FB3A4631463046FDF75A
:1034800082FB08B0BDE8F0812DE9F04188B00D461F
:10349000074602F12001684607F120069046FDF735
:1034A0009FFB6A4669466846FDF72EFB3046694633
:1034B000FDF796FB32463146304605F12004FDF714
:1034C00023FB6A4669466846FDF71EFB20464146D7
:1034D000FDF786FB6A4641463846FDF782FB2246E9
:1034E00021466846FDF710FB224669466846FDF70F
:1034F0000BFB69466846114AFDF706FB69462846FC
:10350000FDF76EFB3A4629462846FDF73CFB3A4656
:1035100029462846FDF737FB2A4639462046FDF75F
:1035200032FB6A4621462046FDF75BFB32462146C8
:103530002046FDF728FB08B0BDE8F0819821050082
:103540002DE9F04FC7B07F2A159240F2AB810D46AE
:10355000A2F18001D0E900230646CDE90023D6E997
:103560000823CDE90A23D6E90A23CDE90223D6E9C7
:103570000C2321F07F04D0E902ABD6E90689D0E91B
:103580000401CDE90C23D6E90E238034CDE90E23C6
:10359000CDE904ABCDE91001CDE906892C191494CD
:1035A00009962C68AF68D5F80CA0D5F810E02E6B02
:1035B000E86913962346DDE900891BBA01930023CD
:1035C0000093AB6BAC691294CDE91689DDE90489EF
:1035D0000493DDE91023DDE900BCCDE91A23DDE920
:1035E00006233946CDE91C239AFA8AFA0BBA5A46C1
:1035F00042EA0A02CDE92823DDE90A23CDE9188948
:10360000D5F81480129E2F6A696AAC6ACDE91E2330
:1036100098FA88F89EFA8EF35A4642EA0802CDE9F3
:103620002A2300BA33BA5A4642EA0002CDE92C23D3
:1036300009BA3BBA5A4642EA0102CDE92E23EF6AA3
:10364000139ED5F858E023BA5A463FBA42EA070219
:10365000CDE93023DDE90C236C6BCDE9222324BABC
:1036600033BA5A4642EA0402DDE90201CDE93223C7
:10367000049B1FBACDE920013B46E86B6968DDE990
:103680000E6700BA4BEA0002CDE9246709BA5E462C
:10369000674646EA0106CDE934232B6EAA6E286FF1
:1036A0000493B046EB6C2E6C696C0692B946AF6F12
:1036B0001290CDE926890A97D5F84890D5F8508020
:1036C0006F6D0293EC6DE86F6A6EEB6ED5F874A0C7
:1036D00036BAB44609BA029E00BA4FF0000B4BEA64
:1036E000010B029099FA89F10020CDE936BC36BA77
:1036F00083468C464BEA060BCDE938BCDDE900BCBD
:1037000098FA88F13FBAD84689469EFA8EF148EA7F
:10371000070824BA5E460F4646EA0406049C12983F
:1037200021BACDE93C6712BA5E460F4646EA020668
:10373000069A11BA1BBA0A46594641EA030140AB40
:10374000C3E900129AFA8AFA03BA5A4642EA0A020E
:10375000CDE93E6742A90A9F5448C1E90023029A75
:103760003CBA5B4643EA0203CDE93A8916AA984679
:10377000A14644AB26A9C3E90089FFF759FC26A856
:10378000FFF758FD16AA26A94948FFF751FC26A8BD
:10379000FFF750FD16AA26A94648FFF749FC26A8C0
:1037A000FFF748FD16AA26A94348FFF741FC26A8C3
:1037B000FFF740FD16AA26A94048FFF739FC099CEF
:1037C000DDE91623D4E90067B618D4E902AB5F41FE
:1037D000DDE91834099A13EB0A0344EB0B04DDE925
:1037E0001A01CDE90434D2E904341B184C41DDE957
:1037F0001C899B46A446D2E9063413EB080344EB2C
:103800000904CDE90067CDE90634D2E90867DDE9AE
:103810001E34F61810466741D2E90A34DDE9201259
:103820005B185441CDE90234D0E90C12DDE92234B1
:10383000C918DDE924896241D0E90E3413EB08038D
:1038400044EB09049846A146DDE90034C0E90034A0
:10385000DDE90434CDE910BCC0E90234CDE90A67E2
:10386000CDE90C12CDE90E891290C0E904BCDDE966
:1038700006ABDDE90234C0E90A344C464346C0E9F0
:103880000E34149C8035A542C0E906ABC0E9086738
:10389000C0E90C127FF485AE159B03F07F0047B0A2
:1038A000BDE8F08F104647B0BDE8F08F581805000E
:1038B000D818050058190500D8190500581A050030
:1038C0002DE9F04F0B68D1F808E0D1F80C90D1F851
:1038D00010C08F69D1F82080D1F824A0B7B01BBAEE
:1038E0000193002300939EFA8EF599FA89F943EA31
:1038F00009022B46DDE900450646D1F814E0C86907
:10390000CDE918239CFA8CF39C469EFA8EFE00BAF1
:1039100022463BBA44EA0E0B42EA000298FA88F5C6
:103920009AFA8AFA0024CDE91C2344EA0A022B46BB
:103930004868CDE91E23DDE90023CDE91ABCD6E9AC
:103940000089D6E902AB00BA42EA0002CDE91623AB
:10395000D6E90423CDE90689CDE908ABD6E9068985
:10396000D6E908ABCDE90A23D6E90A23CDE90C89CB
:10397000CDE90EABD6E90C89D6E90EABD1F828C05B
:10398000D1F830E08D6B086C8F6CCDE910239CFA78
:103990008CF3039300230293DDE90223CDE912891E
:1039A000D1F82C90D1F850C0D1F8588099FA89F903
:1039B00042EA0902CDE920239EFA8EF30393002305
:1039C0000293DDE90223D1F834E09EFA8EFE42EA4A
:1039D0000E02CDE922232BBA039300230293DDE9E3
:1039E0000223CD6BD1F870E02DBA42EA0502CDE991
:1039F000242303BA03930023CDE914AB8D6FD1F8D0
:103A000060A0D1F868B0486C0293DDE9022300BAE7
:103A100042EA0002CDE926233BBA03930023029336
:103A2000DDE90223C86C4F6D00BA42EA0002CDE91D
:103A300028239CFA8CF3039300230293DDE90223ED
:103A40003FBA42EA0702CDE92A23C86DD1F864C023
:103A5000CF6E98FA88F3002299469AFA8AF3039374
:103A6000029200BA42EA0008DDE902239CFA8CFCCB
:103A7000C86F42EA0C02CDE92C899BFA8BF4D1F88D
:103A80007480DDE900ABCDE92E2300BA2BBA002209
:103A90004E4D42EA000298FA88F1A1463FBA9EFADA
:103AA0008EF4CDE934234AEA070806AA4AEA010A55
:103AB000A34616A92846CDE93089CDE932ABFFF7F8
:103AC000B7FA16A8FFF7B6FB06AA16A905F18000FB
:103AD000FFF7AEFA16A8FFF7ADFB06AA16A905F583
:103AE0008070FFF7A5FA16A8FFF7A4FB06AA16A98F
:103AF00005F5C070FFF79CFA16A8FFF79BFB06AA16
:103B000016A905F50070FFF793FAD6E90023DDE961
:103B10000601D6E90289DDE908AB141843EB01057B
:103B200018EB0A0249EB0B03CDE90245DDE90AABCC
:103B3000CDE90423D6E9043413EB0A0344EB0B0468
:103B40009A46A346D6E90623DDE90C451219144628
:103B5000DDE902126B41D6E908781D46C6E900127C
:103B6000DDE90E23BF1848EB0308DDE90423C6E9AD
:103B70000878C6E90223DDE91089D6E90A2312EBA9
:103B8000080243EB090390469946C6E904ABD6E91F
:103B90000C23DDE912AB12EB0A0243EB0B03924656
:103BA0009B46C6E90645DDE91423D6E90E45A4186F
:103BB00000985D4122462B46C6E90A89C6E90CAB4E
:103BC000C6E90E2337B0BDE8F08F00BF58180500D6
:103BD0002DE9F04700268AB0DFF85091B0464FF447
:103BE000807501243746069628460AF05BFB38B1FB
:103BF000D9F80403204203D028460AF049FB2643A3
:103C00002D1D64007F1CADB2082FEDD34FF4BE74A0
:103C100020460AF047FB48B120460AF039FB46F03F
:103C2000004606AA012100200AF01EFB404D16F0B6
:103C3000FF0F15D00127002437420DD009EB840176
:103C4000D1F81005D1F81015C0F3042055F8242040
:103C5000C1F3014102B190477F00641C082CEBD3F3
:103C6000002E5FDA4FF0FF30CDF8108054E02819B5
:103C700010F8507F90F9000027F0C008401C3BD09E
:103C800007A9404608F0CCFD10B34FEA971940460B
:103C900004F0CEF955F820701FB1B9F1030F03D02D
:103CA00006E0B9F1030F27D104A9404608F0C0FD92
:103CB0004FF0A04101EB8800D0F8000706A9C0F33F
:103CC000014A404608F0ACFD18B1BAF1020F03D02A
:103CD00012E0BAF1030F0FD1B9F1030F08D1BAF115
:103CE000020F1DD0022140460AF08DFA761CF6B272
:103CF00017B149464046B847641C042CB7D3002E80
:103D000010D06A46012100200AF0AEFA0699009808
:103D1000884207D006900498002634460790A6E70C
:103D20000321E0E70AB0BDE8F08700000060004032
:103D30005C4C002030B51C4D93B07721AC69E8890C
:103D4000A080AF20E0802081608121736073E081DA
:103D50003C216846FDF7F6FD02208DF800000020AA
:103D60008DF8020006208DF803001120ADF8400008
:103D70004FF4FA60ADF83C000FA8099011940022AE
:103D800069460A4801F011FF20B109A240F62A3124
:103D9000FCF742FAA87A0CF0DBF90448297AF438E7
:103DA00000F0EAFF13B030BDD0320020EC37002025
:103DB0002E2E5C5372635C6D61696E2E6300000091
:103DC00042F2107190FBF1F390FBF1F201FB13034F
:103DD0004FF47A7193FBF1F3120442EA033290FB41
:103DE000F1F301FB1303642193FBF1F342EA032295
:103DF00090FBF1F301FB13030A2193FBF1F342EA79
:103E0000031290FBF1F301FB130010437047000015
:103E100070B54FF48076304608F0EAFF114CB505D6
:103E200060B1304608F0EBFF0120C5F80803607967
:103E300020B9012060712168002088474FF4827604
:103E4000304608F0D5FF00280AD0304608F0D7FFEA
:103E50000220C5F808032168BDE87040012008472A
:103E600070BD0000D83400200149024807F0D6B8E0
:103E7000444D002000C001400149024807F0CEB87F
:103E80004C4D002000100240064882B00021016025
:103E900000680090044800680449C0B2496802B054
:103EA0000847000000D1004008D50040E834002059
:103EB00002490248091F0968006808473835002090
:103EC0002DE9FE434FF4827840460AF0C9FE4C4F7C
:103ED00000254C4C012600B340460AF0C9FE94F878
:103EE0002E0010B194F82F10D1B18DF800506168F8
:103EF00001912189ADF80810E26832B1218B61830C
:103F000062602181E56010B102E0257400E03E604E
:103F100021686846884784F82F5094F82E0060B3D3
:103F20004FF4807738460AF09BFE30B338460AF0EB
:103F30009FFE628B94F82D108A420AD9A2EB0100F1
:103F400080B260832289A2EB0000626802EB40002D
:103F500005E007D1E06828B184F82F6065830AF096
:103F60006DFE04E08A4202D184F82F6065834046EA
:103F70000AF07EFE2248001D06604FF4887738461E
:103F80000AF06EFE48B138460AF072FE257402202F
:103F90008DF800002168684688474FF48A773846D4
:103FA0000AF05EFE28B138460AF062FE2574BDE8CC
:103FB000FE834FF000484FF48C7967691DE000BF25
:103FC000B7FA87F028FA00F109EB80058F432846FD
:103FD0000AF046FE88B128460AF04AFEA5F58C751F
:103FE000E8088DF8040045F38000401C8DF800605F
:103FF0008DF80500216868468847002FE0D1D6E794
:1040000000700040544D0020F8B51248124E04468E
:104010004FF48C710BF067F900281AD00025C4F812
:104020001851D4F818010090F07F3446FF2806D0CC
:10403000A17F11B10AF0F8F801E00AF003F9657701
:104040002572D4E9002101B004F10800BDE8F04078
:104050001047F8BD00300040084D002030B58FB04B
:1040600005461C216846FDF76DFC00249DF8000004
:10407000019440F00A008DF8000003940494059424
:10408000069495F87C008DF836004AF63D00ADF8B0
:1040900034000C949DF83000142120F00F00401CD7
:1040A00020F0F00010308DF830009DF8310020F045
:1040B0000F00401C20F0F00010308DF831009DF80A
:1040C000320020F00600801C20F0100040F00900B3
:1040D0008DF8320007A8FDF735FC0DA807900CA855
:1040E00008900120ADF824000420ADF82640ADF87A
:1040F00028000B94B5F87A002B4607AA6946AADF78
:104100000FB030BD044880F8361004490120887192
:104110000349487270470000903E0020D0360020CE
:10412000D032002030B58FB005461C216846FDF71F
:1041300009FC00249DF80000019440F00A008DF86D
:104140000000039404940594069495F87C008DF87F
:1041500036004EF2E820ADF834000C949DF83000A3
:10416000142120F00F00401C20F0F00010308DF8DA
:1041700030009DF8310020F00F00401C20F0F000CE
:1041800010308DF831009DF8320020F00600801CC0
:1041900020F0100040F009008DF8320007A8FDF76C
:1041A000D1FB0DA807900CA808900120ADF82400C1
:1041B0000420ADF82640ADF828000B94B5F87A003D
:1041C00005F1080307AA6946AADF0FB030BD000059
:1041D000044880F837100449012088710349487267
:1041E00070470000903E0020D0360020D0320020E2
:1041F00030B58FB005461C216846FDF7A3FB0024AF
:104200009DF80000019440F00A008DF8000003942E
:1042100004940594069495F87C008DF8360049F2D4
:104220008A10ADF834000C949DF83000142120F071
:104230000F00401C20F0F00010308DF830009DF889
:10424000310020F00F00401C20F0F00010308DF8FD
:1042500031009DF8320020F00600801C20F0100094
:1042600040F009008DF8320007A8FDF76BFB0DA8A0
:1042700007900CA808900120ADF824000420ADF8A8
:104280002640ADF828000B94B5F87A0005F110032C
:1042900007AA6946AADF0FB030BD0000044880F8C5
:1042A00038100449012088710349487270470000A2
:1042B000903E0020D0360020D032002030B58FB0A4
:1042C00005461C216846FDF73DFB00249DF80000D3
:1042D000019440F00A008DF80000039404940594C2
:1042E000069495F87C008DF836004CF22210ADF85B
:1042F00034000C949DF83000142120F00F00401C75
:1043000020F0F00010308DF830009DF8310020F0E2
:104310000F00401C20F0F00010308DF831009DF8A7
:10432000320020F00600801C20F0100040F0090050
:104330008DF8320007A8FDF705FB0DA807900CA823
:1043400008900120ADF824000420ADF82640ADF817
:1043500028000B94B5F87A0005F1180307AA6946FE
:10436000AADF0FB030BD0000044880F839100449BE
:10437000012088710349487270470000903E002078
:10438000D0360020D032002030B58FB005461C2139
:104390006846FDF7D7FA00249DF80000019440F02C
:1043A0000A008DF80000039404940594069495F88F
:1043B0007C008DF8360042F60650ADF834000C94BF
:1043C0009DF83000142120F00F00401C20F0F00078
:1043D00010308DF830009DF8310020F00F00401CA7
:1043E00020F0F00010308DF831009DF8320020F000
:1043F0000600801C20F0100040F009008DF832000B
:1044000007A8FDF79FFA0DA807900CA808900120B7
:10441000ADF824000420ADF82640ADF828000B9438
:10442000B5F87A0005F1200307AA6946AADF0FB0A4
:1044300030BD0000044880F83A100449012088711A
:104440000349487270470000903E0020D03600209B
:10445000D03200200AF096BEF0B5B84AB8494FF005
:1044600080541368D4F830010978D4F83421451CFD
:10447000C1F3031106D0844601270025BCF1060FC5
:104480000BD102E003F0FF0CF6E7B4F82463DFF889
:10449000B4C2C6F30426CCF80060DEB2062E06D104
:1044A000032904D1DFF8A4C2A74ECCF87460461CDF
:1044B00004D08446BCF1060F0BD102E003F0FF0CE0
:1044C000F8E7D4F84462DFF888C2C6F34236CCF885
:1044D0000060DEB2062E08D1032906D19D4ED6F823
:1044E00000C02CF0807CC6F800C0461C04D0844676
:1044F000BCF1060F0CD102E003F0FF0CF8E74FF01F
:104500008046C6F80C51C6F81051914E361F3560E2
:10451000DEB2062E08D1032906D1DFF834C2032605
:104520000CF1640CCCF80060DEB2062E11D1032928
:104530000FD1DFF824C20526CCF80060864E78360D
:104540003760854E083635600CF1040C3F26CCF8F8
:104550000060461C06D084464FEA0206BCF1060FF6
:104560007ED103E003F0FF0C0E46F7E7032E7DD06B
:10457000042E7BD0794E3668DFF8E4C1CCF80060B9
:10458000764E361D36680CF1040CCCF80060734E84
:10459000083636680CF1040CCCF800606F4E0C360F
:1045A00036680CF1040CCCF800606C4E103636689E
:1045B0000CF1040CCCF80060684E143636680CF12F
:1045C000040CCCF80060654E18363668DFF890C1F0
:1045D0000CF1200CCCF80060604E1C3636680CF1F3
:1045E000040CCCF800605D4E203636680CF1040CEB
:1045F000CCF80060594E243636680CF1040CCCF827
:104600000060564E283636680CF1040CCCF8006079
:10461000524E2C3636680CF1040CCCF800604F4E2C
:1046200030363668DFF838C10CF1400CCCF8006049
:104630004A4E343636680CF1040CCCF80060474E14
:10464000383636680CF1040CCCF80060434E3C362A
:1046500036680CF1040CCCF80060404E403600E0A7
:1046600004E036680CF1040CCCF80060461C05D060
:104670004FEA000CBCF1060F09D102E003F0FF0C79
:10468000F8E7D4F85842374E04F04F043460441C25
:1046900003D00346062B09D101E0DBB2FAE7324929
:1046A0000B68DB0702D06FF001030B6006280AD10C
:1046B000032A08D0042A06D0052A04D02B48016812
:1046C00041F48061016023487438016841F470014D
:1046D0000160BFF34F8FBFF36F8F4FF01021D1F800
:1046E0000002002803DBD1F80402002822DA204A65
:1046F000176020480368002BFCD01523C1F8003256
:104700000468002CFCD0C1F8043201680029FCD0F8
:10471000156001680029FCD0BFF34F8F0D48F038B9
:104720000168154A01F4E06111430160BFF34F8F46
:1047300000BFFDE7124911480860F0BDE00F00F02E
:10474000E80F00F0403501400DF0ADBA00C0074061
:104750003C050040FCED00E0105600400404001051
:1047600020C50040E40E0040000400403C1700401B
:1047700004E5014000E401400400FA050090D00384
:10478000FC3500200148006800470000E0340020AC
:1047900038B5064C20680025002805D0044840683C
:1047A000804725602068009038BD0000000101406E
:1047B000F034002002E008C8121F08C1002AFAD114
:1047C00070477047002001E001C1121F002AFBD191
:1047D000704700000121202803DA8140054801408C
:1047E00003E0402802DA2038814009B101207047F7
:1047F00000207047FC06FFBD2DE9F843804643F2D8
:10480000020669B969460DF0F3F9B04204D018B157
:1048100028A2B121FBF700FD9DF80000800746D4D7
:10482000002140460DF0EEF9050040D0112D3ED09C
:104830002F483049401AC708022000EB07440D2DCD
:104840000AD00B2D1DD0B5421FD12B492046424620
:10485000BDE8F84309F022BF20464246274909F047
:104860001DFF1321404676DF002820D00AF066FDA8
:10487000024601B020464346BDE8F04320A109F0BE
:1048800014BF204642462C49E2E728460AF056FD6E
:104890000246012000EB0740434628A109F005FF2E
:1048A0002846BDE8F84303A2E021FBF7B5BCBDE80C
:1048B000F88300002E2E5C2E2E5C636F6D706F6E81
:1048C000656E74735C626C655C706565725F6D616A
:1048D0006E616765725C706565725F6D616E616760
:1048E00065725F68616E646C65722E630000000023
:1048F00098220500502205006C080500F807050005
:1049000073645F626C655F6761705F646973636F36
:104910006E6E65637428292072657475726E6564A5
:10492000202573206F6E20636F6E6E5F68616E640A
:104930006C652025642E0000B8080500417373657E
:104940007274696E672E20706D5F636F6E6E5F7339
:10495000656375726528292072657475726E656469
:10496000202573206F6E20636F6E6E5F68616E64CA
:104970006C652025642E000010B560B159B1027835
:104980000B785208B2EB530F05D10622401C491C8C
:10499000FCF7EAFF08B1002010BD012010BD800720
:1049A00001D00020704701207047C3688B4206D8B1
:1049B00011440069491E814201D80120704700203E
:1049C000704790F82400012801D01F207047EE2086
:1049D000704710B501220221002002F0FFFE08B14D
:1049E000072810D107220221012002F0F7FE08B1AA
:1049F000072808D100210A22084602F0EFFE08B17C
:104A0000072800D1002010BD00B5ABB0AC2168462E
:104A1000FCF798FF02208DF8000000218DF80210AD
:104A20000622ADF810008DF803201E4805900120E5
:104A30008DF87C004FF49670CDE92201194834308E
:104A4000818047F27771C18044F24441018145F28F
:104A500055514181AC210173417343F23331C1811E
:104A6000114829900F486946463018900F4801F0C8
:104A7000EFF820B10EA240F60131FBF7CDFB0B4859
:104A8000042290F85410012077DF20B108A240F6EC
:104A90000431FBF7C1FB0121044801F0D6F82BB02B
:104AA00000BD0000F6320020E1010400EC370020D8
:104AB0002E2E5C5372635C6D61696E2E6300000084
:104AC00010B588B10F481049401AC008032101EB06
:104AD00000400EA109F0DEFD0DF060FE002810D0B0
:104AE0000EA240F2E22108E00321104801F082F911
:104AF000002806D009A24FF43D71BDE81040FBF735
:104B00008BBB10BD48230500502205004572617320
:104B10006520626F6E647321000000002E2E5C53CE
:104B200072635C6D61696E2E63000000EC370020DB
:104B300070B58CB015460E4600236C46C3F10F01CC
:104B4000415CE1545B1C102BF8D30D2104F11000E3
:104B5000FCF7F8FE0020C0F10F02315C2244401C3B
:104B600011740328F7D3684646DF0020C0F10F0117
:104B7000214491F820102954401C0328F6D30CB08E
:104B800070BD00000149C97801F02ABB54340020EF
:104B900010B504468378827A41780078C2DF002815
:104BA00013D123796279E1882078D3DF00280CD1F2
:104BB000E1782078CDDF002807D1A178C90704D19A
:104BC0002189002901D02078D1DF10BD10B5174907
:104BD00090F82C200B789A4226D1497809B14029C7
:104BE00022D190F82D0007280ED005DC012810D026
:104BF000022819D10B200DE0082803D0802813D1FA
:104C0000072007E0012005E0BDE81040002009F082
:104C100035BF002002F0FCFD002805D0BDE81040A3
:104C200003A27C21FBF7F8BA10BD0000F835002084
:104C30002E2E5C2E2E5C636F6D706F6E656E7473BE
:104C40005C616E745C616E745F73746174655F69DE
:104C50006E64696361746F725C616E745F737461BA
:104C600074655F696E64696361746F722E630000BE
:104C700010B50C4609F0CAFE042C04D8BDE810405B
:104C8000014800F044B810BDF836002038B50A7865
:104C900002700023C360036143610C460093BDF8BA
:104CA000001001839DF802108176C361074808490E
:104CB000401AC008032101EB004006A109F0EEFCF8
:104CC0002046BDE83840FFF763BF000070230500B1
:104CD00050220500414E542048524D206368616EB9
:104CE0006E656C20257520696E69740004C940F8F2
:104CF0001C2B0EC90EC0002140F8103C40F8201CAF
:104D000040E90611A0F10C01103805F052BE70B553
:104D100083694FF47041B1FBF3F485684FF4C056DA
:104D2000FC358560D0E90421921941F10001C0E908
:104D300004214E0456EAD23107D06D1C8560018AE9
:104D40000022C1F30E01C0E90412B5FBF4F202FB2C
:104D500004F1002A0FD005686B730568EB890B44DA
:104D6000EB8105681B1BEB8303681C7B22441A73D1
:104D70008268511A816070BD816170474A88FF2343
:104D8000037043708370C270120A02710A78427114
:104D90004978817170470A680270130A4370120CD7
:104DA000827008460BF09CBF4A880B7803704270F3
:104DB000120A827008460BF0DDBF0A7802704A784A
:104DC00042708A78827008460CF018B84A880B78CE
:104DD00003704270120A827008460CF069B80246ED
:104DE000084692F82C100378994205D192F82D10BC
:104DF000032901D100F03AB8704730B4936883605A
:104E00005368436014789C7052785A700CB1012238
:104E100000E00222DA7000221A7101221A7030BCFE
:104E2000FFF734BF10B5044600F020F807480849E2
:104E30002278401AC008032101EB004005A109F0C7
:104E40002DFC20780021C4DF10BD00007023050078
:104E500050220500414E542048524D206368616E37
:104E60006E656C202575206F70656E001CB504465C
:104E700069460FF067F920786A460821C7DF0028E5
:104E800003D002A2EE21FBF7C7F91CBD2E2E5C2E2B
:104E90002E5C636F6D706F6E656E74735C616E74A3
:104EA0005C616E745F70726F66696C65735C616E75
:104EB000745F68726D5C616E745F68726D2E630002
:104EC00002480169491C0161704700005037002009
:104ED0000149CCDF70470000E8350020064900207A
:104EE000497819B1102903D0402904D1012000E0EC
:104EF000022002F08DBC7047F8350020024A107085
:104F00005170002002F084BCF835002070B50024F8
:104F1000064D06E06868012110F834000AF078FABE
:104F2000641C28788442F5D3002070BDF83400203A
:104F3000F8B516460C4605460A2A01D20720F8BDE8
:104F40000AF060FB18B90AF027FB0028F7D1134FCD
:104F5000102113487D603C70BE60FCF7F3FC00201C
:104F6000C7E904000F4E0DE005EBC4003168009165
:104F700081788DF8011000780B4A69460AF09AFA98
:104F80000028DCD1641EE4B2EED2BDE8F84005484A
:104F90000021064A001D00F041B90000F83400204D
:104FA000A84D0020C8D8040039A703007D8C030059
:104FB000FEB515460E46074672B609F01DFC00BF49
:104FC00009F050FA0028FBD12249234A0120891A0E
:104FD000C90800EB0144012F23D06FF4805038182A
:104FE00022D0B0F5405F24D06FF44051C84206D1C2
:104FF0002B88204619A16A6809F057FB04E0204677
:1050000032461DA109F04AFB21480068C00700D0C4
:1050100000BE2A4603B031463846BDE8F04000F0F5
:1050200079B820461BA101E0204622A109F032FBFD
:10503000EAE7A8680AF082F90346D5E90001CDE95C
:1050400000100296204624A1AA6809F049FB2046D8
:105050002BA1EBE74823050050220500415353459F
:105060005254494F4E204641494C454420617420DA
:1050700025733A2575000000554E4B4E4F574E2074
:105080004641554C54206174203078253038580002
:10509000F0ED00E0534F46544445564943453A200D
:1050A000415353455254494F4E204641494C454483
:1050B00000000000534F46544445564943453A20AA
:1050C000494E56414C4944204D454D4F525920417F
:1050D00043434553530000004552524F522025751B
:1050E000205B25735D2061742025733A25750D0AB8
:1050F00050432061743A2030782530387800000021
:10510000456E64206F66206572726F7220726570E2
:105110006F72740008B501238DF800309DF80030DF
:10512000144B186059609A606FF48041401807D0A2
:1051300001280FD1DA60D86800889861D86807E044
:105140001A6118698068586118690068986118695F
:105150004068D861186858689868D86818695869AC
:105160009869D86972B600BF9DF800000028FBD18D
:1051700062B608BDB84D002010B502280ED108480F
:105180000849401AC108032000EB0140044606A16B
:1051900009F080FA204610A109F07CFA012010BD28
:1051A0004823050050220500506F776572206D611D
:1051B0006E6167656D656E742077616E74732074BF
:1051C0006F20726573657420746F20444655206D9E
:1051D0006F64652E00000000506F776572206D616E
:1051E0006E6167656D656E7420616C6C6F77656468
:1051F00020746F20726573657420746F2044465567
:10520000206D6F64652E0000401A20F07F407047CB
:10521000014803F0CEBD0000183500203AB1006807
:105220000129426100D00021016100207047072060
:105230007047000038B51148082358224168009192
:105240000F49006807F0D1F9002815D10D4A6946C9
:105250000D4803F0B3FD04000ED101210A4803F00C
:1052600024FE0123094A1946074803F07AFD06493E
:10527000012008390870204638BD0000D0D804004D
:10528000E84D00209937040018350020FFFF7F000B
:1052900070B50446007F0D4608B1002070BDA261C4
:1052A00005F054F9401941F10001C4E902012069F7
:1052B00000B125612146BDE87040002010F0DCB847
:1052C000014600200877012010F0D6B830B5EFF382
:1052D000108172B60D4A9468012324B1037000292D
:1052E00000D162B630BD93604FF0E023D3F8805117
:1052F000074C25401560C3F88041D3F884415460C1
:105300005A17C3F8842100220270E8E7404E0020BB
:10531000FC06FFBD0B498A68002A11D000280FD176
:10532000EFF3108072B60B684FF0E022C2F8003144
:105330004B68C2F8043100228A60002800D162B6AE
:1053400070470000404E002010B5204C00224FF462
:1053500000412068FFF79CFF20B11DA240F67D01AF
:10536000FAF75AFF002240F21941A068FFF790FFB8
:1053700020B117A240F68301FAF74EFF002241F256
:10538000D351E068FFF784FF20B111A240F68601F7
:10539000FAF742FF00224FF4FA612069FFF778FF25
:1053A00020B10BA240F68A01FAF736FF4FF4005104
:1053B00000226068FFF76CFF002806D0BDE81040AF
:1053C00003A24FF40961FAF727BF10BDB0D404005F
:1053D0002E2E5C5372635C6D61696E2E630000005B
:1053E0002DE9F041064608680C46411C4FF0A047E5
:1053F0004FF0010506D005FA00F1C7F8081520683E
:1054000008F0E3FE6068411C02D0002108F0C1FEF4
:105410003168A069C1F82405607D227D31681043A0
:10542000C1F86C05D4E900123068C0F81425C0F842
:105430000C15207D012815D1A068411C02D0002147
:1054400008F0A7FEE068411C05D08540C7F8085564
:10545000E06808F0BAFED4E902123068C0F8082506
:10546000C0F81015BDE8F0812DE9F0410646086846
:105470000C46411C4FF0A0474FF0010506D005FA3D
:1054800000F1C7F80815206808F0A9FE6068411C03
:1054900002D0002108F086FE3168A069C1F8240519
:1054A000607D217D32680843C2F86C05D4E90012A2
:1054B0003068C0F80C15C0F81425207D012815D1DE
:1054C000A068411C02D0002108F06CFEE068411C7D
:1054D00005D08540C7F80855E06808F080FED4E99B
:1054E00002123068C0F80825C0F81015BDE8F08138
:1054F00005F030BF2DE9FC5F04464FF008084FF07F
:105500000109694605F0E2FA4C4A4D49511AC908A9
:10551000022202EB014548B109F010FF0246234682
:105520004849284609F0C1F8BDE8FC9FDFF818B1EA
:10553000DBF80000FFF7C4FE20B109F0FFFE0246D1
:1055400042A177E0FFF764FE484E3168FFF75CFE4A
:1055500000F0FCF90446FFF75BFEDFF814A100271A
:10556000C6F8000007EB87010AEB8106B07C58B350
:105570000622711C0DF10100FCF7F6F918BB307C16
:105580004FF47A6101FA00F2B2F57A4F00DA401C6A
:10559000307400228140C817B260C20342EA51420F
:1055A000C8034FF47A71401842F100014FF4FA62D7
:1055B0000023FCF75BF9F060A04200D8044601200C
:1055C00070744FF0000900E0B8467F1C082FC9D363
:1055D000B9F1000F20D0B8F1080F19D208EB8801FB
:1055E0000AEB810000990160BDF8041081809DF8EC
:1055F000061081710021017481604FF48031C16017
:105600008C4200D221460C4601214174817403E092
:1056100018A1284609F03EF8601C85D022461146A4
:10562000DBF80000FFF734FE0028F6D009F086FE14
:1056300002461AA1284609F031F875E75022050004
:1056400050220500BCFF04003CD604006170705F6E
:1056500074696D65725F73746F7028292072657448
:1056600075726E6564202573000000009833002079
:10567000004500204E6F20737061636520746F20B9
:10568000626C61636B6C69737420616E6F746865C2
:105690007220706565722049440000006170705F7F
:1056A00074696D65725F7374617274282920726504
:1056B0007475726E6564202573000000024A002133
:1056C0000248FFF7ABBD0000D95803003CD60400E8
:1056D0002DE9FC410446694605F0F8F970B109F07E
:1056E0002DFE0246124813492346401AC0080221E3
:1056F00001EB0040104908F0D8FF11E00F4E0024E4
:105700004FEA0D0704EB840006EB8005A87C50B13E
:105710000622691C781CFCF727F920B9687C10B1B7
:105720000120BDE8FC81641C082CEBD30020F8E7C5
:105730005022050050220500BCFF04000045002057
:105740002DE9F047814605884A484FF000088AB0A5
:1057500001784246284600F05BFD99F805004007B5
:1057600001D4002176E005F58077B8B205AB0122BF
:1057700007210BF027FE04003F48404A4FF001018B
:10578000A0EB02004FEAD00001EB00460AD0204611
:1057900009F0D4FD024630462B46394908F085FF12
:1057A000214629E0284605F0D1FA4FF6FF7104465C
:1057B00088422BD18A46069805F032FA04465045B5
:1057C00010D00146284605F0A1FA2846FFF7DAF97D
:1057D000E0B928460EF074FC2846FFF7D3F90028FC
:1057E000BFD013E00BF0BCFF0446504508D1304653
:1057F00024A108F04FFF042128460EF08FFCB0E7EB
:105800000146284605F082FA4FF00108B8B2224658
:1058100007210BF04FFE07001BD0862F1ED009F08A
:105820008DFD024630462B462349009408F045FF83
:10583000394628460EF072FC002148460BF0BAFCAF
:10584000B8F1000F02D0204605F06AFA0AB0BDE8B0
:10585000F087012148460BF0ADFCF7E71422174909
:105860006846FCF747F8ADF80250684603F068FD5B
:10587000EFE7000054340020A0220500502205006C
:10588000B40B0500436F756C64206E6F7420616CFF
:105890006C6F63617465206E657720706565725FFB
:1058A000696420666F7220696E636F6D696E672030
:1058B000626F6E642E000000800C050078D7040033
:1058C00008B5694600200AF095F808BD0149012095
:1058D00008717047D032002010B500F037F8044648
:1058E000FFF796FC0D490860601C16D00C48224654
:1058F00011460068FFF7CCFC00280ED009F01EFD11
:10590000024608480849BDE81040401AC008022174
:1059100001EB004005A108F0C1BE10BD9833002086
:105920003CD6040050220500502205006170705FD3
:1059300074696D65725F7374617274282920726571
:105940007475726E6564202573000000F0B504461E
:1059500000221C4E4FF0FF3013464FF4203500BF9D
:1059600002EB820106EB81018F7C27B34F7C7FB174
:10597000CF68A74205D93F1BCF6087421BD8384666
:1059800019E04B740F7CD7B1A84214D3284612E01B
:105990000F7CA7B18F6827448F60AF4206D30F7C7E
:1059A0007F1E0F748F68A7F520378F60C7F52031F1
:1059B000814200D80846521C082AD1D3F0BD8B740E
:1059C000F9E70000004500202DE9FC470025178875
:1059D0000646158090F82D001446894630B13A46A7
:1059E0002146484600F04CFD051E09D1B0784FF025
:1059F0000C0A18B32088C846001DB84202D9504688
:105A0000BDE8FC87684679DF0028F9D120880321AA
:105A100008F8001020881921401C80B2208008F866
:105A200000102088401C80B2208000EB0801BDF8E7
:105A300000000FF071FF218808442080F0780222D6
:105A4000C8B1218896F9033001F1030C4846BC45E2
:105A5000D5D8425421884FF0010C491C89B22180CD
:105A600000F801C02188491C89B2218009F8013061
:105A70002088401C20807068B8B1218890F90030DF
:105A800001F1030C4846BC45B9D8425421880A228A
:105A9000491C89B2218042542188491C89B2218045
:105AA00009F801302088401C2080308950B1CDE9B0
:105AB00000474B460622022106F1080010F080F84C
:105AC000051E9DD1308A50B1CDE900474B460722D3
:105AD000032106F1100010F073F8051E90D1308BF1
