:020000040002F8
:1060000020C20020DD630200E5630200E7630200B6
:10601000E9630200EB630200ED6302000000000090
:10602000000000000000000000000000EF6302001C
:10603000F163020000000000F3630200F563020058
:1060400025AC0200F763020099B502001DAE020004
:10605000F7630200F76302002D9E0200D5AC020038
:10606000F7630200F7630200F7630200F7630200C0
:10607000F76302009DAC0200F7630200F7630200C1
:1060800069B60200C5AC0200F7630200F7630200C4
:10609000F7630200F763020069B20200F7630200CF
:1060A000F7630200F7630200F7630200F763020080
:1060B0007DAC0200F7630200000000000000000059
:1060C000F76302008DAC0200F7630200F763020081
:1060D000F7630200F7630200F763020000000000AC
:1060E00000000000000000000000000000000000B0
:1060F00000000000000000000000000000000000A0
:10610000000000000000000000000000000000008F
:10611000000000000000000000000000000000007F
:10612000000000000000000000000000000000006F
:10613000000000000000000000000000000000005F
:10614000000000000000000000000000000000004F
:10615000000000000000000000000000000000003F
:10616000000000000000000000000000000000002F
:10617000000000000000000000000000000000001F
:10618000000000000000000000000000000000000F
:1061900000000000000000000000000000000000FF
:1061A00000000000000000000000000000000000EF
:1061B00000000000000000000000000000000000DF
:1061C00000000000000000000000000000000000CF
:1061D00000000000000000000000000000000000BF
:1061E00000000000000000000000000000000000AF
:1061F000000000000000000000000000000000009F
:10620000DFF80CD001F04EFE00480047CD36030009
:1062100020C2002000B583B002900091019244F2A8
:10622000010071466A4605F081FE03B000BD000022
:1062300030B450E8012F93B2C48923448489A34227
:1062400028BF1B1B0489A34202BFBFF32F8F00206E
:1062500007E0C3EA020340E80134002CE9D14FF023
:1062600001000A6030BC704750E8012FC2EA0242C8
:1062700040E801210029F7D1704730B450E8022FDF
:106280001FFAA2F3C488A34202BFBFF32F8F0020DE
:106290000DE0C48923448489A34228BF1B1BC2EAA2
:1062A000034340E80234002CE8D14FF001000A60BB
:1062B00030BC704750E8022FC2EA224240E8022177
:1062C0000029F7D17047034653E8022FD988B2EB73
:1062D000324F4FF0000017BF92B241EA014142EA4B
:1062E000014104E05A68B2EB324F08BF012043E895
:1062F0000212002AE8D1704730B4044654E8000F77
:106300000D4644E80053002BF8D1156030BC7047AF
:1063100030B4044654E8000F40EA010544E8005355
:10632000002BF7D1156030BC704730B4044654E8F8
:10633000000F00EA010544E80053002BF7D1156077
:1063400030BC704730B4044654E8000F80EA0105C1
:1063500044E80053002BF7D1156030BC704730B4CF
:10636000044654E8000F00EB010544E80053002BFD
:10637000F7D1156030BC704730B4044654E8000FC4
:10638000A0EB010544E80053002BF7D1156030BCA9
:10639000704770B404464FF0000054E8006F0D6879
:1063A000AE4207BF44E80023012044E800630E60CA
:1063B000002B1CBF0020F0E770BC704730B40446CF
:1063C00054E8000F88422CBF451A054644E80053A4
:1063D000002BF5D1156030BC70470000064880479F
:1063E00006480047FEE7FEE7FEE7FEE7FEE7FEE7BA
:1063F000FEE7FEE7FEE7FEE76DB202000162020083
:1064000070B491E87800B2E802105B1854EB0C0409
:10641000B2E802104D4156EB0C0680E8780080414E
:10642000013070BC704770B491E87800B2E8021097
:106430005B1A74EB0C04B2E802108D4176EB0C068B
:1064400080E878008041404270BC70472DE9F00739
:1064500091E8F807B2E802105B1854EB0C04B2E8BC
:1064600002104D4156EB0C06B2E802104F4158EBBA
:106470000C08B2E8021059EB01095AEB0C0A80E84B
:10648000F80780410130BDE8F00770472DE9F007BB
:1064900091E8F807B2E802105B1A74EB0C04B2E85A
:1064A00002108D4176EB0C06B2E802108F4178EBBA
:1064B0000C08B2E8021079EB01097AEB0C0A80E8CB
:1064C000F80780414042BDE8F00770472DE9F0072A
:1064D000524290E87800B1E880071740DB1918EACB
:1064E000020854EB080419EA020955EB09051AEAF7
:1064F000020A56EB0A0678C090E87800B1E88007F7
:1065000017407B4118EA020854EB080419EA020913
:1065100055EB09051AEA020A56EB0A0678C08041D3
:106520000130BDE8F00770472DE9F007524290E8CE
:106530007800B1E880071740DB1B18EA020874EB0B
:10654000080419EA020975EB09051AEA020A76EB52
:106550000A0678C090E87800B1E880071740BB4190
:1065600018EA020874EB080419EA020975EB090538
:106570001AEA020A76EB0A0678C080414042BDE87A
:10658000F007704790E8300091E8C000A31B13406B
:10659000E41AF618EB1B1340ED1AFF1830C0C0C107
:1065A0007047F0B55242FFF7EDFFFFF7EBFFFFF743
:1065B000E9FFFFF7E7FFF0BD2DE9F0073AC91668DC
:1065C000A1FB069A4FF0000CE3FB06AC4FF000076E
:1065D000E4FB06C74FF00008E5FB067840F8049B93
:1065E00056684FF00009E1FB06A91CEB090C4FF0BF
:1065F000000949EB0909E3FB06C917EB09074FF04E
:10660000000949EB0909E4FB067918EB09084FF08A
:10661000000949EB0909E5FB068940F804AB9668D7
:106620004FF0000AE1FB06CA17EB0A074FF0000A19
:106630004AEB0A0AE3FB067A18EB0A084FF0000A55
:106640004AEB0A0AE4FB068A19EB0A094FF0000A32
:106650004AEB0A0AE5FB069A40F804CBD6684FF0ED
:10666000000CE1FB067C18EB0C084FF0000C4CEB27
:106670000C0CE3FB068C19EB0C094FF0000C4CEBF7
:106680000C0CE4FB069C1AEB0C0A4FF0000C4CEBD4
:106690000C0CE5FB06AC80E88017BDE8F0077047FE
:1066A0000A462DE9F04F41EC140A92EC080A1EC983
:1066B00010EE100AA1FB00784FF00009E2FB008900
:1066C0004FF0000AE3FB009A4FF0000BE4FB00AB35
:1066D00012EE100A4FF0000CE1FB00BC4FF0000E70
:1066E000E2FB00CE4FF00005E3FB00E54FF00006B3
:1066F000E4FB005605EE107A10EE900A4FF000070A
:10670000E1FB008719EB07094FF0000747EB07078C
:10671000E2FB00971AEB070A4FF0000747EB070769
:10672000E3FB00A71BEB070B4FF0000747EB070746
:10673000E4FB00B712EE900A1CEB070C4FF00007C9
:1067400047EB0707E1FB00C71EEB070E4FF0000702
:1067500047EB0707E2FB00E7ED194FF0000747EBB7
:106760000707E3FB0057F6194FF0000747EB070751
:10677000E4FB006705EE908A11EE100A4FF0000866
:10678000E1FB00981AEB080A4FF0000848EB0808F4
:10679000E2FB00A81BEB080B4FF0000848EB0808D1
:1067A000E3FB00B81CEB080C4FF0000848EB0808AE
:1067B000E4FB00C813EE100A1EEB080E4FF00008B1
:1067C00048EB0808E1FB00E815EB08054FF000086E
:1067D00048EB0808E2FB005816EB08064FF00008EB
:1067E00048EB0808E3FB006817EB08074FF00008C8
:1067F00048EB0808E4FB007806EE109A11EE900AC8
:106800004FF00009E1FB00A91BEB090B4FF0000959
:1068100049EB0909E2FB00B91CEB090C4FF0000938
:1068200049EB0909E3FB00C91EEB090E4FF0000913
:1068300049EB0909E4FB00E913EE900A15EB0905A1
:106840004FF0000949EB0909E1FB005916EB090675
:106850004FF0000949EB0909E2FB006917EB090752
:106860004FF0000949EB0909E3FB007918EB09082F
:106870004FF0000949EB0909E4FB008906EE90AAF4
:1068800014EE901A01F110011EC910EE100A4FF01B
:10689000000AE1FB00BA1CEB0A0C4FF0000A4AEBBD
:1068A0000A0AE2FB00CA1EEB0A0E4FF0000A4AEB8E
:1068B0000A0AE3FB00EA15EB0A054FF0000A4AEB6F
:1068C0000A0AE4FB005A12EE100A16EB0A064FF011
:1068D000000A4AEB0A0AE1FB006A17EB0A074FF0CD
:1068E000000A4AEB0A0AE2FB007A18EB0A084FF0AA
:1068F000000A4AEB0A0AE3FB008A19EB0A094FF087
:10690000000A4AEB0A0AE4FB009A07EE10BA10EEFE
:10691000900A4FF0000BE1FB00CB1EEB0B0E4FF08B
:10692000000B4BEB0B0BE2FB00EB15EB0B054FF0F9
:10693000000B4BEB0B0BE3FB005B16EB0B064FF076
:10694000000B4BEB0B0BE4FB006B12EE900A17EB0A
:106950000B074FF0000B4BEB0B0BE1FB007B18EB35
:106960000B084FF0000B4BEB0B0BE2FB008B19EB12
:106970000B094FF0000B4BEB0B0BE3FB009B1AEBEF
:106980000B0A4FF0000B4BEB0B0BE4FB00AB07EEDD
:1069900090CA11EE100A4FF0000CE1FB00EC15EB71
:1069A0000C054FF0000C4CEB0C0CE2FB005C16EB02
:1069B0000C064FF0000C4CEB0C0CE3FB006C17EBDF
:1069C0000C074FF0000C4CEB0C0CE4FB007C13EEBE
:1069D000100A18EB0C084FF0000C4CEB0C0CE1FB10
:1069E000008C19EB0C094FF0000C4CEB0C0CE2FB8B
:1069F000009C1AEB0C0A4FF0000C4CEB0C0CE3FB68
:106A000000AC1BEB0C0B4FF0000C4CEB0C0CE4FB44
:106A100000BC08EE10EA11EE900A4FF0000EE1FB08
:106A2000005E16EB0E064FF0000E4EEB0E0EE2FB74
:106A3000006E17EB0E074FF0000E4EEB0E0EE3FB51
:106A4000007E18EB0E084FF0000E4EEB0E0EE4FB2E
:106A5000008E13EE900A19EB0E094FF0000E4EEB6C
:106A60000E0EE1FB009E1AEB0E0A4FF0000E4EEBED
:106A70000E0EE2FB00AE1BEB0E0B4FF0000E4EEBCA
:106A80000E0EE3FB00BE1CEB0E0C4FF0000E4EEBA7
:106A90000E0EE4FB00CE14EE100AA0EC075A80E8BC
:106AA000E05FBDE8F08F00BF30B44FF0000310F896
:106AB000014B11F8015B013A84EA050443EA04033F
:106AC000F5D1A3F101034FEAD37030BC70474FF00A
:106AD000000310F8012B013943EA0203F9D1A3F1B5
:106AE00001034FEAD370704711F8013B00F8013BF6
:106AF000013AF9D17047002200F8012B0139FBD18E
:106B0000704700BF2DE9F00791E8F807B2E80210DE
:106B10005B1854EB0C04B2E802104D4156EB0C0626
:106B2000B2E802104F4158EB0C08B2E8021059EBE2
:106B300001095AEB0C0A8941B3F1FF3374F1FF34B8
:106B400075F1FF3576F1000677F1000778F100085E
:106B500079F101097AF1FF3A51F100014A425B18DB
:106B60004C414D4156F1000657F1000758F100081D
:106B700059EB02095AEB010A80E8F807BDE8F00773
:106B800070472DE9F00791E8F807B2E802105B1AA8
:106B900074EB0C04B2E802108D4176EB0C06B2E8FF
:106BA00002108F4178EB0C08B2E8021079EB010972
:106BB0007AEB0C0A89414A425B184C414D4156F12F
:106BC000000657F1000758F1000859EB02095AEB8B
:106BD000010A80E8F807BDE8F00770470A462DE98A
:106BE000F04F41EC140A92EC080A1EC910EE100A8C
:106BF000A1FB00784FF00009E2FB00894FF0000A8A
:106C0000E3FB009A4FF0000BE4FB00AB12EE100A1E
:106C10004FF0000CE1FB00BC4FF0000EE2FB00CE99
:106C20004FF00005E3FB00E54FF00006E4FB0056E3
:106C300005EE107A10EE900A4FF00007E1FB008796
:106C400019EB07094FF0000747EB0707E2FB009736
:106C50001AEB070A4FF0000747EB0707E3FB00A713
:106C60001BEB070B4FF0000747EB0707E4FB00B7F0
:106C700012EE900A1CEB070C4FF0000747EB0707DA
:106C8000E1FB00C71EEB070E4FF0000747EB0707BD
:106C9000E2FB00E7ED194FF0000747EB0707E3FBC6
:106CA0000057F6194FF0000747EB0707E4FB0067B2
:106CB00005EE908A11EE100A4FF00008E1FB0098F3
:106CC0001AEB080A4FF0000848EB0808E2FB00A89E
:106CD0001BEB080B4FF0000848EB0808E3FB00B87B
:106CE0001CEB080C4FF0000848EB0808E4FB00C858
:106CF00013EE100A1EEB080E4FF0000848EB0808D0
:106D0000E1FB00E815EB08054FF0000848EB080828
:106D1000E2FB005816EB08064FF0000848EB0808A5
:106D2000E3FB006817EB08074FF0000848EB080882
:106D3000E4FB007806EE109A11EE900A4FF000097D
:106D4000E1FB00A91BEB090B4FF0000949EB090916
:106D5000E2FB00B91CEB090C4FF0000949EB0909F3
:106D6000E3FB00C91EEB090E4FF0000949EB0909CE
:106D7000E4FB00E913EE900A15EB09054FF000095A
:106D800049EB0909E1FB005916EB09064FF0000930
:106D900049EB0909E2FB006917EB09074FF000090D
:106DA00049EB0909E3FB007918EB09084FF00009EA
:106DB00049EB0909E4FB008906EE90AA14EE901A4B
:106DC00001F110011EC910EE100A4FF0000AE1FB9C
:106DD00000BA1CEB0A0C4FF0000A4AEB0A0AE2FB6D
:106DE00000CA1EEB0A0E4FF0000A4AEB0A0AE3FB48
:106DF00000EA15EB0A054FF0000A4AEB0A0AE4FB29
:106E0000005A12EE100A16EB0A064FF0000A4AEB7F
:106E10000A0AE1FB006A17EB0A074FF0000A4AEB87
:106E20000A0AE2FB007A18EB0A084FF0000A4AEB64
:106E30000A0AE3FB008A19EB0A094FF0000A4AEB41
:106E40000A0AE4FB009A07EE10BA10EE900A4FF01F
:106E5000000BE1FB00CB1EEB0B0E4FF0000B4BEBDE
:106E60000B0BE2FB00EB15EB0B054FF0000B4BEBB4
:106E70000B0BE3FB005B16EB0B064FF0000B4BEB31
:106E80000B0BE4FB006B12EE900A17EB0B074FF0B5
:106E9000000B4BEB0B0BE1FB007B18EB0B084FF0EF
:106EA000000B4BEB0B0BE2FB008B19EB0B094FF0CC
:106EB000000B4BEB0B0BE3FB009B1AEB0B0A4FF0A9
:106EC000000B4BEB0B0BE4FB00AB07EE90CA11EE93
:106ED000100A4FF0000CE1FB00EC15EB0C054FF035
:106EE000000C4CEB0C0CE2FB005C16EB0C064FF0BC
:106EF000000C4CEB0C0CE3FB006C17EB0C074FF099
:106F0000000C4CEB0C0CE4FB007C13EE100A18EBAD
:106F10000C084FF0000C4CEB0C0CE1FB008C19EB57
:106F20000C094FF0000C4CEB0C0CE2FB009C1AEB34
:106F30000C0A4FF0000C4CEB0C0CE3FB00AC1BEB11
:106F40000C0B4FF0000C4CEB0C0CE4FB00BC08EEFF
:106F500010EA11EE900A4FF0000EE1FB005E16EB16
:106F60000E064FF0000E4EEB0E0EE2FB006E17EB1E
:106F70000E074FF0000E4EEB0E0EE3FB007E18EBFB
:106F80000E084FF0000E4EEB0E0EE4FB008E13EEDB
:106F9000900A19EB0E094FF0000E4EEB0E0EE1FBBE
:106FA000009E1AEB0E0A4FF0000E4EEB0E0EE2FBA7
:106FB00000AE1BEB0E0B4FF0000E4EEB0E0EE3FB84
:106FC00000BE1CEB0E0C4FF0000E4EEB0E0EE4FB61
:106FD00000CE53EC172A18EE104A12EB0A0253EBBC
:106FE0000B0354EB0C0455EB0E05002040F10000A0
:106FF00012EB0B0253EB0C0354EB0E0455EB0E0596
:1070000046410020474158EB000859EB0A0940F17E
:107010000000B2EB0E0273F1000374F1000475EB93
:107020000A0576EB0B0677EB0C0778EB0A0879EB91
:107030000C0960F10000B5EB0B0576EB0C0677EB65
:107040000E0778EB0B0879EB0E0960F100005FEAA0
:10705000E07C7FEA0C0CDCF1000EB2EB0C0273EB6F
:107060000C0374EB0C0475F1000576F1000677F162
:10707000000778EB0E0879EB0C0960F100005FEA7D
:10708000E07CDCF1000E12EB0C0253EB0C0354EB32
:107090000C0455F1000556F1000657F1000758EBB6
:1070A0000E0859EB0C0940F100005FEAE07CDCF1CE
:1070B000000E12EB0C0253EB0C0354EB0C0455F1D5
:1070C000000556F1000657F1000758EB0E0859EB82
:1070D0000C095BEC15AA51EC160A1AEB060A5BEBDD
:1070E000070B50EB080051EB09015FF0000C4CF16D
:1070F000000C1AEB070A5BEB080B50EB090051EB95
:10710000090152EB0C025FF0000C53EB0C0354EB43
:107110000C0475414CF1000CBAEB090A7BF1000B31
:1071200070F10000B141BA4173EB0803B44175EB53
:1071300008056CF1000CC91B72EB080273EB090324
:10714000BC4175EB09056CF1000C5FEAEC787FEA55
:107150000808D8F10009BAEB080A7BEB080B70EBC2
:10716000080071F1000172F1000273F1000374EB89
:10717000090475EB08056CF1000C5FEAEC78D8F1B6
:1071800000091AEB080A5BEB080B50EB080051F101
:10719000000152F1000253F1000354EB090455EBD6
:1071A00008054CF1000C5FEAEC78D8F100091AEB05
:1071B000080A5BEB080B50EB080051F1000152F19B
:1071C000000253F1000354EB090455EB080514EEDB
:1071D000107AA7E8000C87E83F00BDE8F08F00BFF9
:1071E0002DE9F00791E8F807B2E802105B1854EBBC
:1071F0000C04B2E802104D4156EB0C06B2E8021046
:107200004F4158EB0C08B2E8021059EB01095AEB58
:107210000C0A4FF0260261EB010122EA01015B1822
:1072200054F1000455F1000556F1000657F100072E
:1072300058F1000859F100095AF1000A61EB010107
:1072400022EA01010B4480E8F807BDE8F007704727
:107250002DE9F00791E8F807B2E802105B1A74EB29
:107260000C04B2E802108D4176EB0C06B2E8021075
:107270008F4178EB0C08B2E8021079EB01097AEB48
:107280000C0A4FF0260261EB010102EA01015B1AD0
:1072900074F1000475F1000576F1000677F100073E
:1072A00078F1000879F100097AF1000A61EB010137
:1072B00002EA0101A3EB010380E8F807BDE8F0074B
:1072C00070470A462DE9F04F41EC140A92EC080A87
:1072D0001EC910EE100AA1FB00784FF00009E2FB76
:1072E00000894FF0000AE3FB009A4FF0000BE4FB2B
:1072F00000AB12EE100A4FF0000CE1FB00BC4FF0A7
:10730000000EE2FB00CE4FF00005E3FB00E54FF07E
:107310000006E4FB005605EE107A10EE900A4FF0DE
:107320000007E1FB008719EB07094FF0000747EB67
:107330000707E2FB00971AEB070A4FF0000747EB3D
:107340000707E3FB00A71BEB070B4FF0000747EB1A
:107350000707E4FB00B712EE900A1CEB070C4FF096
:10736000000747EB0707E1FB00C71EEB070E4FF0D6
:10737000000747EB0707E2FB00E7ED194FF00007B6
:1073800047EB0707E3FB0057F6194FF0000747EB01
:107390000707E4FB006705EE908A11EE100A4FF034
:1073A0000008E1FB00981AEB080A4FF0000848EBD0
:1073B0000808E2FB00A81BEB080B4FF0000848EBA5
:1073C0000808E3FB00B81CEB080C4FF0000848EB82
:1073D0000808E4FB00C813EE100A1EEB080E4FF07D
:1073E000000848EB0808E1FB00E815EB08054FF042
:1073F000000848EB0808E2FB005816EB08064FF0BF
:10740000000848EB0808E3FB006817EB08074FF09B
:10741000000848EB0808E4FB007806EE109A11EE2D
:10742000900A4FF00009E1FB00A91BEB090B4FF09C
:10743000000949EB0909E2FB00B91CEB090C4FF00C
:10744000000949EB0909E3FB00C91EEB090E4FF0E7
:10745000000949EB0909E4FB00E913EE900A15EB7A
:1074600009054FF0000949EB0909E1FB005916EB4A
:1074700009064FF0000949EB0909E2FB006917EB27
:1074800009074FF0000949EB0909E3FB007918EB04
:1074900009084FF0000949EB0909E4FB008906EEF1
:1074A00090AA14EE901A01F110011EC910EE100AF4
:1074B0004FF0000AE1FB00BA1CEB0A0C4FF0000A87
:1074C0004AEB0A0AE2FB00CA1EEB0A0E4FF0000A62
:1074D0004AEB0A0AE3FB00EA15EB0A054FF0000A43
:1074E0004AEB0A0AE4FB005A12EE100A16EB0A06EF
:1074F0004FF0000A4AEB0A0AE1FB006A17EB0A07A1
:107500004FF0000A4AEB0A0AE2FB007A18EB0A087D
:107510004FF0000A4AEB0A0AE3FB008A19EB0A095A
:107520004FF0000A4AEB0A0AE4FB009A07EE10BA91
:1075300010EE900A4FF0000BE1FB00CB1EEB0B0EA0
:107540004FF0000B4BEB0B0BE2FB00EB15EB0B05CD
:107550004FF0000B4BEB0B0BE3FB005B16EB0B064A
:107560004FF0000B4BEB0B0BE4FB006B12EE900AA1
:1075700017EB0B074FF0000B4BEB0B0BE1FB007B0A
:1075800018EB0B084FF0000B4BEB0B0BE2FB008BE7
:1075900019EB0B094FF0000B4BEB0B0BE3FB009BC4
:1075A0001AEB0B0A4FF0000B4BEB0B0BE4FB00ABA1
:1075B00007EE90CA11EE100A4FF0000CE1FB00EC50
:1075C00015EB0C054FF0000C4CEB0C0CE2FB005CD7
:1075D00016EB0C064FF0000C4CEB0C0CE3FB006CB4
:1075E00017EB0C074FF0000C4CEB0C0CE4FB007C91
:1075F00013EE100A18EB0C084FF0000C4CEB0C0CBF
:10760000E1FB008C19EB0C094FF0000C4CEB0C0C5F
:10761000E2FB009C1AEB0C0A4FF0000C4CEB0C0C3C
:10762000E3FB00AC1BEB0C0B4FF0000C4CEB0C0C19
:10763000E4FB00BC08EE10EA11EE900A4FF0000ED9
:10764000E1FB005E16EB0E064FF0000E4EEB0E0E49
:10765000E2FB006E17EB0E074FF0000E4EEB0E0E26
:10766000E3FB007E18EB0E084FF0000E4EEB0E0E03
:10767000E4FB008E13EE900A19EB0E094FF0000E9A
:107680004EEB0E0EE1FB009E1AEB0E0A4FF0000EC1
:107690004EEB0E0EE2FB00AE1BEB0E0B4FF0000E9E
:1076A0004EEB0E0EE3FB00BE1CEB0E0C4FF0000E7B
:1076B0004EEB0E0EE4FB00CE4FF0260153EC152AE4
:1076C0004FF00000E6FB01201B184FF0000040EBDC
:1076D0000000E7FB013057EC166A36184FF0000047
:1076E00040EB0000E8FB01603F184FF0000040EB6A
:1076F0000000E9FB017059EC178A18EB00084FF005
:10770000000040EB0000EAFB018019EB00094FF09C
:10771000000040EB0000EBFB019018EE10AA1AEB02
:10772000000A4FF0000040EB0000ECFB01A02D1818
:107730004FF0000040EB0000EEFB015000FB01F0B9
:10774000121853F1000356F1000657F1000758F1E3
:10775000000859F100095AF1000A55F1000B60EBDD
:10776000000021EA0000024414EE100A80E8CC0F69
:10777000BDE8F08F2DE9F00791E8F0174EF6A15122
:107780004FEA4101A4FB01234FF00004E5FB013463
:107790004FF00005E6FB01454FF00006E7FB015600
:1077A0004FF00007E8FB01674FF00008E9FB0178A4
:1077B0004FF00009EAFB01894FF0000AECFB019A47
:1077C0004FF026010AFB01FA12EB0A0253F1000303
:1077D00054F1000455F1000556F1000657F1000779
:1077E00058F1000859F100096AEB0A0A21EA0A0176
:1077F0000A4480E8FC03BDE8F00770472DE9F00378
:1078000090E8F8134FEAEC7202F013022CF0004CEF
:1078100002F11301591854F1000155F1000156F11C
:10782000000157F1000158F1000159F100015CF12C
:1078300000014FEAE17101F0130111445B1854F1AA
:10784000000455F1000556F1000657F1000758F104
:10785000000859F100094CF1000C2CF0004C80E8B4
:10786000F813BDE8F00370472DE9F05F05460020EE
:1078700092469B4688460646814640241BE02846A1
:1078800041464746224600F057FA53465A46C01A28
:10789000914110D311461846224600F016F82D1AD1
:1078A00067EB01084F4622460120002100F00DF849
:1078B00017EB00094E41201EA4F10104DFDC48460D
:1078C00031462A464346BDE8F09F202A04DB203A91
:1078D00000FA02F1002070479140C2F1200320FA23
:1078E00003F319439040704700487047E083040059
:1078F00010B5441A0346944209D28418114403E097
:1079000011F8013D04F8013D521EF9D210BD40EAC4
:107910000104A40703D009E010C9121F10C3042AF0
:10792000FAD203E011F8014B03F8014B521EF9D2D1
:1079300010BDD2B201E000F8012B491EFBD2704706
:107940000022F6E710B513460A4604461946FFF72B
:10795000F0FF204610BD421C10F8011B0029FBD18E
:10796000801A704730B504460020034600E05B1CD7
:10797000934203D2E05CCD5C401BF8D030BD2DE9D2
:10798000FE4F804681EA0300C00F0C46009021F0B4
:10799000004123F00045B8EB0200A94105D2404662
:1079A000214690461C460B46024623F000401043F9
:1079B00047D0270DC7F30A00C3F30A510290401ABB
:1079C000019040286BDAC3F3130040F4801B009849
:1079D000924620B10023D2EB030A63EB0B0B019814
:1079E0005946C0F140025046FFF76FFF06460D466C
:1079F00050465946019A00F0AFF910EB080061417A
:107A0000002487EA115284EAE7731A4340D0009AAF
:107A100062B3019A012A4FEA075215DC001B61EBA1
:107A200002014FF0004202EA0752CDE90042001C79
:107A300041F5801132462B4600F0E6F903B0BDE86F
:107A4000F08F40462146F9E7001B61EB0201001C64
:107A500041F5801300185B412018A2F5001747EB91
:107A6000030140EAD570B6196D4111E06D084FEA87
:107A7000360645EAC0754FEA0752001B61EB02016A
:107A8000001C41F5801149084FEA300000195141AE
:107A900032462B4603B0BDE8F04F00F0A6B900987F
:107AA000012240000023D0EB020263EBE073009858
:107AB00021464FEAE074B8EB000061EB0401E9E70E
:107AC00083F000435BE781F0004158E72DE9FE4F6A
:107AD00081EA030404F0004421F0004100944FF0D7
:107AE000000B23F0004350EA01045ED052EA030485
:107AF0005BD0C3F30A54C1F30A552C44A4F2F33407
:107B00000194A0FB0254C1F3130141F48011C3F3AB
:107B1000130343F4801301FB024400FB034E840A69
:107B2000970A44EA815447EA8357A4FB0768029501
:107B30008D0A05FB07854FEA932C04FB0C5427059F
:107B4000029D4FEA065847EA1637B5EB08056EEB7B
:107B5000070C870E920E47EA811742EA8312A7FBB1
:107B60000201B6EB0B0164EB00042B0D43EA0C336E
:107B70005E1844EB1C50DA465146E7FB0201C5F3A0
:107B800013044FEA0B3343EA14534FEA0432019CC7
:107B900043EA0603A4F10C040294009CCDE900B46E
:107BA00000F032F903B0BDE8F08F00200146F9E79C
:107BB0002DE9F04D81EA030404F0004B21F000456B
:107BC00014464FF0000A23F0004150EA050220D08D
:107BD00054EA01021DD0C5F30A570246C5F3130348
:107BE000C1F31300C1F30A5640F4801543F4801327
:107BF000A7EB0608101BD64608F2FD3873EB05000C
:107C000002D308F1010801E092185B41B8F1000FBE
:107C100003DA00200146BDE8F08D00204FF480110A
:107C2000064684460EE0171B73EB050705D3121BAF
:107C300063EB050306434CEA010C49084FEA3000A8
:107C400092185B4150EA0107EDD152EA030012D0CD
:107C500082EA040083EA0501084305D0101BAB410A
:107C600006D20122002306E000224FF0004302E08A
:107C70006FF0010253101AEB06004CEB085110EBA9
:107C80000A0041EB0B01BDE8F04D00F0AEB80EB5B7
:107C900040F2334102910021CDE900110A460B4622
:107CA00000F0B2F803B000BDC1F30A5210B5C1F341
:107CB000130140F2FF3341F480119A4201DA0020AF
:107CC00010BD40F233439A42A2F2334203DC5242E7
:107CD00000F032F810BD904010BD00F0004230F0CE
:107CE00000400AD0C10D01F56071C0F3160042EAF0
:107CF0000151C208400711437047002001467047F8
:107D000001F0004330B421F0004150EA010206D0F6
:107D10000A0DA2F56072C1F31301002A02DC30BC27
:107D200000207047440F44EAC104C100E01830BC91
:107D300000EBC25000F022B8202A04DB203A21FADE
:107D400002F00021704721FA02F3D040C2F1200274
:107D50009140084319467047202A06DBCB17203A8A
:107D600041FA02F043EAE07306E041FA02F3D04040
:107D7000C2F1200291400843194670470029A8BF6C
:107D80007047401C490008BF20F00100704710B444
:107D9000B0FA80FC00FA0CF050EA010404BF10BCF9
:107DA000704749B1CCF1200421FA04F411FA0CF126
:107DB00018BF012121430843A3EB0C01CB1D4FEA5F
:107DC00000614FEA102042BF002010BC704700EB5A
:107DD000C35010440029A4BF10BC7047401C490088
:107DE00008BF20F0010010BC704710B5141E73F1DD
:107DF000000408DA401C41F1000192185B411A436B
:107E000001D120F0010010BD2DE9F04D92469B46B6
:107E100011B1B1FA81F202E0B0FA80F2203290465C
:107E2000FFF753FD04460F4640EA0A0041EA0B0102
:107E300053465A46084313D0114653EA010019D05D
:107E4000C8F140025046FFF777FF05460E46504600
:107E500059464246FFF739FD084305D0012004E0AA
:107E600020463946BDE8F08D0020054346EAE0761D
:107E70002C4337430A986305E40AA0EB080000226C
:107E8000FD0A44EA47540A3002D500200146E9E7DA
:107E9000010510196941DDE9084500196941BDE88E
:107EA000F04DA2E7064C074D06E0E06840F0010304
:107EB00094E8070098471034AC42F6D3FEF7A4F9D3
:107EC000C0A60400E0A6040070B58C1810F8015B91
:107ED00015F0070301D110F8013B2A1106D110F863
:107EE000012B03E010F8016B01F8016B5B1EF9D167
:107EF0002B0705D40023521E0DD401F8013BFAE7ED
:107F000010F8013BCB1A921C03E013F8015B01F857
:107F1000015B521EF9D5A142D8D3002070BD0000EC
:107F20002DE9F0410446B0B00D460A46684604F11A
:107F30002007002100F0C0F804F140083A4621462D
:107F400010A804F16006FFF7BDF94146324618A8B3
:107F5000FFF7B8F94246394620A8FFF7B3F9324691
:107F6000214628A8FFF7AEF9EB0F6A4610A9204674
:107F700000F000F930B0BDE8F08100BF2DE9F0411C
:107F80000446B0B00D460A46684604F120070121B8
:107F900000F092F804F140083A46214610A804F196
:107FA0006006FFF78FF94146324618A8FFF78AF9B5
:107FB0004246394620A8FFF785F93246214628A8CF
:107FC000FFF780F9EB0F6A4610A9204600F0D2F8BF
:107FD00030B0BDE8F08100BF2DE9F0410446B0B0FB
:107FE000684604F12006884604F1400700F096F840
:107FF00004F160053246214610A8FFF763F93946BF
:108000002A4618A8FFF75EF93A46314620A8FFF73E
:1080100059F92A46214628A8FFF754F94FEAD873A0
:108020006A4610A9204600F0A5F830B0BDE8F081FE
:1080300070B5A0B0044601F1200668460D46FFF772
:1080400040F9314608A8FFF73CF905F1400110A8B6
:10805000FFF737F910AA11461046FFF7C1F8694635
:1080600018A800F0D1FB324629462046FFF7B8F8A1
:1080700021462046FFF725F96A4621462046FFF7AC
:10808000E7F804F1400508AA21462046FFF7E0F88A
:10809000284608AA18A9FFF7A3F810AA294604F150
:1080A0002000FFF7D5F808AA18A904F16000FFF72F
:1080B000CFF820B070BD00BF2DE9F84302EBE276A7
:1080C00086EAE27680460C46002100F093FB08F138
:1080D0002007711EC90F38460F4D00F08BFB05EBD2
:1080E000442540354FF0010986EA0904013CE40FBC
:1080F000294622464046FEF7E9F909F1010905F152
:10810000200122463846FEF7E1F9B9F1090F05F1E1
:108110004005E9D1BDE8F883E09F04002DE9F8436C
:1081200001EBE177814687EAE177002100F062FB0D
:1081300009F12008791EC90F404600F05BFB0C4E88
:10814000012587EA0504013CE40F314622464846F2
:10815000FEF7BCF9013506F1200122464046FEF744
:10816000B5F9092D06F14006EBD1BDE8F88300BF53
:1081700020A404002DE9F0430D46A1B001F120092F
:108180001646044649462A466846984606F12007A0
:10819000FFF75EF849462A4608A8FFF721F8394656
:1081A000324610A8FFF754F83946324618A8FFF7B0
:1081B00017F8424618A910A8FEF7F3F910AA694665
:1081C0006846FFF77FF808A918AA0846FFF77AF86B
:1081D0003A46314610A8FFF775F810A905F160027C
:1081E0000846FFF76FF810A90846144AFFF76AF827
:1081F00005F14002114618A8FEF7F2FF6A4608A9E9
:108200002046FFF725F804F120056A4608A904F185
:108210006000FEF7E5FF4034284610AA18A9FFF7D2
:1082200017F810AA18A92046FEF7DAFF4246294699
:108230002046FEF7B6F921B0BDE8F08320A6040081
:108240002DE9F047CC7F0D78C0B00B4604F03F0419
:108250004978D3F804C093F802809F68D3F810A03F
:10826000DE688DF8411044F04004114625F0070502
:108270005A698DF85F409C6993F803E08DF840508F
:108280008DF842801D7F93F81D809B7F8DF843E021
:1082900081466846CDE911C78DF85E30CDE91524D9
:1082A000CDE9136A8DF85D808DF85C5000F086FA98
:1082B0002022694618A8FEF717FC6846012100F045
:1082C00099FA08A8002100F095FA18A920A8202200
:1082D000FEF70AFC28A8012100F08CFA18AF0DF176
:1082E00040084FF0060A002417F8016D46FA0AF517
:1082F00005F001056C40224620A96846FEF751F9B9
:10830000224628A908A8FEF74CF908AA694630A811
:10831000FEF766FF08AA10466946FEF799FF28AAED
:1083200020A938A8FEF75CFF28AA104620A9FEF76E
:108330008FFF38A9084608AAFEF7C4FF28A90846F7
:1083400030AAFEF7BFFF38AA28A920A8FEF748FFE9
:1083500028A938AA0846FEF77BFF20A90846FEF7A1
:10836000B0FF28A90846FEF7ACFF28A918AA0846BE
:10837000FEF7A8FF30A90846FEF7A3FF08A938A812
:10838000FEF79FFF38AA30A96846FEF79BFF30A989
:1083900038AA0846FEF75CFF30A908A8FFF7EAF9FB
:1083A00008A9084638AAFEF71BFF08A90AF1FF3AF8
:1083B00030AA0846FEF786FFBAF1FF3F2C4695D15A
:1083C00047454FF0070A8FD108A90846012200F05F
:1083D0002DFA08AA69466846FEF774FF69464846C2
:1083E00000F036FB40B0BDE8F08700BF014AFFF760
:1083F00027BF00BF9C9C040070B500F1200590B021
:108400000E46044600F058FB06F12001284600F015
:1084100053FB214608A8FEF7E1FB08A908460C4AD1
:10842000FEF770FB08A922460846FEF7D8FB08A90C
:108430000846084AFEF766FB29466846FEF7CEFB6B
:10844000694608A82022FEF72FFB013810B070BD46
:1084500040A6040060A604002DE9F047B8B08A46A3
:108460008146114610A8514AFEF710F850490246BD
:1084700010A8FEF72BF8179F4C4900EAD7778046E3
:10848000C7F1010210A8FEF721F8179D524628A94E
:1084900018A8ED4301F088F8ED0F20A9C5F10102FD
:1084A000084600F0EDFAC8F10108FE266A4618A950
:1084B00028A801F02DF8731138AA02EB830306F007
:1084C0001F0253F8A04CD44004F0010465402A4632
:1084D00028A918A8FEF765F82A4630A920A8FEF7B3
:1084E00060F8013E28A918A800F0ACFF731C2546CF
:1084F000DCD1C4F1010208A820A900F0C1FA7D4036
:108500006A4618A928A801F003F828A92A4618A83D
:10851000FEF747F82A4630A920A8FEF742F808A936
:108520006A460846FEF75BFB08A9084600F0DEFA3B
:1085300008A909F120040AF120020846FEF74FFBC2
:1085400020A908AA2046FEF74AFB08AA18A96846EF
:10855000FEF745FB69466846FEF740FB18AA6946E8
:1085600008A8FEF73CFB21466846FEF737FB08AA41
:1085700069461046FEF705FB08A90E4A6846FEF755
:1085800000FB20462021FEF7A2FA08A9434202463A
:10859000684643EA0808FEF704F848466946064A72
:1085A000FEF71DFB404638B0BDE8F087A0A60400EA
:1085B000809F040060A60400A09F04000A460149B1
:1085C000FFF74ABFBC9C040000F040BB38B504462E
:1085D0000D4600F03BFB05F1200104F12000BDE851
:1085E000384000F033BB00BF30B5A9B01446054693
:1085F000684600F09DFB214618A8FFF7FDFE6A467D
:1086000018A9044608A8FFF727FF08A9044328462D
:10861000FFF7DAFF204629B030BD00BF30B599B072
:108620000546684600F084FB694608A8FFF7C6FFC8
:1086300008A904462846FFF7C9FF204619B030BDF7
:1086400010B52022B0B004460DEB020000F098FBFC
:108650009DF83F309DF8202003F07F0343F0400356
:1086600022F0070208A968468DF83F308DF82020D7
:1086700000F006FB694618A800F028F818A9204663
:1086800000F002F830B010BD30B599B004460D4688
:1086900010A84031012200F0C9F810AA2946684606
:1086A000FEF710FE10AA05F1200108A8FEF70AFE49
:1086B00008A9204600F0CCF9684600F093F8E37F63
:1086C00083EAC010E07719B030BD00BF2DE9F0415A
:1086D000B0B0E8460446404600F00AFB04F140060C
:1086E00020469DF93F10FFF719FD3046012100F0AB
:1086F00081F804F120070DF11505214610A8FFF7B8
:1087000097FC18AA10A92046FEF7DCFD28AA20A98C
:108710003846FEF7D7FD20AA18A93046FEF7D2FD4D
:10872000214610A8FFF784FC18AA10A92046FEF7DE
:10873000C9FD28AA20A93846FEF7C4FD20AA18A919
:108740003046FEF7BFFD214610A8FFF771FC18AABE
:1087500010A92046FEF7B6FD28AA20A93846FEF744
:10876000B1FD20AA18A93046FEF7ACFD214610A89D
:10877000FFF75EFC15F9011D10A8FFF7D1FB95F975
:10878000151010A8FFF7FAFB95F92A1010A8FFF7AB
:1087900023FC18AA10A92046FEF794FD28AA20A9B8
:1087A0003846FEF78FFD20AA18A93046FEF78AFD4D
:1087B000A845A2D130B0BDE8F08100BF0B680360CE
:1087C0004B6843608B688360CB68C3600B6903614F
:1087D0004B6943618B698361CB6923F00043C361BB
:1087E000704700BF10B50446FFF708F8206800F096
:1087F000010010BD0023C0E90013C0E90233C0E945
:108800000433C0E90633704700B589B000230A4637
:108810006946CDE90033CDE90233CDE90433CDE932
:108820000633FEF715FD09B05DF804FBF0B5A1B005
:108830000546684617460E46FEF743FD694618A8EA
:10884000FEF73FFD18A90846FEF73BFD324618A982
:1088500008A8FEF737FD6A4608A96846FEF732FD0C
:10886000694618A8FEF72DFD08AA104618A9FEF7BC
:1088700029FD08A918A8FEF724FD18A90846FEF747
:1088800020FD18A90846FEF71CFD18A90846FEF7AA
:1088900018FD18A90846FEF714FD08AA18A91046E5
:1088A000FEF710FD022408A900E0012418A8FEF735
:1088B00008FD18A90846FEF704FD18A90846FEF7AA
:1088C00000FD18A90846FEF7FCFC18A90846FEF7AB
:1088D000F8FC012C18A9E8D110A808AAFEF7F2FCB0
:1088E000042410A918A8FEF7ECFC18A90846FEF706
:1088F000E8FC18A90846FEF7E4FC18A90846FEF7AC
:10890000E0FC18A90846FEF7DCFC013C18A9E9D1F7
:1089100010AA0846FEF7D6FC022400E0012418A99C
:108920000846FEF7CEFC18A90846FEF7CAFC18A9AF
:108930000846FEF7C6FC18A90846FEF7C2FC18A9AF
:108940000846FEF7BEFC012CE8D118A908AA10A819
:10895000FEF7B8FC0A2410A918A8FEF7B2FC18A963
:108960000846FEF7AEFC18A90846FEF7AAFC18A9AF
:108970000846FEF7A6FC18A90846FEF7A2FC013C33
:1089800018A9E9D110AA08A8FEF79CFC142408A98C
:1089900018A8FEF796FC18A90846FEF792FC18A93D
:1089A0000846FEF78EFC18A90846FEF78AFC18A9AF
:1089B0000846FEF786FC013C18A9E9D108AA08463A
:1089C000FEF780FC0A2418A90846FEF77AFC18A9CD
:1089D0000846FEF776FC18A90846FEF772FC18A9AF
:1089E0000846FEF76EFC18A90846FEF76AFC013C33
:1089F000E9D118A9084610AAFEF764FC18A9084690
:108A000067B9FEF75EFC18A90846FEF75AFC324625
:108A100018A92846FEF756FC21B0F0BDFEF751FC20
:108A200018A90846FEF74DFC18A90846FEF749FCB0
:108A300018A90846FEF745FC18A90846FEF741FCB0
:108A40006A4618A92846FEF73DFC21B0F0BD00BFDC
:108A500038B50C4605460846FEF7D0FE23682B6065
:108A600063686B60A368AB60E368EB6023692B61AC
:108A700063696B61A369AB61E369EB6138BD00BFFA
:108A800070B588B004460D46684620211646FEF7AC
:108A900032F800232946204620220093FEF724F8CE
:108AA0002A4669466846FEF76CF832466946204613
:108AB000FDF777FD08B070BD0B681BBAC3614B684A
:108AC0001BBA83618B681BBA4361CB681BBA036115
:108AD0000B691BBAC3604B691BBA83608B691BBAF5
:108AE0004360CB691BBA0360704700BF70B598B094
:108AF0000D46064610A8FEF771F82A4610A96846EA
:108B0000FEF76DF8694610A8FEF768F810A9084648
:108B1000FEF764F86A4610A908A8FEF760F808A9ED
:108B200010A8FEF75BF810A90846FEF757F810A941
:108B30000846FEF753F810A90846FEF74FF810A9AB
:108B400008AA0846FEF74BF810A90846FEF746F8B3
:108B500010A90846FEF742F810A96A4608A8FEF7D1
:108B60003EF8052408A910A8FEF738F810A9084611
:108B7000FEF734F8013C10A9F5D108AA0846FEF723
:108B80002EF8052410A90846FEF728F810A9084673
:108B9000FEF724F8013CF5D110A908AA0846FEF713
:108BA0001EF810A908A8FEF719F808A90846FEF74C
:108BB00015F808A96A466846FEF711F810246946B8
:108BC00010A8FEF70BF810A90846FEF707F8013CBD
:108BD00010A9F5D12A460846FEF701F8402410A94D
:108BE0000846FDF7FBFF10A90846FDF7F7FF013C1B
:108BF000F5D110A96A460846FDF7F1FF102410A927
:108C00000846FDF7EBFF10A90846FDF7E7FF013C1A
:108C1000F5D110A96A460846FDF7E1FF102410A916
:108C20000846FDF7DBFF10A90846FDF7D7FF013C1A
:108C3000F5D110A908AA0846FDF7D1FF2A4610A9C8
:108C40003046FDF7CCFF18B070BD00BFCB691BBA32
:108C500003608B691BBA43604B691BBA83600B6965
:108C60001BBAC360CB681BBA03618B681BBA436134
:108C70004B681BBA83610B681BBAC361704700BFA6
:108C8000F0B50B4699B0DA69184D149218A9120F75
:108C900004465F689E68186941F85C2DDA68D3F86D
:108CA00000C00E970F965F699E69109200232A46B6
:108CB000119005A8CDF834C0CDE916331593CDE950
:108CC0000333029312971396FDF776FC019B05AAD6
:108CD0001B070DA920460C93FDF7D8FBE269294636
:108CE000D20F2046FDF7F2FB19B0F0BDC09F040083
:108CF000F0B40025471E2C462A46E30814F0070F5F
:108D000008BF51F8235005F00F03134403F1080284
:108D100012090134D6B2A3EB06133F2C4FEA151506
:108D200007F8013FE9D1354480F83F50F0BC704767
:108D300038B50B68114D1BBAC3614B681BBA836110
:108D40008B681BBA4361CB681BBA03610B691BBA02
:108D5000C3604B691BBA83608B691BBA4360CB69E4
:108D60001BBA2A46036001460446FDF78FFB2946DD
:108D700002462046BDE83840FDF7A8BB80A60400A7
:108D80002DE9F04DE2A5D5E90045B2B0E2A7D7E95B
:108D90000067CDE90045E2A5D5E90045CDE90267C8
:108DA000E1A7D7E90067CDE90445E1A5D5E900458C
:108DB000CDE90667E0A7D7E90067CDE908450FF2DE
:108DC000803BDBE900ABE0A5D5E90045CDE90A67CA
:108DD0000027CDE90C4580461446CDE90EABCDE920
:108DE0003072002A40F0CD8080238DF84030012081
:108DF0006D4610AE00F1400E05EB0E035B42471CC2
:108E000003F00303D91C7B2FC0F17B0C88BF4FF00C
:108E1000010C052938BF05217B2FC0F17A0288BFDC
:108E20000022914229D8ABB132AA02440021012B81
:108E300002F8881C00F0A38032AA1744032B00F12B
:108E4000020207F8881C40F0538132AF3A440330E5
:108E500002F8881CACEB030C002273442B444FEA4D
:108E60009C0711460132974243F8041BFAD82CF0B4
:108E700003036345184427D0471C32AB0344002248
:108E80007B2F03F8882C1FD032AB3B44811C7B29FD
:108E900003F8882C18D032AB1944C31C7B2B01F883
:108EA000882C11D032A90B44011D7B2903F8882C92
:108EB0000AD0053032AB7B28194418BFC01801F81E
:108EC000882C18BF00F8882C620F002362F3070378
:108ED000620D62F30F23620B62F31743620931469E
:108EE00062F31F632846E400CDF8BB308DF8BF4025
:108EF00000F076FDDDE90623DDE90076DDE90254C8
:108F0000DDE9040193FA83FE089BC8F818E036BA3D
:108F10002DBA24BA00BA09BA12BA93FA83FCC8F877
:108F20000060C8F80C50C8F80840099D0A9CC8F8B1
:108F30001400C8F810100B980C99C8F81C200E9B50
:108F40000D9A0F9EC8F824C03FBA2DBA24BA00BAB1
:108F500009BA12BA1BBA36BAC8F80470C8F8205059
:108F6000C8F82C40C8F82800C8F83410C8F83020D9
:108F7000C8F83C30C8F8386032B0BDE8F08D3846EB
:108F800068E76D4628460E4600F06AFB241A024642
:108F90003119002800F0AE80431E022B40F2B2804F
:108FA00010AE4FEA900C3B4634460846013350F869
:108FB000047B44F8047B6345F8D322F003039A4210
:108FC000194414D032A818440C7800F8884C581C66
:108FD00082420CD932AC204402334C7800F8884CE1
:108FE0009A4204D932A80344897803F8881C32AB2A
:108FF000501C134480217028309203F8881C40F2E2
:1090000084807F286BD832AB1844911C00238029C0
:1090100000F8883C63D032A80144D01C802801F8B5
:10902000883C5CD032A90844111D802900F8883C96
:1090300055D032A80144501D802801F8883C4ED0FC
:1090400032A90844911D802900F8883C47D032A8F5
:109050000144D01D802801F8883C40D032A9084442
:1090600002F10801802900F8883C38D032A8014478
:1090700002F10900802801F8883C30D032AB184456
:1090800002F10A010023802900F8883C27D032A889
:10909000014402F10B00802801F8883C1FD032A95E
:1090A000084402F10C01802900F8883C17D032A84E
:1090B000014402F10D00802801F8883C0FD032A94C
:1090C000084402F10E01802900F8883C07D032A83C
:1090D0000144702A01F8883C08BF8DF8BF30314642
:1090E000284600F07DFC7A28319C7FF683AEEBE6C3
:1090F0001046AFE6802330908DF84030319C01203F
:1091000010AE77E63B4610AE5CE7319C72E600BFDE
:1091100008C9BCF367E6096A3BA7CA8485AE67BB8A
:109120002BF894FE72F36E3CF1361D5F3AF54FA5B5
:10913000D182E6AD7F520E511F6C3E2B8C68059B91
:1091400079217E1319CDE05B6BBD41FBABD9831F49
:109150002DE9F04F9FB0A1F108031C93D2E90E3422
:10916000CDE91834D2E90C34CDE90034D2E90A341F
:10917000CDE90234D2E90634CDE91A34D2E9023419
:10918000CDE90634D2E90434CDE9043400F180039A
:10919000D2E908ABD2E900891D93099094460146B3
:1091A00005E0CDE90689DDE91689B246BB46F1E85E
:1091B00002451C9F09914FEA9A3242EA8B424FEADC
:1091C0009A43F7E902010A9243EA8B334FEA9B364E
:1091D0004FEA9B420C9346EA8A4642EA8A324FEAB9
:1091E000CB530D920B9643EA5A23CDE916010F9308
:1091F000DDE90C011C974FEACA53DDE90A6743EA2F
:109200005B230E9346404F40DDE90E014FEA187391
:1092100043EA091370407940109306460F464FEA1F
:109220008973DDE9160143EA980313934FEA197332
:1092300000194FEA887243EA08136941119342EA20
:109240009903CDE916011293DDE90201DDE900235E
:109250004FEA496442404B4044EAD814DDE9160124
:109260001594DDE90045801902EA0A024FEA486ECA
:1092700079415440DDE9066703EA0B034EEAD9124F
:109280005D401492DDE9042346EA080647EA09072F
:10929000324016463B4022181F4645EB0103DDE9EC
:1092A0001045DDE91201CDE9162344404D40DDE9CA
:1092B00014016040694004460D46DDE9060100EAFC
:1092C000080001EA090140EA060241EA07031046E4
:1092D000DDE918671946DDE9162392197B41DDE9BE
:1092E0001A6700196941B6185F41841841EB0305FC
:1092F000DDE90201CDE91645CCE90C01DDE90034D8
:10930000DDE90412CCE90E34CCE90612CDE91834BB
:10931000DDE90423CDE91A23DDE90234DDE90601A4
:10932000CDE90034DDE91634CCE90401CCE90034A0
:10933000CDE904011D9B09999942CCE90AABCCE91E
:109340000289CCE90867CDE902AB7FF42AAF1FB0F0
:10935000BDE8F08F2DE9F04F4FF0000C8BB0864642
:10936000A0F1080A6346ACF102040CF1010C0CF008
:109370000F000EEBC00204F00F045EF830005268DC
:109380000EEBC401073B5EF8344049684FEA5008D1
:1093900003F00F03070A0EEBC30B48EAC273E60C97
:1093A000009347EA0263CD00029346EA41330493F7
:1093B000CE0C45EA54730793E50046EA443305931F
:1093C000A60945EA51735408069344EAC073140A87
:1093D0004FEAD018019344EA006348EA42680393D5
:1093E0004FEAD219FAE9022346EA8166CDE9082359
:1093F0008F09DDE90623DDE90401DBE90045504082
:109400005940DDE9082312196B41CDE90823DDE954
:109410000045DDE9022370407940DDE908675440EA
:109420005D4084EA0804361985EA09056F4132185F
:1094300047EB0103BCF1100FCAE9002392D10BB036
:10944000BDE8F08FF0B599B004460E460A460146D5
:109450006846FDF796FB69466846FDF7BFFB6A461E
:10946000214608A806F1200504F12007FDF7B7FB07
:109470006A4631466846FDF7B2FB39462A4610A8CF
:10948000FDF740FB2A4639462846FDF77AFB294678
:109490003046FDF7A3FB6A4608A92046FDF732FBDC
:1094A000224631463046FDF76CFB6A4608A96846FD
:1094B000FDF767FB6A4639463846FDF790FB3246B2
:1094C00008A96846FDF75DFB6A4629462846FDF770
:1094D00086FB3A4629462846FDF753FB10A9684605
:1094E000FDF77CFB224669462046FDF74AFB08A9AA
:1094F00022460846FDF745FB10A908AA0846FDF7D5
:109500006EFB3A4610A93846FDF73BFB19B0F0BD9B
:109510002DE9F0410C4688B00546904601462246AA
:109520006846FDF72EFB69466846FDF757FB6A461D
:109530002946284604F12006FDF751FB05F12007D6
:109540006A4621466846FDF74AFB324630463946B0
:10955000FDF717FB31462046FDF740FB2A46214622
:109560002046FDF70EFB6A4621462046FDF709FB23
:109570006A4629464046FDF704FB424639463846CE
:10958000FDF72DFB224629466846FDF7FAFA6A46A2
:1095900031463046FDF723FB3A4631463046FDF76B
:1095A000F0FA08B0BDE8F0812DE9F04188B00D4631
:1095B000074602F12001684607F120069046FDF7B4
:1095C0000DFB6A4669466846FDF79CFA30466946D7
:1095D000FDF704FB32463146304605F12004FDF725
:1095E00091FA6A4669466846FDF78CFA204641467C
:1095F000FDF7F4FA6A4641463846FDF7F0FA22468E
:1096000021466846FDF77EFA224669466846FDF720
:1096100079FA69466846114AFDF774FA69462846A0
:10962000FDF7DCFA3A4629462846FDF7AAFA3A46FB
:1096300029462846FDF7A5FA2A4639462046FDF771
:10964000A0FA6A4621462046FDF7C9FA324621466D
:109650002046FDF796FA08B0BDE8F08140A6040068
:109660002DE9F04FC7B07F2A159240F2AB810D462D
:10967000A2F18001D0E900230646CDE90023D6E916
:109680000823CDE90A23D6E90A23CDE90223D6E946
:109690000C2321F07F04D0E902ABD6E90689D0E99A
:1096A0000401CDE90C23D6E90E238034CDE90E2345
:1096B000CDE904ABCDE91001CDE906892C1914944C
:1096C00009962C68AF68D5F80CA0D5F810E02E6B81
:1096D000E86913962346DDE900891BBA019300234C
:1096E0000093AB6BAC691294CDE91689DDE904896E
:1096F0000493DDE91023DDE900BCCDE91A23DDE99F
:1097000006233946CDE91C239AFA8AFA0BBA5A463F
:1097100042EA0A02CDE92823DDE90A23CDE91889C6
:10972000D5F81480129E2F6A696AAC6ACDE91E23AF
:1097300098FA88F89EFA8EF35A4642EA0802CDE972
:109740002A2300BA33BA5A4642EA0002CDE92C2352
:1097500009BA3BBA5A4642EA0102CDE92E23EF6A22
:10976000139ED5F858E023BA5A463FBA42EA070298
:10977000CDE93023DDE90C236C6BCDE9222324BA3B
:1097800033BA5A4642EA0402DDE90201CDE9322346
:10979000049B1FBACDE920013B46E86B6968DDE90F
:1097A0000E6700BA4BEA0002CDE9246709BA5E46AB
:1097B000674646EA0106CDE934232B6EAA6E286F70
:1097C0000493B046EB6C2E6C696C0692B946AF6F91
:1097D0001290CDE926890A97D5F84890D5F850809F
:1097E0006F6D0293EC6DE86F6A6EEB6ED5F874A046
:1097F00036BAB44609BA029E00BA4FF0000B4BEAE3
:10980000010B029099FA89F10020CDE936BC36BAF5
:1098100083468C464BEA060BCDE938BCDDE900BC3B
:1098200098FA88F13FBAD84689469EFA8EF148EAFE
:10983000070824BA5E460F4646EA0406049C1298BE
:1098400021BACDE93C6712BA5E460F4646EA0206E7
:10985000069A11BA1BBA0A46594641EA030140ABBF
:10986000C3E900129AFA8AFA03BA5A4642EA0A028D
:10987000CDE93E6742A90A9F5448C1E90023029AF4
:109880003CBA5B4643EA0203CDE93A8916AA9846F8
:10989000A14644AB26A9C3E90089FFF759FC26A8D5
:1098A000FFF758FD16AA26A94948FFF751FC26A83C
:1098B000FFF750FD16AA26A94648FFF749FC26A83F
:1098C000FFF748FD16AA26A94348FFF741FC26A842
:1098D000FFF740FD16AA26A94048FFF739FC099C6E
:1098E000DDE91623D4E90067B618D4E902AB5F417D
:1098F000DDE91834099A13EB0A0344EB0B04DDE9A4
:109900001A01CDE90434D2E904341B184C41DDE9D5
:109910001C899B46A446D2E9063413EB080344EBAA
:109920000904CDE90067CDE90634D2E90867DDE92D
:109930001E34F61810466741D2E90A34DDE92012D8
:109940005B185441CDE90234D0E90C12DDE9223430
:10995000C918DDE924896241D0E90E3413EB08030C
:1099600044EB09049846A146DDE90034C0E900341F
:10997000DDE90434CDE910BCC0E90234CDE90A6761
:10998000CDE90C12CDE90E891290C0E904BCDDE9E5
:1099900006ABDDE90234C0E90A344C464346C0E96F
:1099A0000E34149C8035A542C0E906ABC0E90867B7
:1099B000C0E90C127FF485AE159B03F07F0047B021
:1099C000BDE8F08F104647B0BDE8F08F009D040061
:1099D000809D0400009E0400809E0400009F0400FF
:1099E0002DE9F04F0B68D1F808E0D1F80C90D1F8D0
:1099F00010C08F69D1F82080D1F824A0B7B01BBA6D
:109A00000193002300939EFA8EF599FA89F943EAAF
:109A100009022B46DDE900450646D1F814E0C86985
:109A2000CDE918239CFA8CF39C469EFA8EFE00BA70
:109A300022463BBA44EA0E0B42EA000298FA88F545
:109A40009AFA8AFA0024CDE91C2344EA0A022B463A
:109A50004868CDE91E23DDE90023CDE91ABCD6E92B
:109A60000089D6E902AB00BA42EA0002CDE916232A
:109A7000D6E90423CDE90689CDE908ABD6E9068904
:109A8000D6E908ABCDE90A23D6E90A23CDE90C894A
:109A9000CDE90EABD6E90C89D6E90EABD1F828C0DA
:109AA000D1F830E08D6B086C8F6CCDE910239CFAF7
:109AB0008CF3039300230293DDE90223CDE912899D
:109AC000D1F82C90D1F850C0D1F8588099FA89F982
:109AD00042EA0902CDE920239EFA8EF30393002384
:109AE0000293DDE90223D1F834E09EFA8EFE42EAC9
:109AF0000E02CDE922232BBA039300230293DDE962
:109B00000223CD6BD1F870E02DBA42EA0502CDE90F
:109B1000242303BA03930023CDE914AB8D6FD1F84E
:109B200060A0D1F868B0486C0293DDE9022300BA66
:109B300042EA0002CDE926233BBA039300230293B5
:109B4000DDE90223C86C4F6D00BA42EA0002CDE99C
:109B500028239CFA8CF3039300230293DDE902236C
:109B60003FBA42EA0702CDE92A23C86DD1F864C0A2
:109B7000CF6E98FA88F3002299469AFA8AF30393F3
:109B8000029200BA42EA0008DDE902239CFA8CFC4A
:109B9000C86F42EA0C02CDE92C899BFA8BF4D1F80C
:109BA0007480DDE900ABCDE92E2300BA2BBA002288
:109BB0004E4D42EA000298FA88F1A1463FBA9EFA59
:109BC0008EF4CDE934234AEA070806AA4AEA010AD4
:109BD000A34616A92846CDE93089CDE932ABFFF777
:109BE000B7FA16A8FFF7B6FB06AA16A905F180007A
:109BF000FFF7AEFA16A8FFF7ADFB06AA16A905F502
:109C00008070FFF7A5FA16A8FFF7A4FB06AA16A90D
:109C100005F5C070FFF79CFA16A8FFF79BFB06AA94
:109C200016A905F50070FFF793FAD6E90023DDE9E0
:109C30000601D6E90289DDE908AB141843EB0105FA
:109C400018EB0A0249EB0B03CDE90245DDE90AAB4B
:109C5000CDE90423D6E9043413EB0A0344EB0B04E7
:109C60009A46A346D6E90623DDE90C4512191446A7
:109C7000DDE902126B41D6E908781D46C6E90012FB
:109C8000DDE90E23BF1848EB0308DDE90423C6E92C
:109C90000878C6E90223DDE91089D6E90A2312EB28
:109CA000080243EB090390469946C6E904ABD6E99E
:109CB0000C23DDE912AB12EB0A0243EB0B039246D5
:109CC0009B46C6E90645DDE91423D6E90E45A418EE
:109CD00000985D4122462B46C6E90A89C6E90CABCD
:109CE000C6E90E2337B0BDE8F08F00BF009D040029
:109CF0007CB50C88009414788DF80440C3F30744B5
:109D0000C4EBC4356424C3F30723C3EBC333B5FBEF
:109D1000F4F5B3FBF4F3244E3678002E42D0A8427B
:109D200002D90098400803E09842009801D2400010
:109D30000090462801D9462002E00A2801D20A20D4
:109D400000909DF80400107000980880009880B280
:109D500000EBC00101EB0010B0FBF4F0FDF797FF42
:109D60009FED121B53EC112BFDF722FFFDF79CFF1B
:109D70008DF80400012201A9112000F0E0FD01226C
:109D800001A9122000F0DBFD0A480B49009A02B03D
:109D9000401AC008BDE87040032101EB004007A154
:109DA0000CF09CBD7CBD0000682D00204A0C022BED
:109DB0008716C93FF0A70400F8A60400506F776526
:109DC00072204C45443A202564000000004B18479F
:109DD00067030700004908479300070030B4024CAE
:109DE000A44630BC60470000AF060700004A104799
:109DF00009000700004A1047CD000700004B184734
:109E000051040700004B1847170407000049084792
:109E10007302070030B4024CA44630BC6047000017
:109E2000D104070000490847550207002DE9F04713
:109E300000268AB0DFF85091B0464FF480750124B7
:109E40003746069628460CF041FB38B1D9F8040392
:109E5000204203D028460CF02FFB26432D1D640022
:109E60007F1CADB2082FEDD34FF4BE7420460CF02A
:109E70002DFB48B120460CF01FFB46F0004606AA19
:109E8000012100200CF004FB404D16F0FF0F15D00F
:109E90000127002437420DD009EB8401D1F81005C9
:109EA000D1F81015C0F3042055F82420C1F3014166
:109EB00002B190477F00641C082CEBD3002E5FDAC0
:109EC0004FF0FF30CDF8108054E0281910F8507F83
:109ED00090F9000027F0C008401C3BD007A940467D
:109EE0000AF08CFD10B34FEA9719404605F0D6FBF7
:109EF00055F820701FB1B9F1030F03D006E0B9F196
:109F0000030F27D104A940460AF080FD4FF0A0417D
:109F100001EB8800D0F8000706A9C0F3014A4046CB
:109F20000AF06CFD18B1BAF1020F03D012E0BAF1D9
:109F3000030F0FD1B9F1030F08D1BAF1020F1DD0F1
:109F4000022140460CF055FA761CF6B217B149468C
:109F50004046B847641C042CB7D3002E10D06A4684
:109F6000012100200CF094FA06990098884207D04D
:109F700006900498002634460790A6E70321E0E700
:109F80000AB0BDE8F087000000600040847800203F
:109F900030B593B008F0E4F8344C6169087007F00C
:109FA000B7FE6169487007F0A5FD61698870A07A05
:109FB000C87007F01FFF6169087107F077FE080E8F
:109FC0006169487107F072FE080C6169887107F0D9
:109FD0006DFE080A6169C87107F068FE6069017268
:109FE00007F064FE000E40EA01206169487207F044
:109FF0005DFE000C40EA01406169887207F050FD87
:10A000006169C87208F0C8F8C821B0FBF1F0656951
:10A010003C2128736846FDF793FC02208DF8000070
:10A0200000208DF8020006208DF803000120ADF815
:10A03000100004F1100005900D20ADF840004FF421
:10A04000FA60ADF83C000FA809901195002269460E
:10A05000074802F0EEFD20B106A240F6E621FCF72B
:10A06000D9F8207B0EF0FCF913B030BD302D002064
:10A07000803100202E2E5C5372635C6D61696E2E00
:10A080006300000042F2107190FBF1F390FBF1F2DB
:10A0900001FB13034FF47A7193FBF1F3120442EACC
:10A0A000033290FBF1F301FB1303642193FBF1F303
:10A0B00042EA032290FBF1F301FB13030A2193FB15
:10A0C000F1F342EA031290FBF1F301FB130010439A
:10A0D0007047000010B588B01C221A496846FDF789
:10A0E00007FC1948012101709DF80010491E0172FA
:10A0F000282141812D2141705A2181700A218180BE
:10A100003C21C180684600F049F81049104A891A7C
:10A11000C9080322002802EB01444FF00A0008D0CE
:10A120000BF076FA20460BA10CF0D4FB002008B00F
:10A1300010BD0BF06DFA20460FA10CF0CBFB0120F7
:10A14000F5E70000485A0400A8380020F0A70400F2
:10A15000F8A6040046616C6861206E6120636F6E32
:10A16000666967757261E7E36F20646F204D41583F
:10A1700033303131300000005375636573736F20E5
:10A180006E6120636F6E666967757261E7E36F20C9
:10A19000646F204D41583330313130002DE9F043A8
:10A1A00004462DED088B85B04FF001090025FB48D2
:10A1B00080F80190057094ED020AB5EEC00AF1EE48
:10A1C00010FA7CD310EE101AF548814277DC94ED3A
:10A1D000030AB5EEC00AF1EE10FAF2D310EE101A2F
:10A1E0008142F3DC2078002869D0042867D86078A1
:10A1F0000028F9D00428F9D8E0780028F4D0042801
:10A20000F4D8A0780028EFD01028EFD820790028C3
:10A21000EAD00628EAD800F0D5FC98B945F001004C
:10A220008DF805006E4601220D20711D00F087FBA0
:10A2300000287DD10A200BF0FBF90A2703A800F0C3
:10A2400087FC28B1062005B0BDEC088BBDE8F08383
:10A250009DF80C00C00705D07F1E17F0FF07EDD159
:10A260000220F0E7ADF806502078012806D0022839
:10A2700009D003280DD0042811D016E09DF806005F
:10A2800020F0C0000FE09DF8060020F0C000403034
:10A2900009E09DF8060020F0C000803003E09DF842
:10A2A000060040F0C0008DF806006078012807D055
:10A2B00002280AD003280ED0042812D017E0ABE2FF
:10A2C0009DF8060020F003000FE09DF8060020F046
:10A2D0000300401C09E09DF8060020F00300801CEC
:10A2E00003E09DF8060040F003008DF80600A0781A
:10A2F000012820D0022823D0032827D004282BD0DF
:10A3000005282FD0062833D0072837D008283BD07F
:10A3100009283FD00A2843D00B280CD00C2845D060
:10A320000D2849D00E284DD00F2851D0102800E01C
:10A3300032E153D058E09DF8060020F03C0051E097
:10A340009DF8060020F03C00001D4BE09DF8060043
:10A3500020F03C00083045E09DF8060020F03C006D
:10A360000C303FE09DF8060020F03C00103039E052
:10A370009DF8060020F03C00143033E09DF8060004
:10A3800020F03C0018302DE09DF8060020F03C0045
:10A390001C3027E09DF8060020F03C00243021E02E
:10A3A0009DF8060020F03C0028301BE09DF80600D8
:10A3B00020F03C002C3015E09DF8060020F03C0019
:10A3C00030300FE09DF8060020F03C00343009E00A
:10A3D0009DF8060020F03C00383003E09DF80600B0
:10A3E00040F03C008DF80600E078012806D00228F5
:10A3F00009D003280DD0042811D016E09DF80700DD
:10A4000020F018000FE09DF8070020F01800083039
:10A4100009E09DF8070020F01800103003E09DF8D7
:10A42000070040F018008DF80700207901280AD0B5
:10A4300002280DD0032811D0042815D0052819D0E2
:10A4400006281DD023E09DF8070020F007001CE03F
:10A450009DF8070020F00700401C16E09DF807005B
:10A4600020F00700801C10E09DF8070020F0070096
:10A47000C01C0AE09DF8070020F00700001D04E062
:10A480009DF8070020F00700401D8DF807009DF89B
:10A490000700022220F007008DF80700B046B11D2A
:10A4A0000E2000F04CFA002876D18DF80A503D4974
:10A4B000A0683D4E3D4F884201DD032002E0B042DE
:10A4C00003DD02208DF80A0006E0B84202DD8DF8B7
:10A4D0000A9001E08DF80A50E0688946484504DD9D
:10A4E0009DF80A0040F00C000EE0B04205DD9DF83A
:10A4F0000A0020F00C00083006E0B8429DF80A007F
:10A5000020F00C0000DD001D8DF80A00012214204F
:10A510000DF10A0100F013FA0028C5D1ADF808507A
:10A52000A0689FED238B9FED249B9FED25AB9FEDB6
:10A5300026BB484506DDFDF7D0FB41EC100B53EC84
:10A54000182B17E0B04206DDFDF7C7FB41EC100BFE
:10A5500053EC192B0EE0B84206DDFDF7BEFB41ECD3
:10A56000100B53EC1A2B05E0FDF7B7FB53EC1B2B3C
:10A5700041EC100B51EC100BFDF71AFBFDF794FBAF
:10A580008DF80800E068484522DDFDF7A6FB41ECA8
:10A59000100B53EC182B33E0B4E00000692D0020C1
:10A5A00000004843000016430000C8420000484233
:10A5B0004A0C022B8716E93F37894160E5D0E23F1C
:10A5C0004A0C022B8716D93F4A0C022B8716C93F2B
:10A5D000B04206DDFDF781FB41EC100B53EC192B6B
:10A5E0000EE0B84206DDFDF778FB41EC100B53ECB2
:10A5F0001A2B05E0FDF771FB53EC1B2B41EC100B04
:10A6000051EC100BFDF7D4FAFDF74EFB8DF8090065
:10A610000222112002A900F092F9002872D1ADF8AF
:10A620000350A07D48B101280CD0022810D0052885
:10A6300014D00C2818D00D281CD09DF8030020F051
:10A640000F001CE09DF8030020F00F00401C16E0F6
:10A650009DF8030020F00F00801C10E09DF803001F
:10A6600020F00F00401D0AE09DF8030020F00F00CD
:10A670000C3004E09DF8030020F00F000D308DF841
:10A680000300E07D48B101280CD0022810D0052835
:10A6900014D00C2818D00D281CD09DF8030020F0F1
:10A6A000F0001CE09DF8030020F0F000103016E0F0
:10A6B0009DF8030020F0F000203010E09DF803002A
:10A6C00020F0F00050300AE09DF8030020F0F00088
:10A6D000C03004E09DF8030020F0F000D0308DF889
:10A6E0000300207E48B101280DD0022811D0052892
:10A6F00015D00C2819D00D281DD09DF8040020F08D
:10A700000F001DE08AE09DF8040020F00F00401CBF
:10A7100016E09DF8040020F00F00801C10E09DF86A
:10A72000040020F00F00401D0AE09DF8040020F016
:10A730000F000C3004E09DF8040020F00F000D30F5
:10A740008DF80400607E48B101280CD0022810D09A
:10A75000052814D00C2818D00D281CD09DF8040012
:10A7600020F0F0001CE09DF8040020F0F000103014
:10A7700016E09DF8040020F0F000203010E09DF875
:10A78000040020F0F00050300AE09DF8040020F0B2
:10A79000F000C03004E09DF8040020F0F000D0305C
:10A7A0008DF8040047460222F91C092000F0C7F882
:10A7B000A0BB8DF80550607D2E4660F304168DF821
:10A7C0000560607D0122400860F3C3068DF80560D6
:10A7D000607D791D800860F341068DF80560607D1D
:10A7E000C00860F382068DF805600D2000F0A7F820
:10A7F000A0B9607D000752D5607C68B102280BD8F3
:10A80000A07C48B1022807D8E07C28B1022803D8F0
:10A81000217D1139102902D3032014E575E00128A8
:10A8200002D0022805D00AE09DF8020020F0400086
:10A8300003E09DF8020040F040008DF80200607CCB
:10A84000012802D0022805D00AE09DF8020020F07D
:10A85000100003E09DF8020040F010008DF80200A7
:10A86000A07C012802D0022805D00AE09DF8020051
:10A8700020F0200003E09DF8020040F020008DF859
:10A880000200207D9DF80210404260F303018DF824
:10A8900002100122B91C082000F051F8A8BBADF845
:10A8A0000050207CC1079DF8001002D041F0080143
:10A8B00001E021F008018DF8001081079DF80010DB
:10A8C00002D541F0100101E021F010018DF80010D7
:10A8D00041079DF8001002D541F0200101E021F070
:10A8E00020018DF8001001079DF8001002D541F0FD
:10A8F000400101E021F040018DF80010C1069DF8F3
:10A90000001003D541F0800102E016E021F0800143
:10A910008DF8001080069DF8010002D540F08000FF
:10A9200001E020F080008DF8010002226946104607
:10A9300000F005F800283FF494AC072083E42DE9EB
:10A94000F04114460E4605464FF0A0474FF480787C
:10A9500010E0C7F80C8507200BF079FD2246314640
:10A96000284600F013F86D1CEDB20820761C0BF0A1
:10A970006EFD44B1641EE4B2EBD208200BF067FD1B
:10A980000720BDE8F0810020FBE700001CB5002295
:10A9900001928DF804000B4C08788DF806002270A7
:10A9A00013460092032201A907480BF007F820B1D3
:10A9B00006A240F63D51FBF72DFC20780028FCD084
:10A9C00000201CBD302D0020E85904002E2E5C53C1
:10A9D00072635C6D61696E2E6300000070B50D4698
:10A9E00004464FF0A0414FF48070C1F80C050720D9
:10A9F0000BF02DFD05EB450082B22146072000F04B
:10AA000037F82078A1782170A07060792179617180
:10AA1000E178A17120710020E07008200BF017FD93
:10AA2000002070BD2DE9F04114460E4605464FF05A
:10AA3000A0474FF4807810E0C7F80C8507200BF092
:10AA400006FD01223146284600F052F86D1CEDB299
:10AA50000820761C0BF0FBFC44B1641EA4B2EBD2C0
:10AA600008200BF0F4FC0620BDE8F0810020FBE795
:10AA70002DE9FC410E4617A11446096801918DF895
:10AA80000400901C08F08EFFA41C134F0546002004
:10AA9000A4B23870E0B200902B46022201A90F4800
:10AAA0000AF08CFF20B10EA240F65951FBF7B2FB21
:10AAB00038780028FCD0002004E029188978315427
:10AAC000401CC0B2A042F8D3284606F081FA00200C
:10AAD000BDE8FC8100800000302D0020E859040012
:10AAE0002E2E5C5372635C6D61696E2E63000000F4
:10AAF0003EB50D460FA1104C096801918DF8040078
:10AB000000202070921CD0B2009002AB022201A95A
:10AB10000A480AF053FF20B109A240F64A51FBF758
:10AB200079FB20780028FCD09DF80A0028700020CE
:10AB30003EBD000000800000302D0020E8590400D8
:10AB40002E2E5C5372635C6D61696E2E6300000093
:10AB500010B5014602220020FFF764FF002800D054
:10AB6000062010BDFEB5064601208DF80500024600
:10AB70006D4600240D20691DFFF7E1FE88B90A200B
:10AB80000AF056FD8DF80540707D0122800860F3C3
:10AB900041048DF80540691D0D20FFF7D0FE002807
:10ABA00000D00720FEBD000000B587B01C2204497C
:10ABB0006846FCF79DFE6846FFF7D4FF07B000BD6E
:10ABC000045A040008B500208DF8000001226946EF
:10ABD000FF20FFF727FF08B1062008BD09480A49F2
:10ABE0009DF80020401AC008032101EB0040202AF4
:10ABF00006A102D00BF072FEEEE70BF06FFE002014
:10AC000008BD0000F0A70400F8A604004964656EC2
:10AC1000746964616465204D415833303131303A94
:10AC20002025580070B54FF4807630460AF0CEF9F2
:10AC3000114CB50560B130460AF0CFF90120C5F8D6
:10AC40000803607920B901206071216800208847DD
:10AC50004FF4827630460AF0B9F900280AD030461F
:10AC60000AF0BBF90220C5F808032168BDE870406E
:10AC70000120084770BD0000042F00200149024850
:10AC800008F028B86C79002000C001400149024852
:10AC900008F020B87479002000100240064882B005
:10ACA0000021016000680090044800680449C0B2B7
:10ACB000496802B00847000000D1004008D50040B4
:10ACC000142F002002490248091F0968006808473C
:10ACD000682F00202DE9FE434FF4827840460CF0A7
:10ACE000DDF84C4F00254C4C012600B340460CF0DB
:10ACF000DDF894F82E0010B194F82F10D1B18DF832
:10AD00000050616801912189ADF80810E26832B104
:10AD1000218B618362602181E56010B102E02574BE
:10AD200000E03E6021686846884784F82F5094F818
:10AD30002E0060B34FF4807738460CF0AFF830B394
:10AD400038460CF0B3F8628B94F82D108A420AD979
:10AD5000A2EB010080B260832289A2EB000062684E
:10AD600002EB400005E007D1E06828B184F82F60CD
:10AD700065830CF081F804E08A4202D184F82F60E8
:10AD8000658340460CF092F82248001D06604FF49F
:10AD9000887738460CF082F848B138460CF086F8CF
:10ADA000257402208DF800002168684688474FF41A
:10ADB0008A7738460CF072F828B138460CF076F8ED
:10ADC0002574BDE8FE834FF000484FF48C79676925
:10ADD0001DE000BFB7FA87F028FA00F109EB800503
:10ADE0008F4328460CF05AF888B128460CF05EF8DC
:10ADF000A5F58C75E8088DF8040045F38000401C2B
:10AE00008DF800608DF80500216868468847002F9E
:10AE1000E0D1D6E7007000407C790020F8B51248F8
:10AE2000124E04464FF48C710CF0EFFA00281AD041
:10AE30000025C4F81851D4F818010090F07F34466A
:10AE4000FF2806D0A17F11B10BF0EBFA01E00BF067
:10AE50000CFB65772572D4E9002101B004F10800EC
:10AE6000BDE8F0401047F8BD0030004030790020C8
:10AE700030B58FB005461C216846FCF761FD002403
:10AE80009DF80000019440F00A008DF80000039442
:10AE900004940594069495F87C008DF836004AF6E3
:10AEA0003D00ADF834000C949DF83000142120F0E2
:10AEB0000F00401C20F0F00010308DF830009DF89D
:10AEC000310020F00F00401C20F0F00010308DF811
:10AED00031009DF8320020F00600801C20F01000A8
:10AEE00040F009008DF8320007A8FCF729FD0DA8F5
:10AEF00007900CA808900120ADF824000420ADF8BC
:10AF00002640ADF828000B94B5F87A002B4607AA26
:10AF10006946AADF0FB030BD044880F835100449F7
:10AF2000012088710349C87270470000F83700207B
:10AF3000C8300020302D002030B58FB005461C21D0
:10AF40006846FCF7FDFC00249DF80000019440F0E9
:10AF50000A008DF80000039404940594069495F873
:10AF60007C008DF836004EF2E820ADF834000C94E9
:10AF70009DF83000142120F00F00401C20F0F0005C
:10AF800010308DF830009DF8310020F00F00401C8B
:10AF900020F0F00010308DF831009DF8320020F0E4
:10AFA0000600801C20F0100040F009008DF83200EF
:10AFB00007A8FCF7C5FC0DA807900CA80890012075
:10AFC000ADF824000420ADF82640ADF828000B941D
:10AFD000B5F87A0005F1080307AA6946AADF0FB0A1
:10AFE00030BD0000044880F8361004490120887103
:10AFF0000349C87270470000F8370020C8300020AD
:10B00000302D002030B58FB005461C216846FCF776
:10B0100097FC00249DF80000019440F00A008DF890
:10B020000000039404940594069495F87C008DF830
:10B03000360049F28A10ADF834000C949DF83000C7
:10B04000142120F00F00401C20F0F00010308DF88B
:10B0500030009DF8310020F00F00401C20F0F0007F
:10B0600010308DF831009DF8320020F00600801C71
:10B0700020F0100040F009008DF8320007A8FCF71E
:10B080005FFC0DA807900CA808900120ADF82400E3
:10B090000420ADF82640ADF828000B94B5F87A00EE
:10B0A00005F1100307AA6946AADF0FB030BD000002
:10B0B000044880F837100449012088710349C87298
:10B0C00070470000F8370020C8300020302D0020E5
:10B0D00030B58FB005461C216846FCF731FC0024D2
:10B0E0009DF80000019440F00A008DF800000394E0
:10B0F00004940594069495F87C008DF836004CF283
:10B100002210ADF834000C949DF83000142120F08A
:10B110000F00401C20F0F00010308DF830009DF83A
:10B12000310020F00F00401C20F0F00010308DF8AE
:10B1300031009DF8320020F00600801C20F0100045
:10B1400040F009008DF8320007A8FCF7F9FB0DA8C4
:10B1500007900CA808900120ADF824000420ADF859
:10B160002640ADF828000B94B5F87A0005F11803D5
:10B1700007AA6946AADF0FB030BD0000044880F876
:10B1800038100449012088710349C87270470000D3
:10B19000F8370020C8300020302D002030B58FB0A7
:10B1A00005461C216846FCF7CBFB00249DF80000F7
:10B1B000019440F00A008DF8000003940494059473
:10B1C000069495F87C008DF8360042F60650ADF8EE
:10B1D00034000C949DF83000142120F00F00401C26
:10B1E00020F0F00010308DF830009DF8310020F094
:10B1F0000F00401C20F0F00010308DF831009DF859
:10B20000320020F00600801C20F0100040F0090001
:10B210008DF8320007A8FCF793FB0DA807900CA847
:10B2200008900120ADF824000420ADF82640ADF8C8
:10B2300028000B94B5F87A0005F1200307AA6946A7
:10B24000AADF0FB030BD0000044880F8391004496F
:10B25000012088710349C87270470000F837002048
:10B26000C8300020302D00200CF020B8F0B5B84ACE
:10B27000B8494FF080541368D4F830010978D4F8F5
:10B280003421451CC1F3031106D084460127002553
:10B29000BCF1060F0BD102E003F0FF0CF6E7B4F8A7
:10B2A0002463DFF8B4C2C6F30426CCF80060DEB233
:10B2B000062E06D1032904D1DFF8A4C2A74ECCF88C
:10B2C0007460461C04D08446BCF1060F0BD102E02A
:10B2D00003F0FF0CF8E7D4F84462DFF888C2C6F345
:10B2E0004236CCF80060DEB2062E08D1032906D122
:10B2F0009D4ED6F800C02CF0807CC6F800C0461CDD
:10B3000004D08446BCF1060F0CD102E003F0FF0C20
:10B31000F8E74FF08046C6F80C51C6F81051914E30
:10B32000361F3560DEB2062E08D1032906D1DFF8BC
:10B3300034C203260CF1640CCCF80060DEB2062E99
:10B3400011D103290FD1DFF824C20526CCF8006003
:10B35000864E78363760854E083635600CF1040C21
:10B360003F26CCF80060461C06D084464FEA020611
:10B37000BCF1060F7ED103E003F0FF0C0E46F7E7A9
:10B38000032E7DD0042E7BD0794E3668DFF8E4C1E1
:10B39000CCF80060764E361D36680CF1040CCCF803
:10B3A0000060734E083636680CF1040CCCF800606F
:10B3B0006F4E0C3636680CF1040CCCF800606C4E05
:10B3C000103636680CF1040CCCF80060684E143668
:10B3D00036680CF1040CCCF80060654E18363668FF
:10B3E000DFF890C10CF1200CCCF80060604E1C36E8
:10B3F00036680CF1040CCCF800605D4E20363668DF
:10B400000CF1040CCCF80060594E243636680CF16F
:10B41000040CCCF80060564E283636680CF1040C4B
:10B42000CCF80060524E2C3636680CF1040CCCF887
:10B4300000604F4E30363668DFF838C10CF1400CF2
:10B44000CCF800604A4E343636680CF1040CCCF867
:10B450000060474E383636680CF1040CCCF80060BA
:10B46000434E3C3636680CF1040CCCF80060404E7C
:10B47000403600E004E036680CF1040CCCF80060C3
:10B48000461C05D04FEA000CBCF1060F09D102E0C2
:10B4900003F0FF0CF8E7D4F85842374E04F04F049D
:10B4A0003460441C03D00346062B09D101E0DBB213
:10B4B000FAE732490B68DB0702D06FF001030B603B
:10B4C00006280AD1032A08D0042A06D0052A04D067
:10B4D0002B48016841F48061016023487438016899
:10B4E00041F470010160BFF34F8FBFF36F8F4FF0D6
:10B4F0001021D1F80002002803DBD1F80402002853
:10B5000022DA204A176020480368002BFCD015235C
:10B51000C1F800320468002CFCD0C1F80432016884
:10B520000029FCD0156001680029FCD0BFF34F8FC3
:10B530000D48F0380168154A01F4E06111430160DB
:10B54000BFF34F8F00BFFDE7124911480860F0BDFF
:10B55000E00F00F0E80F00F0403501400DF0ADBA0B
:10B5600000C007403C050040FCED00E010560040E4
:10B570000404001020C50040E40E00400004004018
:10B580003C17004004E5014000E401400400FA05D6
:10B590000090D003143000200148006800470000EC
:10B5A0000C2F002070B58EB005461C216846FCF7B4
:10B5B000C7F99DF80000002440F00A008DF8000053
:10B5C000039401268DF8366042F69620ADF83400DB
:10B5D0000C949DF83000019420F00F00401C20F0E6
:10B5E000F00010308DF830009DF83100049420F008
:10B5F0000F00401C20F0F00010308DF831009DF855
:10B600003200059420F00600801C20F0100040F06D
:10B6100009008DF832000694142107A8FCF790F970
:10B620000DA807900CA80890ADF824600320ADF891
:10B630002640ADF828000B94288805F1420307AA9C
:10B640006946AADF0EB070BD044880F87210044944
:10B650000120C8740349C87270470000F837002001
:10B66000C8300020302D002038B5064C2068002559
:10B67000002805D004484068804725602068009075
:10B6800038BD0000000101401C2F002002E008C866
:10B69000121F08C1002AFAD170477047002001E04C
:10B6A00001C1121F002AFBD1704700000121202890
:10B6B00003DA81400548014003E0402802DA2038DF
:10B6C000814009B10120704700207047FC06FFBD92
:10B6D0002DE9F843804643F2020669B969460EF047
:10B6E00035FAB04204D018B128A2B121FAF792FD80
:10B6F0009DF80000800746D4002140460EF030FA45
:10B70000050040D0112D3ED02E482F49401AC708C1
:10B71000022000EB07440D2D0AD00B2D1DD0B542A1
:10B720001FD12A4920464246BDE8F8430BF0D6B85F
:10B730002046424626490BF0D1F81321404676DFD9
:10B74000002820D00BF08CFE024601B02046434674
:10B75000BDE8F0431FA10BF0C8B8204642462B4974
:10B76000E2E728460BF07CFE0246012000EB074092
:10B77000434627A10BF0B9F82846BDE8F84303A2D9
:10B78000E021FAF747BDBDE8F88300002E2E5C6388
:10B790006F6D706F6E656E74735C626C655C706506
:10B7A00065725F6D616E616765725C706565725F21
:10B7B0006D616E616765725F68616E646C65722E43
:10B7C0006300000040A70400F8A60400748D040084
:10B7D000008D040073645F626C655F6761705F6415
:10B7E0006973636F6E6E6563742829207265747562
:10B7F000726E6564202573206F6E20636F6E6E5FBE
:10B8000068616E646C652025642E0000C08D0400A4
:10B81000417373657274696E672E20706D5F636F1C
:10B820006E6E5F7365637572652829207265747525
:10B83000726E6564202573206F6E20636F6E6E5F7D
:10B8400068616E646C652025642E000010B560B1DF
:10B8500059B102780B785208B2EB530F05D106228A
:10B86000401C491CFCF77EF808B1002010BD0120E7
:10B8700010BD800701D00020704701207047C368C9
:10B880008B4206D811440069491E814201D801202B
:10B8900070470020704790F82400012801D01F2035
:10B8A0007047EE20704710B501220221002002F0FF
:10B8B000ADFF08B1072810D107220221012002F0B4
:10B8C000A5FF08B1072808D100210A22084602F086
:10B8D0009DFF08B1072800D1002010BD00B5ABB016
:10B8E000AC216846FCF72CF802208DF800000020FF
:10B8F0008DF8020006218DF803100121ADF810101B
:10B90000144A8DF87C1005924FF49671CDE92210FF
:10B910001148299002F11C00099069460F4801F076
:10B92000DBF920B10E4A40F68621FAF773FC0B488A
:10B93000042290F85410012077DF20B1084A40F625
:10B940008921FAF767FC0121044801F0C2F92BB004
:10B9500000BD0000402D0020F18403008031002054
:10B96000C0B9020010B588B10F481049401AC0088C
:10B97000032101EB00400EA10AF0ACFF0EF0B8FE6F
:10B98000002810D00EA240F25E2108E003211048EA
:10B9900001F074FA002806D009A24FF41C71BDE82A
:10B9A0001040FAF737BC10BDF0A70400F8A6040059
:10B9B000457261736520626F6E6473210000000040
:10B9C0002E2E5C5372635C6D61696E2E6300000005
:10B9D00080310020C8B2642808D8054981F8930056
:10B9E000A1F5E661012088770249C872704700001E
:10B9F000F8370020302D0020C8B2642808D8054947
:10BA000081F89600A1F5E6610120C8770249C87265
:10BA100070470000F8370020302D002070B58EB040
:10BA200005461C216846FBF78BFF9DF800000024AB
:10BA300040F00A008DF80000039401268DF836606E
:10BA400042F67F20ADF834000C949DF8300001944C
:10BA500020F00F00401C20F0F00010308DF8300076
:10BA60009DF83100049420F00F00401C20F0F000FD
:10BA700010308DF831009DF83200059420F006005A
:10BA8000801C20F0100040F009008DF83200069470
:10BA9000142107A8FBF754FF0DA807900CA8ADF8D8
:10BAA00024600890ADF82640ADF828600B942888F3
:10BAB00005F1620307AA6946AADF0EB070BD000057
:10BAC000044880F87E1004490120C8750349C872F3
:10BAD00070470000F8370020C8300020302D0020CB
